{
  "_format": "hh-sol-artifact-1",
  "contractName": "MusicStoneService",
  "sourceName": "contracts/MusicStoneService.sol",
  "abi": [
    {
      "constant": true,
      "inputs": [
        {
          "name": "_account",
          "type": "address"
        }
      ],
      "name": "getArtistSfts",
      "outputs": [
        {
          "name": "",
          "type": "uint256[]"
        }
      ],
      "payable": false,
      "stateMutability": "view",
      "type": "function"
    },
    {
      "constant": true,
      "inputs": [
        {
          "name": "interfaceId",
          "type": "bytes4"
        }
      ],
      "name": "supportsInterface",
      "outputs": [
        {
          "name": "",
          "type": "bool"
        }
      ],
      "payable": false,
      "stateMutability": "view",
      "type": "function"
    },
    {
      "constant": false,
      "inputs": [
        {
          "name": "_token",
          "type": "address"
        }
      ],
      "name": "setToken",
      "outputs": [],
      "payable": false,
      "stateMutability": "nonpayable",
      "type": "function"
    },
    {
      "constant": false,
      "inputs": [
        {
          "name": "_amount",
          "type": "uint256"
        }
      ],
      "name": "sellToken",
      "outputs": [],
      "payable": true,
      "stateMutability": "payable",
      "type": "function"
    },
    {
      "constant": true,
      "inputs": [
        {
          "name": "_seller",
          "type": "address"
        }
      ],
      "name": "getItemsByOwner",
      "outputs": [
        {
          "components": [
            {
              "name": "itemId",
              "type": "uint256"
            },
            {
              "name": "tokenId",
              "type": "uint256"
            },
            {
              "name": "seller",
              "type": "address"
            },
            {
              "name": "unit_price",
              "type": "uint256"
            },
            {
              "name": "total_amount",
              "type": "uint256"
            },
            {
              "name": "remaining_amount",
              "type": "uint256"
            },
            {
              "name": "isOpened",
              "type": "bool"
            }
          ],
          "name": "",
          "type": "tuple[]"
        }
      ],
      "payable": false,
      "stateMutability": "view",
      "type": "function"
    },
    {
      "constant": true,
      "inputs": [],
      "name": "mstoken",
      "outputs": [
        {
          "name": "",
          "type": "address"
        }
      ],
      "payable": false,
      "stateMutability": "view",
      "type": "function"
    },
    {
      "constant": false,
      "inputs": [],
      "name": "withdraw",
      "outputs": [],
      "payable": true,
      "stateMutability": "payable",
      "type": "function"
    },
    {
      "constant": true,
      "inputs": [],
      "name": "mssft",
      "outputs": [
        {
          "name": "",
          "type": "address"
        }
      ],
      "payable": false,
      "stateMutability": "view",
      "type": "function"
    },
    {
      "constant": false,
      "inputs": [
        {
          "name": "itemId",
          "type": "uint256"
        }
      ],
      "name": "cancelItem",
      "outputs": [],
      "payable": false,
      "stateMutability": "nonpayable",
      "type": "function"
    },
    {
      "constant": true,
      "inputs": [
        {
          "name": "marketItemId",
          "type": "uint256"
        }
      ],
      "name": "getMarketItemById",
      "outputs": [
        {
          "components": [
            {
              "name": "itemId",
              "type": "uint256"
            },
            {
              "name": "tokenId",
              "type": "uint256"
            },
            {
              "name": "seller",
              "type": "address"
            },
            {
              "name": "unit_price",
              "type": "uint256"
            },
            {
              "name": "total_amount",
              "type": "uint256"
            },
            {
              "name": "remaining_amount",
              "type": "uint256"
            },
            {
              "name": "isOpened",
              "type": "bool"
            }
          ],
          "name": "",
          "type": "tuple"
        }
      ],
      "payable": false,
      "stateMutability": "view",
      "type": "function"
    },
    {
      "constant": false,
      "inputs": [],
      "name": "renounceOwnership",
      "outputs": [],
      "payable": false,
      "stateMutability": "nonpayable",
      "type": "function"
    },
    {
      "constant": true,
      "inputs": [],
      "name": "owner",
      "outputs": [
        {
          "name": "",
          "type": "address"
        }
      ],
      "payable": false,
      "stateMutability": "view",
      "type": "function"
    },
    {
      "constant": true,
      "inputs": [],
      "name": "isOwner",
      "outputs": [
        {
          "name": "",
          "type": "bool"
        }
      ],
      "payable": false,
      "stateMutability": "view",
      "type": "function"
    },
    {
      "constant": false,
      "inputs": [
        {
          "name": "account",
          "type": "address"
        }
      ],
      "name": "addMinter",
      "outputs": [],
      "payable": false,
      "stateMutability": "nonpayable",
      "type": "function"
    },
    {
      "constant": false,
      "inputs": [],
      "name": "renounceMinter",
      "outputs": [],
      "payable": false,
      "stateMutability": "nonpayable",
      "type": "function"
    },
    {
      "constant": false,
      "inputs": [
        {
          "name": "",
          "type": "address"
        },
        {
          "name": "",
          "type": "address"
        },
        {
          "name": "",
          "type": "uint256[]"
        },
        {
          "name": "",
          "type": "uint256[]"
        },
        {
          "name": "",
          "type": "bytes"
        }
      ],
      "name": "onKIP37BatchReceived",
      "outputs": [
        {
          "name": "",
          "type": "bytes4"
        }
      ],
      "payable": false,
      "stateMutability": "nonpayable",
      "type": "function"
    },
    {
      "constant": true,
      "inputs": [],
      "name": "getUnsoldItems",
      "outputs": [
        {
          "components": [
            {
              "name": "itemId",
              "type": "uint256"
            },
            {
              "name": "tokenId",
              "type": "uint256"
            },
            {
              "name": "seller",
              "type": "address"
            },
            {
              "name": "unit_price",
              "type": "uint256"
            },
            {
              "name": "total_amount",
              "type": "uint256"
            },
            {
              "name": "remaining_amount",
              "type": "uint256"
            },
            {
              "name": "isOpened",
              "type": "bool"
            }
          ],
          "name": "",
          "type": "tuple[]"
        }
      ],
      "payable": false,
      "stateMutability": "view",
      "type": "function"
    },
    {
      "constant": true,
      "inputs": [
        {
          "name": "_account",
          "type": "address"
        }
      ],
      "name": "getOwnerAllSFTs",
      "outputs": [
        {
          "components": [
            {
              "name": "id",
              "type": "uint256"
            },
            {
              "name": "balance",
              "type": "uint256"
            },
            {
              "name": "totalSupply",
              "type": "uint256"
            }
          ],
          "name": "",
          "type": "tuple[]"
        }
      ],
      "payable": false,
      "stateMutability": "view",
      "type": "function"
    },
    {
      "constant": false,
      "inputs": [],
      "name": "buyToken",
      "outputs": [],
      "payable": true,
      "stateMutability": "payable",
      "type": "function"
    },
    {
      "constant": true,
      "inputs": [
        {
          "name": "account",
          "type": "address"
        }
      ],
      "name": "isMinter",
      "outputs": [
        {
          "name": "",
          "type": "bool"
        }
      ],
      "payable": false,
      "stateMutability": "view",
      "type": "function"
    },
    {
      "constant": false,
      "inputs": [
        {
          "name": "_amount",
          "type": "uint256"
        }
      ],
      "name": "mintSFT",
      "outputs": [],
      "payable": false,
      "stateMutability": "nonpayable",
      "type": "function"
    },
    {
      "constant": true,
      "inputs": [
        {
          "name": "_id",
          "type": "uint256"
        }
      ],
      "name": "totalSupply",
      "outputs": [
        {
          "name": "",
          "type": "uint256"
        }
      ],
      "payable": false,
      "stateMutability": "view",
      "type": "function"
    },
    {
      "constant": false,
      "inputs": [
        {
          "name": "_token",
          "type": "address"
        }
      ],
      "name": "setSFT",
      "outputs": [],
      "payable": false,
      "stateMutability": "nonpayable",
      "type": "function"
    },
    {
      "constant": true,
      "inputs": [],
      "name": "getTokenRatio",
      "outputs": [
        {
          "name": "",
          "type": "uint256"
        }
      ],
      "payable": false,
      "stateMutability": "view",
      "type": "function"
    },
    {
      "constant": false,
      "inputs": [
        {
          "name": "itemId",
          "type": "uint256"
        },
        {
          "name": "buy_amount",
          "type": "uint256"
        }
      ],
      "name": "purchaseItem",
      "outputs": [],
      "payable": true,
      "stateMutability": "payable",
      "type": "function"
    },
    {
      "constant": false,
      "inputs": [
        {
          "name": "_newTokenRatio",
          "type": "uint256"
        }
      ],
      "name": "setTokenRatio",
      "outputs": [],
      "payable": false,
      "stateMutability": "nonpayable",
      "type": "function"
    },
    {
      "constant": true,
      "inputs": [
        {
          "name": "_id",
          "type": "uint256"
        }
      ],
      "name": "getSftCreator",
      "outputs": [
        {
          "name": "",
          "type": "address"
        }
      ],
      "payable": false,
      "stateMutability": "view",
      "type": "function"
    },
    {
      "constant": false,
      "inputs": [
        {
          "name": "",
          "type": "address"
        },
        {
          "name": "",
          "type": "address"
        },
        {
          "name": "",
          "type": "uint256"
        },
        {
          "name": "",
          "type": "uint256"
        },
        {
          "name": "",
          "type": "bytes"
        }
      ],
      "name": "onKIP37Received",
      "outputs": [
        {
          "name": "",
          "type": "bytes4"
        }
      ],
      "payable": false,
      "stateMutability": "nonpayable",
      "type": "function"
    },
    {
      "constant": false,
      "inputs": [
        {
          "name": "newOwner",
          "type": "address"
        }
      ],
      "name": "transferOwnership",
      "outputs": [],
      "payable": false,
      "stateMutability": "nonpayable",
      "type": "function"
    },
    {
      "constant": false,
      "inputs": [
        {
          "name": "tokenId",
          "type": "uint256"
        },
        {
          "name": "unit_price",
          "type": "uint256"
        },
        {
          "name": "amount",
          "type": "uint256"
        }
      ],
      "name": "addItemToMarket",
      "outputs": [],
      "payable": true,
      "stateMutability": "payable",
      "type": "function"
    },
    {
      "constant": true,
      "inputs": [
        {
          "name": "_account",
          "type": "address[]"
        }
      ],
      "name": "getOwnersAllSFTs",
      "outputs": [
        {
          "components": [
            {
              "name": "id",
              "type": "uint256"
            },
            {
              "name": "balance",
              "type": "uint256"
            },
            {
              "name": "totalSupply",
              "type": "uint256"
            }
          ],
          "name": "",
          "type": "tuple[][]"
        }
      ],
      "payable": false,
      "stateMutability": "view",
      "type": "function"
    },
    {
      "inputs": [],
      "payable": false,
      "stateMutability": "nonpayable",
      "type": "constructor"
    },
    {
      "anonymous": false,
      "inputs": [
        {
          "indexed": true,
          "name": "itemId",
          "type": "uint256"
        },
        {
          "indexed": true,
          "name": "tokenId",
          "type": "uint256"
        },
        {
          "indexed": false,
          "name": "seller",
          "type": "address"
        },
        {
          "indexed": false,
          "name": "unit_price",
          "type": "uint256"
        },
        {
          "indexed": false,
          "name": "total_amount",
          "type": "uint256"
        },
        {
          "indexed": false,
          "name": "remaining_amount",
          "type": "uint256"
        }
      ],
      "name": "MarketItemCreated",
      "type": "event"
    },
    {
      "anonymous": false,
      "inputs": [
        {
          "indexed": true,
          "name": "itemId",
          "type": "uint256"
        },
        {
          "indexed": true,
          "name": "tokenId",
          "type": "uint256"
        },
        {
          "indexed": false,
          "name": "seller",
          "type": "address"
        },
        {
          "indexed": false,
          "name": "buyer",
          "type": "address"
        },
        {
          "indexed": false,
          "name": "unit_price",
          "type": "uint256"
        },
        {
          "indexed": false,
          "name": "total_amount",
          "type": "uint256"
        },
        {
          "indexed": false,
          "name": "buy_amount",
          "type": "uint256"
        },
        {
          "indexed": false,
          "name": "remaining_amount",
          "type": "uint256"
        }
      ],
      "name": "MarketItemSelled",
      "type": "event"
    },
    {
      "anonymous": false,
      "inputs": [
        {
          "indexed": true,
          "name": "itemId",
          "type": "uint256"
        },
        {
          "indexed": true,
          "name": "tokenId",
          "type": "uint256"
        },
        {
          "indexed": false,
          "name": "seller",
          "type": "address"
        },
        {
          "indexed": false,
          "name": "unit_price",
          "type": "uint256"
        },
        {
          "indexed": false,
          "name": "total_amount",
          "type": "uint256"
        },
        {
          "indexed": false,
          "name": "remaining_amount",
          "type": "uint256"
        }
      ],
      "name": "MarketItemCancel",
      "type": "event"
    },
    {
      "anonymous": false,
      "inputs": [
        {
          "indexed": true,
          "name": "account",
          "type": "address"
        }
      ],
      "name": "MinterAdded",
      "type": "event"
    },
    {
      "anonymous": false,
      "inputs": [
        {
          "indexed": true,
          "name": "account",
          "type": "address"
        }
      ],
      "name": "MinterRemoved",
      "type": "event"
    },
    {
      "anonymous": false,
      "inputs": [
        {
          "indexed": true,
          "name": "previousOwner",
          "type": "address"
        },
        {
          "indexed": true,
          "name": "newOwner",
          "type": "address"
        }
      ],
      "name": "OwnershipTransferred",
      "type": "event"
    }
  ],
  "bytecode": "0x60806040526101f460035567016345785d8a0000600e553480156200002357600080fd5b50336000806101000a81548173ffffffffffffffffffffffffffffffffffffffff021916908373ffffffffffffffffffffffffffffffffffffffff1602179055506000809054906101000a900473ffffffffffffffffffffffffffffffffffffffff1673ffffffffffffffffffffffffffffffffffffffff16600073ffffffffffffffffffffffffffffffffffffffff167f8be0079c531659141344cd1fd0a4f28419497f9722a3daafe3b4186f6b6457e060405160405180910390a3620000f1336200016460201b60201c565b620001096301ffc9a760e01b620001c560201b60201c565b6200015e600073ffffffffffffffffffffffffffffffffffffffff16639b49e332905060e01b600073ffffffffffffffffffffffffffffffffffffffff1663e78b3325905060e01b18620001c560201b60201c565b6200057f565b6200017f8160016200029e60201b62002e2a1790919060201c565b8073ffffffffffffffffffffffffffffffffffffffff167f6ae172837ea30b801fbfcdd4108aa1d5bf8ff775444fd70256b44e6bf3dfc3f660405160405180910390a250565b63ffffffff60e01b817bffffffffffffffffffffffffffffffffffffffffffffffffffffffff1916141562000231576040517f08c379a000000000000000000000000000000000000000000000000000000000815260040162000228906200052a565b60405180910390fd5b600160026000837bffffffffffffffffffffffffffffffffffffffffffffffffffffffff19167bffffffffffffffffffffffffffffffffffffffffffffffffffffffff1916815260200190815260200160002060006101000a81548160ff02191690831515021790555050565b620002b082826200035160201b60201c565b15620002f3576040517f08c379a0000000000000000000000000000000000000000000000000000000008152600401620002ea9062000508565b60405180910390fd5b60018260000160008373ffffffffffffffffffffffffffffffffffffffff1673ffffffffffffffffffffffffffffffffffffffff16815260200190815260200160002060006101000a81548160ff0219169083151502179055505050565b60008073ffffffffffffffffffffffffffffffffffffffff168273ffffffffffffffffffffffffffffffffffffffff161415620003c5576040517f08c379a0000000000000000000000000000000000000000000000000000000008152600401620003bc906200054c565b60405180910390fd5b8260000160008373ffffffffffffffffffffffffffffffffffffffff1673ffffffffffffffffffffffffffffffffffffffff16815260200190815260200160002060009054906101000a900460ff16905092915050565b60006200042b601f836200056e565b91507f526f6c65733a206163636f756e7420616c72656164792068617320726f6c65006000830152602082019050919050565b60006200046d601b836200056e565b91507f4b495031333a20696e76616c696420696e7465726661636520696400000000006000830152602082019050919050565b6000620004af6022836200056e565b91507f526f6c65733a206163636f756e7420697320746865207a65726f20616464726560008301527f73730000000000000000000000000000000000000000000000000000000000006020830152604082019050919050565b6000602082019050818103600083015262000523816200041c565b9050919050565b6000602082019050818103600083015262000545816200045e565b9050919050565b600060208201905081810360008301526200056781620004a0565b9050919050565b600082825260208201905092915050565b614c8b806200058f6000396000f3fe6080604052600436106101d75760003560e01c80639b49e33211610102578063d8a4bfe111610095578063e78b332511610064578063e78b332514610673578063f2fde38b146106b0578063f7d20a23146106d9578063ffb3747c146106f5576101d7565b8063d8a4bfe1146105c6578063e0675698146105f1578063e38e91f91461060d578063e668302a14610636576101d7565b8063aa271e1a116100d1578063aa271e1a146104fa578063ac104f9014610537578063bd85b03914610560578063c37176b91461059d576101d7565b80639b49e3321461044b5780639b8bc127146104885780639e6dde84146104b3578063a4821719146104f0576101d7565b80634e71f8dc1161017a5780638da5cb5b116101495780638da5cb5b146103b55780638f32d59b146103e0578063983b2d561461040b5780639865027514610434576101d7565b80634e71f8dc1461030d57806351563f8e1461033857806353dbceb114610361578063715018a61461039e576101d7565b80632397e4d7116101b65780632397e4d71461027f5780632c67a8e51461029b57806338f5ba2f146102d85780633ccfd60b14610303576101d7565b8062e3c6c8146101dc57806301ffc9a714610219578063144fa6d714610256575b600080fd5b3480156101e857600080fd5b5061020360048036036101fe9190810190613472565b610732565b604051610210919061452a565b60405180910390f35b34801561022557600080fd5b50610240600480360361023b919081019061367c565b610839565b60405161024d919061454c565b60405180910390f35b34801561026257600080fd5b5061027d60048036036102789190810190613472565b6108a1565b005b610299600480360361029491908101906136a5565b61092c565b005b3480156102a757600080fd5b506102c260048036036102bd9190810190613472565b610ad9565b6040516102cf91906144e6565b60405180910390f35b3480156102e457600080fd5b506102ed610d4b565b6040516102fa9190614582565b60405180910390f35b61030b610d71565b005b34801561031957600080fd5b50610322610e0f565b60405161032f919061459d565b60405180910390f35b34801561034457600080fd5b5061035f600480360361035a91908101906136a5565b610e35565b005b34801561036d57600080fd5b50610388600480360361038391908101906136a5565b611078565b604051610395919061485a565b60405180910390f35b3480156103aa57600080fd5b506103b3611154565b005b3480156103c157600080fd5b506103ca61125a565b6040516103d791906142ca565b60405180910390f35b3480156103ec57600080fd5b506103f5611283565b604051610402919061454c565b60405180910390f35b34801561041757600080fd5b50610432600480360361042d9190810190613472565b6112da565b005b34801561044057600080fd5b5061044961132e565b005b34801561045757600080fd5b50610472600480360361046d91908101906134c4565b611339565b60405161047f9190614567565b60405180910390f35b34801561049457600080fd5b5061049d61134e565b6040516104aa91906144e6565b60405180910390f35b3480156104bf57600080fd5b506104da60048036036104d59190810190613472565b611501565b6040516104e79190614508565b60405180910390f35b6104f861170c565b005b34801561050657600080fd5b50610521600480360361051c9190810190613472565b611869565b60405161052e919061454c565b60405180910390f35b34801561054357600080fd5b5061055e600480360361055991908101906136a5565b611886565b005b34801561056c57600080fd5b50610587600480360361058291908101906136a5565b611b08565b6040516105949190614875565b60405180910390f35b3480156105a957600080fd5b506105c460048036036105bf9190810190613472565b611b25565b005b3480156105d257600080fd5b506105db611bb0565b6040516105e89190614875565b60405180910390f35b61060b600480360361060691908101906136f7565b611bba565b005b34801561061957600080fd5b50610634600480360361062f91908101906136a5565b611f35565b005b34801561064257600080fd5b5061065d600480360361065891908101906136a5565b611f86565b60405161066a91906142af565b60405180910390f35b34801561067f57600080fd5b5061069a60048036036106959190810190613583565b611fc3565b6040516106a79190614567565b60405180910390f35b3480156106bc57600080fd5b506106d760048036036106d2919081019061349b565b611fd8565b005b6106f360048036036106ee9190810190613733565b61202b565b005b34801561070157600080fd5b5061071c60048036036107179190810190613612565b612264565b60405161072991906144c4565b60405180910390f35b6060600073ffffffffffffffffffffffffffffffffffffffff168273ffffffffffffffffffffffffffffffffffffffff1614156107a4576040517f08c379a000000000000000000000000000000000000000000000000000000000815260040161079b9061465a565b60405180910390fd5b600860008373ffffffffffffffffffffffffffffffffffffffff1673ffffffffffffffffffffffffffffffffffffffff16815260200190815260200160002080548060200260200160405190810160405280929190818152602001828054801561082d57602002820191906000526020600020905b815481526020019060010190808311610819575b50505050509050919050565b600060026000837bffffffffffffffffffffffffffffffffffffffffffffffffffffffff19167bffffffffffffffffffffffffffffffffffffffffffffffffffffffff1916815260200190815260200160002060009054906101000a900460ff169050919050565b6108a9611283565b6108e8576040517f08c379a00000000000000000000000000000000000000000000000000000000081526004016108df9061475a565b60405180910390fd5b80600460006101000a81548173ffffffffffffffffffffffffffffffffffffffff021916908373ffffffffffffffffffffffffffffffffffffffff16021790555050565b6000600354828161093957fe5b04905081600460009054906101000a900473ffffffffffffffffffffffffffffffffffffffff1673ffffffffffffffffffffffffffffffffffffffff1663dd62ed3e33306040518363ffffffff1660e01b815260040161099a9291906142e5565b60206040518083038186803b1580156109b257600080fd5b505afa1580156109c6573d6000803e3d6000fd5b505050506040513d601f19601f820116820180604052506109ea91908101906136ce565b1015610a2b576040517f08c379a0000000000000000000000000000000000000000000000000000000008152600401610a229061479a565b60405180910390fd5b803073ffffffffffffffffffffffffffffffffffffffff16311015610a85576040517f08c379a0000000000000000000000000000000000000000000000000000000008152600401610a7c906147fa565b60405180910390fd5b610a9733610a9161125a565b846125da565b3373ffffffffffffffffffffffffffffffffffffffff166108fc829081150290604051600060405180830381858888f19350505050610ad557600080fd5b5050565b60606000610ae7600c6126d5565b90506000809050600080905060008090505b83811015610b82578573ffffffffffffffffffffffffffffffffffffffff16600b600060018401815260200190815260200160002060020160009054906101000a900473ffffffffffffffffffffffffffffffffffffffff1673ffffffffffffffffffffffffffffffffffffffff161415610b75576001830192505b8080600101915050610af9565b50606082604051908082528060200260200182016040528015610bbf57816020015b610bac6131d5565b815260200190600190039081610ba45790505b50905060008090505b84811015610d3e578673ffffffffffffffffffffffffffffffffffffffff16600b600060018401815260200190815260200160002060020160009054906101000a900473ffffffffffffffffffffffffffffffffffffffff1673ffffffffffffffffffffffffffffffffffffffff161415610d31576000600182019050610c4d61322a565b600b60008381526020019081526020016000206040518060e001604052908160008201548152602001600182015481526020016002820160009054906101000a900473ffffffffffffffffffffffffffffffffffffffff1673ffffffffffffffffffffffffffffffffffffffff1673ffffffffffffffffffffffffffffffffffffffff1681526020016003820154815260200160048201548152602001600582015481526020016006820160009054906101000a900460ff161515151581525050905080848681518110610d1d57fe5b602002602001018190525060018501945050505b8080600101915050610bc8565b5080945050505050919050565b600460009054906101000a900473ffffffffffffffffffffffffffffffffffffffff1681565b610d79611283565b610db8576040517f08c379a0000000000000000000000000000000000000000000000000000000008152600401610daf9061475a565b60405180910390fd5b3373ffffffffffffffffffffffffffffffffffffffff166108fc3073ffffffffffffffffffffffffffffffffffffffff16319081150290604051600060405180830381858888f19350505050610e0d57600080fd5b565b600560009054906101000a900473ffffffffffffffffffffffffffffffffffffffff1681565b6000600b600083815260200190815260200160002060020160009054906101000a900473ffffffffffffffffffffffffffffffffffffffff1690506000600b60008481526020019081526020016000206001015490506000600b60008581526020019081526020016000206005015490503373ffffffffffffffffffffffffffffffffffffffff168373ffffffffffffffffffffffffffffffffffffffff1614610f14576040517f08c379a0000000000000000000000000000000000000000000000000000000008152600401610f0b906147ba565b60405180910390fd5b600560009054906101000a900473ffffffffffffffffffffffffffffffffffffffff1673ffffffffffffffffffffffffffffffffffffffff1663f242432a303385856040518563ffffffff1660e01b8152600401610f759493929190614435565b600060405180830381600087803b158015610f8f57600080fd5b505af1158015610fa3573d6000803e3d6000fd5b50505050610fb0846126e3565b610fbb33838361271f565b81847fbd38f4b052b02b12cfef3a49a5a317df92360c746c95f08e9eead3f017d21baa600b600088815260200190815260200160002060020160009054906101000a900473ffffffffffffffffffffffffffffffffffffffff16600b600089815260200190815260200160002060030154600b60008a815260200190815260200160002060040154600b60008b81526020019081526020016000206005015460405161106a94939291906143f0565b60405180910390a350505050565b61108061322a565b61108861322a565b600b60008481526020019081526020016000206040518060e001604052908160008201548152602001600182015481526020016002820160009054906101000a900473ffffffffffffffffffffffffffffffffffffffff1673ffffffffffffffffffffffffffffffffffffffff1673ffffffffffffffffffffffffffffffffffffffff1681526020016003820154815260200160048201548152602001600582015481526020016006820160009054906101000a900460ff161515151581525050905080915050919050565b61115c611283565b61119b576040517f08c379a00000000000000000000000000000000000000000000000000000000081526004016111929061475a565b60405180910390fd5b600073ffffffffffffffffffffffffffffffffffffffff166000809054906101000a900473ffffffffffffffffffffffffffffffffffffffff1673ffffffffffffffffffffffffffffffffffffffff167f8be0079c531659141344cd1fd0a4f28419497f9722a3daafe3b4186f6b6457e060405160405180910390a360008060006101000a81548173ffffffffffffffffffffffffffffffffffffffff021916908373ffffffffffffffffffffffffffffffffffffffff160217905550565b60008060009054906101000a900473ffffffffffffffffffffffffffffffffffffffff16905090565b60008060009054906101000a900473ffffffffffffffffffffffffffffffffffffffff1673ffffffffffffffffffffffffffffffffffffffff163373ffffffffffffffffffffffffffffffffffffffff1614905090565b6112e333611869565b611322576040517f08c379a0000000000000000000000000000000000000000000000000000000008152600401611319906146da565b60405180910390fd5b61132b81612876565b50565b611337336128d0565b565b6000639b49e33260e01b905095945050505050565b6060600061135c600c6126d5565b9050600061136a600d6126d5565b611374600c6126d5565b03905060008090506060826040519080825280602002602001820160405280156113b857816020015b6113a56131d5565b81526020019060019003908161139d5790505b50905060008090505b848110156114f657600b600060018301815260200190815260200160002060060160009054906101000a900460ff16156114e957600060018201905061140561322a565b600b60008381526020019081526020016000206040518060e001604052908160008201548152602001600182015481526020016002820160009054906101000a900473ffffffffffffffffffffffffffffffffffffffff1673ffffffffffffffffffffffffffffffffffffffff1673ffffffffffffffffffffffffffffffffffffffff1681526020016003820154815260200160048201548152602001600582015481526020016006820160009054906101000a900460ff1615151515815250509050808486815181106114d557fe5b602002602001018190525060018501945050505b80806001019150506113c1565b508094505050505090565b60606000600660008473ffffffffffffffffffffffffffffffffffffffff1673ffffffffffffffffffffffffffffffffffffffff16815260200190815260200160002080549050905060608160405190808252806020026020018201604052801561158657816020015b61157361327f565b81526020019060019003908161156b5790505b50905060008090505b82811015611701576000600660008773ffffffffffffffffffffffffffffffffffffffff1673ffffffffffffffffffffffffffffffffffffffff16815260200190815260200160002082815481106115e357fe5b90600052602060002001549050600660008773ffffffffffffffffffffffffffffffffffffffff1673ffffffffffffffffffffffffffffffffffffffff168152602001908152602001600020828154811061163a57fe5b906000526020600020015483838151811061165157fe5b60200260200101516000018181525050600760008773ffffffffffffffffffffffffffffffffffffffff1673ffffffffffffffffffffffffffffffffffffffff1681526020019081526020016000206000828152602001908152602001600020548383815181106116be57fe5b602002602001015160200181815250506116d781611b08565b8383815181106116e357fe5b6020026020010151604001818152505050808060010191505061158f565b508092505050919050565b6000600354340290506000600460009054906101000a900473ffffffffffffffffffffffffffffffffffffffff1673ffffffffffffffffffffffffffffffffffffffff1663dd62ed3e61175d61125a565b306040518363ffffffff1660e01b815260040161177b9291906142e5565b60206040518083038186803b15801561179357600080fd5b505afa1580156117a7573d6000803e3d6000fd5b505050506040513d601f19601f820116820180604052506117cb91908101906136ce565b905060003411611810576040517f08c379a0000000000000000000000000000000000000000000000000000000008152600401611807906145da565b60405180910390fd5b81811015611853576040517f08c379a000000000000000000000000000000000000000000000000000000000815260040161184a906146fa565b60405180910390fd5b61186561185e61125a565b33846125da565b5050565b600061187f82600161292a90919063ffffffff16565b9050919050565b61188f33611869565b6118ce576040517f08c379a00000000000000000000000000000000000000000000000000000000081526004016118c5906146da565b60405180910390fd5b6000600560009054906101000a900473ffffffffffffffffffffffffffffffffffffffff1673ffffffffffffffffffffffffffffffffffffffff16635b456a706040518163ffffffff1660e01b815260040160206040518083038186803b15801561193857600080fd5b505afa15801561194c573d6000803e3d6000fd5b505050506040513d601f19601f8201168201806040525061197091908101906136ce565b9050600560009054906101000a900473ffffffffffffffffffffffffffffffffffffffff1673ffffffffffffffffffffffffffffffffffffffff166374c1832033846040518363ffffffff1660e01b81526004016119cf9291906143c7565b600060405180830381600087803b1580156119e957600080fd5b505af11580156119fd573d6000803e3d6000fd5b50505050600860003373ffffffffffffffffffffffffffffffffffffffff1673ffffffffffffffffffffffffffffffffffffffff168152602001908152602001600020819080600181540180825580915050906001820390600052602060002001600090919290919091505550336009600083815260200190815260200160002060006101000a81548173ffffffffffffffffffffffffffffffffffffffff021916908373ffffffffffffffffffffffffffffffffffffffff160217905550611ae282600a6000848152602001908152602001600020546129f290919063ffffffff16565b600a600083815260200190815260200160002081905550611b0433828461271f565b5050565b6000600a6000838152602001908152602001600020549050919050565b611b2d611283565b611b6c576040517f08c379a0000000000000000000000000000000000000000000000000000000008152600401611b639061475a565b60405180910390fd5b80600560006101000a81548173ffffffffffffffffffffffffffffffffffffffff021916908373ffffffffffffffffffffffffffffffffffffffff16021790555050565b6000600354905090565b6000600b600084815260200190815260200160002060060160009054906101000a900460ff1690506001151581151514611c29576040517f08c379a0000000000000000000000000000000000000000000000000000000008152600401611c209061481a565b60405180910390fd5b6000600b60008581526020019081526020016000206001015490506000600b60008681526020019081526020016000206003015490506000600b600087815260200190815260200160002060050154905084811015611cbd576040517f08c379a0000000000000000000000000000000000000000000000000000000008152600401611cb49061483a565b60405180910390fd5b8482023414611d01576040517f08c379a0000000000000000000000000000000000000000000000000000000008152600401611cf89061473a565b60405180910390fd5b600b600087815260200190815260200160002060020160009054906101000a900473ffffffffffffffffffffffffffffffffffffffff1673ffffffffffffffffffffffffffffffffffffffff166108fc349081150290604051600060405180830381858888f19350505050158015611d7d573d6000803e3d6000fd5b50600560009054906101000a900473ffffffffffffffffffffffffffffffffffffffff1673ffffffffffffffffffffffffffffffffffffffff1663f242432a303386896040518563ffffffff1660e01b8152600401611ddf9493929190614435565b600060405180830381600087803b158015611df957600080fd5b505af1158015611e0d573d6000803e3d6000fd5b50505050611e3a85600b600089815260200190815260200160002060050154612a4790919063ffffffff16565b600b6000888152602001908152602001600020600501819055506000600b6000888152602001908152602001600020600501541415611e7d57611e7c866126e3565b5b611e8833848761271f565b82867f600918f9eafb4d7ea2306fe40426faf0301ad83352c5dc1a74978e5ae36345b6600b60008a815260200190815260200160002060020160009054906101000a900473ffffffffffffffffffffffffffffffffffffffff163386600b60008d8152602001908152602001600020600401548b600b60008f815260200190815260200160002060050154604051611f259695949392919061430e565b60405180910390a3505050505050565b611f3d611283565b611f7c576040517f08c379a0000000000000000000000000000000000000000000000000000000008152600401611f739061475a565b60405180910390fd5b8060038190555050565b60006009600083815260200190815260200160002060009054906101000a900473ffffffffffffffffffffffffffffffffffffffff169050919050565b600063e78b332560e01b905095945050505050565b611fe0611283565b61201f576040517f08c379a00000000000000000000000000000000000000000000000000000000081526004016120169061475a565b60405180910390fd5b61202881612a91565b50565b6000821161206e576040517f08c379a0000000000000000000000000000000000000000000000000000000008152600401612065906147da565b60405180910390fd5b612078600c612bbf565b6000612084600c6126d5565b90506040518060e001604052808281526020018581526020013373ffffffffffffffffffffffffffffffffffffffff16815260200184815260200183815260200183815260200160011515815250600b6000838152602001908152602001600020600082015181600001556020820151816001015560408201518160020160006101000a81548173ffffffffffffffffffffffffffffffffffffffff021916908373ffffffffffffffffffffffffffffffffffffffff160217905550606082015181600301556080820151816004015560a0820151816005015560c08201518160060160006101000a81548160ff021916908315150217905550905050600560009054906101000a900473ffffffffffffffffffffffffffffffffffffffff1673ffffffffffffffffffffffffffffffffffffffff1663f242432a333087866040518563ffffffff1660e01b81526004016121e2949392919061436f565b600060405180830381600087803b1580156121fc57600080fd5b505af1158015612210573d6000803e3d6000fd5b5050505061221f338584612bd5565b83817f57fb6a47e970e71c47b9023fb3c64b4a6916a36ddb11d2531591a07afaddd0063386868760405161225694939291906143f0565b60405180910390a350505050565b60606000825190506060816040519080825280602002602001820160405280156122a257816020015b606081526020019060019003908161228d5790505b50905060008090505b8281101561236d576000600660008784815181106122c557fe5b602002602001015173ffffffffffffffffffffffffffffffffffffffff1673ffffffffffffffffffffffffffffffffffffffff1681526020019081526020016000208054905090508060405190808252806020026020018201604052801561234757816020015b61233461327f565b81526020019060019003908161232c5790505b5083838151811061235457fe5b60200260200101819052505080806001019150506122ab565b5060008090505b828110156125cf5760006006600087848151811061238e57fe5b602002602001015173ffffffffffffffffffffffffffffffffffffffff1673ffffffffffffffffffffffffffffffffffffffff16815260200190815260200160002080549050905060008090505b818110156125c0576000600660008986815181106123f657fe5b602002602001015173ffffffffffffffffffffffffffffffffffffffff1673ffffffffffffffffffffffffffffffffffffffff168152602001908152602001600020828154811061244357fe5b906000526020600020015490506006600089868151811061246057fe5b602002602001015173ffffffffffffffffffffffffffffffffffffffff1673ffffffffffffffffffffffffffffffffffffffff16815260200190815260200160002082815481106124ad57fe5b90600052602060002001548585815181106124c457fe5b602002602001015183815181106124d757fe5b60200260200101516000018181525050600760008986815181106124f757fe5b602002602001015173ffffffffffffffffffffffffffffffffffffffff1673ffffffffffffffffffffffffffffffffffffffff16815260200190815260200160002060008281526020019081526020016000205485858151811061255757fe5b6020026020010151838151811061256a57fe5b6020026020010151602001818152505061258381611b08565b85858151811061258f57fe5b602002602001015183815181106125a257fe5b602002602001015160400181815250505080806001019150506123dc565b50508080600101915050612374565b508092505050919050565b6000600460009054906101000a900473ffffffffffffffffffffffffffffffffffffffff1673ffffffffffffffffffffffffffffffffffffffff166323b872dd8585856040518463ffffffff1660e01b815260040161263b9392919061448d565b602060405180830381600087803b15801561265557600080fd5b505af1158015612669573d6000803e3d6000fd5b505050506040513d601f19601f8201168201806040525061268d9190810190613653565b9050806126cf576040517f08c379a00000000000000000000000000000000000000000000000000000000081526004016126c6906146ba565b60405180910390fd5b50505050565b600081600001549050919050565b6000600b600083815260200190815260200160002060060160006101000a81548160ff02191690831515021790555061271c600d612bbf565b50565b7fffffffffffffffffffffffffffffffffffffffffffffffffffffffffffffffff61274a8484612d2e565b14156127ba57600660008473ffffffffffffffffffffffffffffffffffffffff1673ffffffffffffffffffffffffffffffffffffffff1681526020019081526020016000208290806001815401808255809150509060018203906000526020600020016000909192909190915055505b61281d81600760008673ffffffffffffffffffffffffffffffffffffffff1673ffffffffffffffffffffffffffffffffffffffff1681526020019081526020016000206000858152602001908152602001600020546129f290919063ffffffff16565b600760008573ffffffffffffffffffffffffffffffffffffffff1673ffffffffffffffffffffffffffffffffffffffff168152602001908152602001600020600084815260200190815260200160002081905550505050565b61288a816001612e2a90919063ffffffff16565b8073ffffffffffffffffffffffffffffffffffffffff167f6ae172837ea30b801fbfcdd4108aa1d5bf8ff775444fd70256b44e6bf3dfc3f660405160405180910390a250565b6128e4816001612ed290919063ffffffff16565b8073ffffffffffffffffffffffffffffffffffffffff167fe94479a9f7e1952cc78f2d6baab678adc1b772d936c6583def489e524cb6669260405160405180910390a250565b60008073ffffffffffffffffffffffffffffffffffffffff168273ffffffffffffffffffffffffffffffffffffffff16141561299b576040517f08c379a00000000000000000000000000000000000000000000000000000000081526004016129929061477a565b60405180910390fd5b8260000160008373ffffffffffffffffffffffffffffffffffffffff1673ffffffffffffffffffffffffffffffffffffffff16815260200190815260200160002060009054906101000a900460ff16905092915050565b600080828401905083811015612a3d576040517f08c379a0000000000000000000000000000000000000000000000000000000008152600401612a349061463a565b60405180910390fd5b8091505092915050565b6000612a8983836040518060400160405280601e81526020017f536166654d6174683a207375627472616374696f6e206f766572666c6f770000815250612f79565b905092915050565b600073ffffffffffffffffffffffffffffffffffffffff168173ffffffffffffffffffffffffffffffffffffffff161415612b01576040517f08c379a0000000000000000000000000000000000000000000000000000000008152600401612af89061461a565b60405180910390fd5b8073ffffffffffffffffffffffffffffffffffffffff166000809054906101000a900473ffffffffffffffffffffffffffffffffffffffff1673ffffffffffffffffffffffffffffffffffffffff167f8be0079c531659141344cd1fd0a4f28419497f9722a3daafe3b4186f6b6457e060405160405180910390a3806000806101000a81548173ffffffffffffffffffffffffffffffffffffffff021916908373ffffffffffffffffffffffffffffffffffffffff16021790555050565b6001816000016000828254019250508190555050565b80600760008573ffffffffffffffffffffffffffffffffffffffff1673ffffffffffffffffffffffffffffffffffffffff1681526020019081526020016000206000848152602001908152602001600020541015612c68576040517f08c379a0000000000000000000000000000000000000000000000000000000008152600401612c5f9061467a565b60405180910390fd5b612ccb81600760008673ffffffffffffffffffffffffffffffffffffffff1673ffffffffffffffffffffffffffffffffffffffff168152602001908152602001600020600085815260200190815260200160002054612a4790919063ffffffff16565b600760008573ffffffffffffffffffffffffffffffffffffffff1673ffffffffffffffffffffffffffffffffffffffff168152602001908152602001600020600084815260200190815260200160002081905550612d298383612fd4565b505050565b600080600660008573ffffffffffffffffffffffffffffffffffffffff1673ffffffffffffffffffffffffffffffffffffffff16815260200190815260200160002080549050905060008090505b81811015612dfe576000600660008773ffffffffffffffffffffffffffffffffffffffff1673ffffffffffffffffffffffffffffffffffffffff1681526020019081526020016000208281548110612dd057fe5b9060005260206000200154905080851415612df057809350505050612e24565b508080600101915050612d7c565b507fffffffffffffffffffffffffffffffffffffffffffffffffffffffffffffffff9150505b92915050565b612e34828261292a565b15612e74576040517f08c379a0000000000000000000000000000000000000000000000000000000008152600401612e6b906145fa565b60405180910390fd5b60018260000160008373ffffffffffffffffffffffffffffffffffffffff1673ffffffffffffffffffffffffffffffffffffffff16815260200190815260200160002060006101000a81548160ff0219169083151502179055505050565b612edc828261292a565b612f1b576040517f08c379a0000000000000000000000000000000000000000000000000000000008152600401612f129061471a565b60405180910390fd5b60008260000160008373ffffffffffffffffffffffffffffffffffffffff1673ffffffffffffffffffffffffffffffffffffffff16815260200190815260200160002060006101000a81548160ff0219169083151502179055505050565b6000838311158290612fc1576040517f08c379a0000000000000000000000000000000000000000000000000000000008152600401612fb891906145b8565b60405180910390fd5b5060008385039050809150509392505050565b6000600760008473ffffffffffffffffffffffffffffffffffffffff1673ffffffffffffffffffffffffffffffffffffffff16815260200190815260200160002060008381526020019081526020016000205414156131d15760006130398383612d2e565b9050600081101561307f576040517f08c379a00000000000000000000000000000000000000000000000000000000081526004016130769061469a565b60405180910390fd5b600660008473ffffffffffffffffffffffffffffffffffffffff1673ffffffffffffffffffffffffffffffffffffffff1681526020019081526020016000206001600660008673ffffffffffffffffffffffffffffffffffffffff1673ffffffffffffffffffffffffffffffffffffffff16815260200190815260200160002080549050038154811061310e57fe5b9060005260206000200154600660008573ffffffffffffffffffffffffffffffffffffffff1673ffffffffffffffffffffffffffffffffffffffff168152602001908152602001600020828154811061316357fe5b9060005260206000200181905550600660008473ffffffffffffffffffffffffffffffffffffffff1673ffffffffffffffffffffffffffffffffffffffff1681526020019081526020016000208054806131b957fe5b60019003818190600052602060002001600090559055505b5050565b6040518060e001604052806000815260200160008152602001600073ffffffffffffffffffffffffffffffffffffffff1681526020016000815260200160008152602001600081526020016000151581525090565b6040518060e001604052806000815260200160008152602001600073ffffffffffffffffffffffffffffffffffffffff1681526020016000815260200160008152602001600081526020016000151581525090565b60405180606001604052806000815260200160008152602001600081525090565b60006132ac8235614afa565b905092915050565b60006132c08235614b0c565b905092915050565b600082601f8301126132d957600080fd5b81356132ec6132e7826148bd565b614890565b9150818183526020840193506020810190508385602084028201111561331157600080fd5b60005b83811015613341578161332788826132a0565b845260208401935060208301925050600181019050613314565b5050505092915050565b600082601f83011261335c57600080fd5b813561336f61336a826148e5565b614890565b9150818183526020840193506020810190508385602084028201111561339457600080fd5b60005b838110156133c457816133aa888261344a565b845260208401935060208301925050600181019050613397565b5050505092915050565b60006133da8251614b1e565b905092915050565b60006133ee8235614b2a565b905092915050565b600082601f83011261340757600080fd5b813561341a6134158261490d565b614890565b9150808252602083016020830185838301111561343657600080fd5b613441838284614bfe565b50505092915050565b60006134568235614b76565b905092915050565b600061346a8251614b76565b905092915050565b60006020828403121561348457600080fd5b6000613492848285016132a0565b91505092915050565b6000602082840312156134ad57600080fd5b60006134bb848285016132b4565b91505092915050565b600080600080600060a086880312156134dc57600080fd5b60006134ea888289016132a0565b95505060206134fb888289016132a0565b945050604086013567ffffffffffffffff81111561351857600080fd5b6135248882890161334b565b935050606086013567ffffffffffffffff81111561354157600080fd5b61354d8882890161334b565b925050608086013567ffffffffffffffff81111561356a57600080fd5b613576888289016133f6565b9150509295509295909350565b600080600080600060a0868803121561359b57600080fd5b60006135a9888289016132a0565b95505060206135ba888289016132a0565b94505060406135cb8882890161344a565b93505060606135dc8882890161344a565b925050608086013567ffffffffffffffff8111156135f957600080fd5b613605888289016133f6565b9150509295509295909350565b60006020828403121561362457600080fd5b600082013567ffffffffffffffff81111561363e57600080fd5b61364a848285016132c8565b91505092915050565b60006020828403121561366557600080fd5b6000613673848285016133ce565b91505092915050565b60006020828403121561368e57600080fd5b600061369c848285016133e2565b91505092915050565b6000602082840312156136b757600080fd5b60006136c58482850161344a565b91505092915050565b6000602082840312156136e057600080fd5b60006136ee8482850161345e565b91505092915050565b6000806040838503121561370a57600080fd5b60006137188582860161344a565b92505060206137298582860161344a565b9150509250929050565b60008060006060848603121561374857600080fd5b60006137568682870161344a565b93505060206137678682870161344a565b92505060406137788682870161344a565b9150509250925092565b600061378e838361393f565b905092915050565b60006137a283836141c1565b60e08301905092915050565b60006137ba838361424f565b60608301905092915050565b60006137d28383614291565b60208301905092915050565b6137e781614b80565b82525050565b6137f681614a86565b82525050565b61380581614a86565b82525050565b61381481614a74565b82525050565b60006138258261497a565b61382f81856149fd565b93508360208202850161384185614939565b60005b8481101561387a57838303885261385c838351613782565b9250613867826149bc565b9150602088019750600181019050613844565b508196508694505050505092915050565b600061389682614985565b6138a08185614a0e565b93506138ab83614946565b60005b828110156138d9576138c1868351613796565b95506138cc826149c9565b91506001810190506138ae565b50849250505092915050565b60006138f08261499b565b6138fa8185614a30565b935061390583614960565b60005b828110156139335761391b8683516137ae565b9550613926826149e3565b9150600181019050613908565b50849250505092915050565b600061394a82614990565b6139548185614a1f565b935061395f83614953565b60005b8281101561398d576139758683516137ae565b9550613980826149d6565b9150600181019050613962565b50849250505092915050565b60006139a4826149a6565b6139ae8185614a41565b93506139b98361496d565b60005b828110156139e7576139cf8683516137c6565b95506139da826149f0565b91506001810190506139bc565b50849250505092915050565b6139fc81614a98565b82525050565b613a0b81614a98565b82525050565b613a1a81614aa4565b82525050565b613a2981614b92565b82525050565b613a3881614bb6565b82525050565b6000613a49826149b1565b613a538185614a63565b9350613a63818560208601614c0d565b613a6c81614c40565b840191505092915050565b6000613a84602783614a63565b91507f596f75206d75737420706179206174206c65617374203120455448207065722060008301527f63757063616b65000000000000000000000000000000000000000000000000006020830152604082019050919050565b6000613aea601f83614a63565b91507f526f6c65733a206163636f756e7420616c72656164792068617320726f6c65006000830152602082019050919050565b6000613b2a602683614a63565b91507f4f776e61626c653a206e6577206f776e657220697320746865207a65726f206160008301527f64647265737300000000000000000000000000000000000000000000000000006020830152604082019050919050565b6000613b90601b83614a63565b91507f536166654d6174683a206164646974696f6e206f766572666c6f7700000000006000830152602082019050919050565b6000613bd0602983614a63565b91507f4b495033373a2062616c616e636520717565727920666f7220746865207a657260008301527f6f206164647265737300000000000000000000000000000000000000000000006020830152604082019050919050565b6000613c36602083614a63565b91507fec8898eb9f89ec9db420ec9e98ebaabbeb9098ec9788ec8ab5eb8b88eb8ba42e6000830152602082019050919050565b6000613c76602383614a63565b91507fec9db8eb8db1ec8aa4eab08020ec9e98ebaabbeb9098ec9788ec8ab5eb8b88eb60008301527f8ba42e00000000000000000000000000000000000000000000000000000000006020830152604082019050919050565b6000613cdc601783614a63565b91507f6d73746f6b656e207472616e73666572206661696c65640000000000000000006000830152602082019050919050565b6000613d1c603083614a63565b91507f4d696e746572526f6c653a2063616c6c657220646f6573206e6f74206861766560008301527f20746865204d696e74657220726f6c65000000000000000000000000000000006020830152604082019050919050565b6000613d82603583614a63565b91507f4e6f7420656e6f756768206d73746f6b656e20696e2073746f636b20746f206360008301527f6f6d706c657465207468697320707572636861736500000000000000000000006020830152604082019050919050565b6000613de8602183614a63565b91507f526f6c65733a206163636f756e7420646f6573206e6f74206861766520726f6c60008301527f65000000000000000000000000000000000000000000000000000000000000006020830152604082019050919050565b6000613e4e602d83614a63565b91507feab5aceba7a4eab888ec95a1eab3bc20ed8c90eba7a4eab888ec95a1ec9db42060008301527feb8ba4eba685eb8b88eb8ba42e000000000000000000000000000000000000006020830152604082019050919050565b6000613eb4602083614a63565b91507f4f776e61626c653a2063616c6c6572206973206e6f7420746865206f776e65726000830152602082019050919050565b6000613ef4602283614a63565b91507f526f6c65733a206163636f756e7420697320746865207a65726f20616464726560008301527f73730000000000000000000000000000000000000000000000000000000000006020830152604082019050919050565b6000613f5a601983614a63565b91507f6d73746f6b656e20616c6c6f77616e636520746f6f206c6f77000000000000006000830152602082019050919050565b6000613f9a602983614a63565b91507fed8c90eba7a4ec9e90eba78c20ecb7a8ec868c20ed95a020ec889820ec9e88ec60008301527f8ab5eb8b88eb8ba42e00000000000000000000000000000000000000000000006020830152604082019050919050565b6000614000600083614a52565b9150600082019050919050565b600061401a601c83614a63565b91507f5072696365206d757374206265206174206c65617374203120776569000000006000830152602082019050919050565b600061405a600c83614a63565b91507f4b6c617920746f6f206c6f7700000000000000000000000000000000000000006000830152602082019050919050565b600061409a601a83614a63565b91507feca285eba38ceb909c20eab1b0eb9e98ec9e85eb8b88eb8ba42e0000000000006000830152602082019050919050565b60006140da603283614a63565b91507feb82a8ec9d8020ec8898eb9f89ebb3b4eb8ba420eab5aceba7a420ec8898eb9f60008301527f89ec9db420eba78eec8ab5eb8b88eb8ba42e00000000000000000000000000006020830152604082019050919050565b60e0820160008201516141496000850182614291565b50602082015161415c6020850182614291565b50604082015161416f60408501826137ed565b5060608201516141826060850182614291565b5060808201516141956080850182614291565b5060a08201516141a860a0850182614291565b5060c08201516141bb60c08501826139f3565b50505050565b60e0820160008201516141d76000850182614291565b5060208201516141ea6020850182614291565b5060408201516141fd60408501826137ed565b5060608201516142106060850182614291565b5060808201516142236080850182614291565b5060a082015161423660a0850182614291565b5060c082015161424960c08501826139f3565b50505050565b6060820160008201516142656000850182614291565b5060208201516142786020850182614291565b50604082015161428b6040850182614291565b50505050565b61429a81614af0565b82525050565b6142a981614af0565b82525050565b60006020820190506142c4600083018461380b565b92915050565b60006020820190506142df60008301846137fc565b92915050565b60006040820190506142fa60008301856137de565b614307602083018461380b565b9392505050565b600060c08201905061432360008301896137de565b61433060208301886137de565b61433d60408301876142a0565b61434a60608301866142a0565b61435760808301856142a0565b61436460a08301846142a0565b979650505050505050565b600060a08201905061438460008301876137de565b614391602083018661380b565b61439e60408301856142a0565b6143ab60608301846142a0565b81810360808301526143bc81613ff3565b905095945050505050565b60006040820190506143dc60008301856137de565b6143e960208301846142a0565b9392505050565b600060808201905061440560008301876137de565b61441260208301866142a0565b61441f60408301856142a0565b61442c60608301846142a0565b95945050505050565b600060a08201905061444a600083018761380b565b61445760208301866137de565b61446460408301856142a0565b61447160608301846142a0565b818103608083015261448281613ff3565b905095945050505050565b60006060820190506144a2600083018661380b565b6144af602083018561380b565b6144bc60408301846142a0565b949350505050565b600060208201905081810360008301526144de818461381a565b905092915050565b60006020820190508181036000830152614500818461388b565b905092915050565b6000602082019050818103600083015261452281846138e5565b905092915050565b600060208201905081810360008301526145448184613999565b905092915050565b60006020820190506145616000830184613a02565b92915050565b600060208201905061457c6000830184613a11565b92915050565b60006020820190506145976000830184613a20565b92915050565b60006020820190506145b26000830184613a2f565b92915050565b600060208201905081810360008301526145d28184613a3e565b905092915050565b600060208201905081810360008301526145f381613a77565b9050919050565b6000602082019050818103600083015261461381613add565b9050919050565b6000602082019050818103600083015261463381613b1d565b9050919050565b6000602082019050818103600083015261465381613b83565b9050919050565b6000602082019050818103600083015261467381613bc3565b9050919050565b6000602082019050818103600083015261469381613c29565b9050919050565b600060208201905081810360008301526146b381613c69565b9050919050565b600060208201905081810360008301526146d381613ccf565b9050919050565b600060208201905081810360008301526146f381613d0f565b9050919050565b6000602082019050818103600083015261471381613d75565b9050919050565b6000602082019050818103600083015261473381613ddb565b9050919050565b6000602082019050818103600083015261475381613e41565b9050919050565b6000602082019050818103600083015261477381613ea7565b9050919050565b6000602082019050818103600083015261479381613ee7565b9050919050565b600060208201905081810360008301526147b381613f4d565b9050919050565b600060208201905081810360008301526147d381613f8d565b9050919050565b600060208201905081810360008301526147f38161400d565b9050919050565b600060208201905081810360008301526148138161404d565b9050919050565b600060208201905081810360008301526148338161408d565b9050919050565b60006020820190508181036000830152614853816140cd565b9050919050565b600060e08201905061486f6000830184614133565b92915050565b600060208201905061488a60008301846142a0565b92915050565b6000604051905081810181811067ffffffffffffffff821117156148b357600080fd5b8060405250919050565b600067ffffffffffffffff8211156148d457600080fd5b602082029050602081019050919050565b600067ffffffffffffffff8211156148fc57600080fd5b602082029050602081019050919050565b600067ffffffffffffffff82111561492457600080fd5b601f19601f8301169050602081019050919050565b6000602082019050919050565b6000602082019050919050565b6000602082019050919050565b6000602082019050919050565b6000602082019050919050565b600081519050919050565b600081519050919050565b600081519050919050565b600081519050919050565b600081519050919050565b600081519050919050565b6000602082019050919050565b6000602082019050919050565b6000602082019050919050565b6000602082019050919050565b6000602082019050919050565b600082825260208201905092915050565b600082825260208201905092915050565b600082825260208201905092915050565b600082825260208201905092915050565b600082825260208201905092915050565b600082825260208201905092915050565b600082825260208201905092915050565b6000614a7f82614ad0565b9050919050565b6000614a9182614ad0565b9050919050565b60008115159050919050565b60007fffffffff0000000000000000000000000000000000000000000000000000000082169050919050565b600073ffffffffffffffffffffffffffffffffffffffff82169050919050565b6000819050919050565b6000614b0582614b56565b9050919050565b6000614b1782614b56565b9050919050565b60008115159050919050565b60007fffffffff0000000000000000000000000000000000000000000000000000000082169050919050565b600073ffffffffffffffffffffffffffffffffffffffff82169050919050565b6000819050919050565b6000614b8b82614bda565b9050919050565b6000614b9d82614ba4565b9050919050565b6000614baf82614ad0565b9050919050565b6000614bc182614bc8565b9050919050565b6000614bd382614ad0565b9050919050565b6000614be582614bec565b9050919050565b6000614bf782614ad0565b9050919050565b82818337600083830152505050565b60005b83811015614c2b578082015181840152602081019050614c10565b83811115614c3a576000848401525b50505050565b6000601f19601f830116905091905056fea265627a7a7230582095954bd970887981da15e453de78855554180f0f65f8c93253b15b2d42b4aa186c6578706572696d656e74616cf50037",
  "linkReferences": {},
  "deployedLinkReferences": {}
}