{
  "_format": "hh-sol-artifact-1",
  "contractName": "MusicStoneSFT",
  "sourceName": "contracts/MusicStoneSFT.sol",
  "abi": [
    {
      "constant": true,
      "inputs": [
        {
          "name": "account",
          "type": "address"
        },
        {
          "name": "id",
          "type": "uint256"
        }
      ],
      "name": "balanceOf",
      "outputs": [
        {
          "name": "",
          "type": "uint256"
        }
      ],
      "payable": false,
      "stateMutability": "view",
      "type": "function"
    },
    {
      "constant": true,
      "inputs": [
        {
          "name": "interfaceId",
          "type": "bytes4"
        }
      ],
      "name": "supportsInterface",
      "outputs": [
        {
          "name": "",
          "type": "bool"
        }
      ],
      "payable": false,
      "stateMutability": "view",
      "type": "function"
    },
    {
      "constant": true,
      "inputs": [
        {
          "name": "",
          "type": "uint256"
        }
      ],
      "name": "uri",
      "outputs": [
        {
          "name": "",
          "type": "string"
        }
      ],
      "payable": false,
      "stateMutability": "view",
      "type": "function"
    },
    {
      "constant": true,
      "inputs": [],
      "name": "getSFTURI",
      "outputs": [
        {
          "name": "",
          "type": "string"
        }
      ],
      "payable": false,
      "stateMutability": "view",
      "type": "function"
    },
    {
      "constant": false,
      "inputs": [
        {
          "name": "from",
          "type": "address"
        },
        {
          "name": "to",
          "type": "address"
        },
        {
          "name": "ids",
          "type": "uint256[]"
        },
        {
          "name": "amounts",
          "type": "uint256[]"
        },
        {
          "name": "data",
          "type": "bytes"
        }
      ],
      "name": "safeBatchTransferFrom",
      "outputs": [],
      "payable": false,
      "stateMutability": "nonpayable",
      "type": "function"
    },
    {
      "constant": false,
      "inputs": [
        {
          "name": "_toRemove",
          "type": "address"
        }
      ],
      "name": "removeAuthorized",
      "outputs": [],
      "payable": false,
      "stateMutability": "nonpayable",
      "type": "function"
    },
    {
      "constant": false,
      "inputs": [
        {
          "name": "_address",
          "type": "address"
        },
        {
          "name": "_id",
          "type": "uint256"
        },
        {
          "name": "_amount",
          "type": "uint256"
        }
      ],
      "name": "mintMusicStoneOnwer",
      "outputs": [],
      "payable": false,
      "stateMutability": "nonpayable",
      "type": "function"
    },
    {
      "constant": true,
      "inputs": [
        {
          "name": "accounts",
          "type": "address[]"
        },
        {
          "name": "ids",
          "type": "uint256[]"
        }
      ],
      "name": "balanceOfBatch",
      "outputs": [
        {
          "name": "",
          "type": "uint256[]"
        }
      ],
      "payable": false,
      "stateMutability": "view",
      "type": "function"
    },
    {
      "constant": true,
      "inputs": [],
      "name": "getNowId",
      "outputs": [
        {
          "name": "",
          "type": "uint256"
        }
      ],
      "payable": false,
      "stateMutability": "view",
      "type": "function"
    },
    {
      "constant": false,
      "inputs": [],
      "name": "renounceOwnership",
      "outputs": [],
      "payable": false,
      "stateMutability": "nonpayable",
      "type": "function"
    },
    {
      "constant": false,
      "inputs": [
        {
          "name": "_account",
          "type": "address"
        },
        {
          "name": "_amount",
          "type": "uint256"
        }
      ],
      "name": "mintMusicStone",
      "outputs": [],
      "payable": false,
      "stateMutability": "nonpayable",
      "type": "function"
    },
    {
      "constant": true,
      "inputs": [],
      "name": "owner",
      "outputs": [
        {
          "name": "",
          "type": "address"
        }
      ],
      "payable": false,
      "stateMutability": "view",
      "type": "function"
    },
    {
      "constant": true,
      "inputs": [],
      "name": "isOwner",
      "outputs": [
        {
          "name": "",
          "type": "bool"
        }
      ],
      "payable": false,
      "stateMutability": "view",
      "type": "function"
    },
    {
      "constant": false,
      "inputs": [
        {
          "name": "operator",
          "type": "address"
        },
        {
          "name": "approved",
          "type": "bool"
        }
      ],
      "name": "setApprovalForAll",
      "outputs": [],
      "payable": false,
      "stateMutability": "nonpayable",
      "type": "function"
    },
    {
      "constant": true,
      "inputs": [
        {
          "name": "",
          "type": "address"
        }
      ],
      "name": "authorized",
      "outputs": [
        {
          "name": "",
          "type": "bool"
        }
      ],
      "payable": false,
      "stateMutability": "view",
      "type": "function"
    },
    {
      "constant": true,
      "inputs": [
        {
          "name": "_tokenId",
          "type": "uint256"
        }
      ],
      "name": "totalSupply",
      "outputs": [
        {
          "name": "",
          "type": "uint256"
        }
      ],
      "payable": false,
      "stateMutability": "view",
      "type": "function"
    },
    {
      "constant": false,
      "inputs": [
        {
          "name": "_toAdd",
          "type": "address"
        }
      ],
      "name": "addAuthorized",
      "outputs": [],
      "payable": false,
      "stateMutability": "nonpayable",
      "type": "function"
    },
    {
      "constant": true,
      "inputs": [
        {
          "name": "account",
          "type": "address"
        },
        {
          "name": "operator",
          "type": "address"
        }
      ],
      "name": "isApprovedForAll",
      "outputs": [
        {
          "name": "",
          "type": "bool"
        }
      ],
      "payable": false,
      "stateMutability": "view",
      "type": "function"
    },
    {
      "constant": false,
      "inputs": [
        {
          "name": "from",
          "type": "address"
        },
        {
          "name": "to",
          "type": "address"
        },
        {
          "name": "id",
          "type": "uint256"
        },
        {
          "name": "amount",
          "type": "uint256"
        },
        {
          "name": "data",
          "type": "bytes"
        }
      ],
      "name": "safeTransferFrom",
      "outputs": [],
      "payable": false,
      "stateMutability": "nonpayable",
      "type": "function"
    },
    {
      "constant": false,
      "inputs": [
        {
          "name": "newOwner",
          "type": "address"
        }
      ],
      "name": "transferOwnership",
      "outputs": [],
      "payable": false,
      "stateMutability": "nonpayable",
      "type": "function"
    },
    {
      "constant": false,
      "inputs": [
        {
          "name": "newuri",
          "type": "string"
        }
      ],
      "name": "setSFTURI",
      "outputs": [],
      "payable": false,
      "stateMutability": "nonpayable",
      "type": "function"
    },
    {
      "inputs": [
        {
          "name": "uri",
          "type": "string"
        }
      ],
      "payable": false,
      "stateMutability": "nonpayable",
      "type": "constructor"
    },
    {
      "anonymous": false,
      "inputs": [
        {
          "indexed": false,
          "name": "_account",
          "type": "address"
        },
        {
          "indexed": false,
          "name": "nowId",
          "type": "uint256"
        },
        {
          "indexed": false,
          "name": "_amount",
          "type": "uint256"
        }
      ],
      "name": "SFTMinted",
      "type": "event"
    },
    {
      "anonymous": false,
      "inputs": [
        {
          "indexed": true,
          "name": "previousOwner",
          "type": "address"
        },
        {
          "indexed": true,
          "name": "newOwner",
          "type": "address"
        }
      ],
      "name": "OwnershipTransferred",
      "type": "event"
    },
    {
      "anonymous": false,
      "inputs": [
        {
          "indexed": true,
          "name": "operator",
          "type": "address"
        },
        {
          "indexed": true,
          "name": "from",
          "type": "address"
        },
        {
          "indexed": true,
          "name": "to",
          "type": "address"
        },
        {
          "indexed": false,
          "name": "id",
          "type": "uint256"
        },
        {
          "indexed": false,
          "name": "value",
          "type": "uint256"
        }
      ],
      "name": "TransferSingle",
      "type": "event"
    },
    {
      "anonymous": false,
      "inputs": [
        {
          "indexed": true,
          "name": "operator",
          "type": "address"
        },
        {
          "indexed": true,
          "name": "from",
          "type": "address"
        },
        {
          "indexed": true,
          "name": "to",
          "type": "address"
        },
        {
          "indexed": false,
          "name": "ids",
          "type": "uint256[]"
        },
        {
          "indexed": false,
          "name": "values",
          "type": "uint256[]"
        }
      ],
      "name": "TransferBatch",
      "type": "event"
    },
    {
      "anonymous": false,
      "inputs": [
        {
          "indexed": true,
          "name": "account",
          "type": "address"
        },
        {
          "indexed": true,
          "name": "operator",
          "type": "address"
        },
        {
          "indexed": false,
          "name": "approved",
          "type": "bool"
        }
      ],
      "name": "ApprovalForAll",
      "type": "event"
    },
    {
      "anonymous": false,
      "inputs": [
        {
          "indexed": false,
          "name": "value",
          "type": "string"
        },
        {
          "indexed": true,
          "name": "id",
          "type": "uint256"
        }
      ],
      "name": "URI",
      "type": "event"
    }
  ],
  "bytecode": "0x60806040523480156200001157600080fd5b5060405162003edc38038062003edc833981018060405260208110156200003757600080fd5b8101908080516401000000008111156200005057600080fd5b828101905060208101848111156200006757600080fd5b81518560018202830111640100000000821117156200008557600080fd5b505092919050505080620000a66301ffc9a760e01b620001ad60201b60201c565b33600160006101000a81548173ffffffffffffffffffffffffffffffffffffffff021916908373ffffffffffffffffffffffffffffffffffffffff160217905550600160009054906101000a900473ffffffffffffffffffffffffffffffffffffffff1673ffffffffffffffffffffffffffffffffffffffff16600073ffffffffffffffffffffffffffffffffffffffff167f8be0079c531659141344cd1fd0a4f28419497f9722a3daafe3b4186f6b6457e060405160405180910390a36200017581620002b660201b60201c565b6200018d636433ca1f60e01b620001ad60201b60201c565b620001a5630e89341c60e01b620001ad60201b60201c565b505062000381565b63ffffffff60e01b817bffffffffffffffffffffffffffffffffffffffffffffffffffffffff191614156200024a576040517f08c379a000000000000000000000000000000000000000000000000000000000815260040180806020018281038252601b8152602001807f4b495031333a20696e76616c696420696e74657266616365206964000000000081525060200191505060405180910390fd5b6001600080837bffffffffffffffffffffffffffffffffffffffffffffffffffffffff19167bffffffffffffffffffffffffffffffffffffffffffffffffffffffff1916815260200190815260200160002060006101000a81548160ff02191690831515021790555050565b8060069080519060200190620002ce929190620002d2565b5050565b828054600181600116156101000203166002900490600052602060002090601f016020900481019282601f106200031557805160ff191683800117855562000346565b8280016001018555821562000346579182015b828111156200034557825182559160200191906001019062000328565b5b50905062000355919062000359565b5090565b6200037e91905b808211156200037a57600081600090555060010162000360565b5090565b90565b613b4b80620003916000396000f3fe608060405234801561001057600080fd5b50600436106101365760003560e01c806374c18320116100b8578063bd85b0391161007c578063bd85b0391461091a578063cf1c316a1461095c578063e985e9c5146109a0578063f242432a14610a1c578063f2fde38b14610b2b578063f8aac50814610b6f57610136565b806374c18320146107b45780638da5cb5b146108025780638f32d59b1461084c578063a22cb4651461086e578063b9181611146108be57610136565b8063485d7d94116100ff578063485d7d941461054f5780634a3fdba7146105935780634e1273f4146105eb5780635b456a701461078c578063715018a6146107aa57610136565b8062fdd58e1461013b57806301ffc9a71461019d5780630e89341c1461020257806329bb93f5146102a95780632eb2c2d61461032c575b600080fd5b6101876004803603604081101561015157600080fd5b81019080803573ffffffffffffffffffffffffffffffffffffffff16906020019092919080359060200190929190505050610c2a565b6040518082815260200191505060405180910390f35b6101e8600480360360208110156101b357600080fd5b8101908080357bffffffffffffffffffffffffffffffffffffffffffffffffffffffff19169060200190929190505050610d0a565b604051808215151515815260200191505060405180910390f35b61022e6004803603602081101561021857600080fd5b8101908080359060200190929190505050610d71565b6040518080602001828103825283818151815260200191508051906020019080838360005b8381101561026e578082015181840152602081019050610253565b50505050905090810190601f16801561029b5780820380516001836020036101000a031916815260200191505b509250505060405180910390f35b6102b1610e15565b6040518080602001828103825283818151815260200191508051906020019080838360005b838110156102f15780820151818401526020810190506102d6565b50505050905090810190601f16801561031e5780820380516001836020036101000a031916815260200191505b509250505060405180910390f35b61054d600480360360a081101561034257600080fd5b81019080803573ffffffffffffffffffffffffffffffffffffffff169060200190929190803573ffffffffffffffffffffffffffffffffffffffff1690602001909291908035906020019064010000000081111561039f57600080fd5b8201836020820111156103b157600080fd5b803590602001918460208302840111640100000000831117156103d357600080fd5b919080806020026020016040519081016040528093929190818152602001838360200280828437600081840152601f19601f8201169050808301925050505050505091929192908035906020019064010000000081111561043357600080fd5b82018360208201111561044557600080fd5b8035906020019184602083028401116401000000008311171561046757600080fd5b919080806020026020016040519081016040528093929190818152602001838360200280828437600081840152601f19601f820116905080830192505050505050509192919290803590602001906401000000008111156104c757600080fd5b8201836020820111156104d957600080fd5b803590602001918460018302840111640100000000831117156104fb57600080fd5b91908080601f016020809104026020016040519081016040528093929190818152602001838380828437600081840152601f19601f820116905080830192505050505050509192919290505050610eb7565b005b6105916004803603602081101561056557600080fd5b81019080803573ffffffffffffffffffffffffffffffffffffffff16906020019092919050505061142d565b005b6105e9600480360360608110156105a957600080fd5b81019080803573ffffffffffffffffffffffffffffffffffffffff1690602001909291908035906020019092919080359060200190929190505050611575565b005b6107356004803603604081101561060157600080fd5b810190808035906020019064010000000081111561061e57600080fd5b82018360208201111561063057600080fd5b8035906020019184602083028401116401000000008311171561065257600080fd5b919080806020026020016040519081016040528093929190818152602001838360200280828437600081840152601f19601f820116905080830192505050505050509192919290803590602001906401000000008111156106b257600080fd5b8201836020820111156106c457600080fd5b803590602001918460208302840111640100000000831117156106e657600080fd5b919080806020026020016040519081016040528093929190818152602001838360200280828437600081840152601f19601f82011690508083019250505050505050919291929050505061169b565b6040518080602001828103825283818151815260200191508051906020019060200280838360005b8381101561077857808201518184015260208101905061075d565b505050509050019250505060405180910390f35b610794611879565b6040518082815260200191505060405180910390f35b6107b261188a565b005b610800600480360360408110156107ca57600080fd5b81019080803573ffffffffffffffffffffffffffffffffffffffff169060200190929190803590602001909291905050506119c5565b005b61080a611bad565b604051808273ffffffffffffffffffffffffffffffffffffffff1673ffffffffffffffffffffffffffffffffffffffff16815260200191505060405180910390f35b610854611bd7565b604051808215151515815260200191505060405180910390f35b6108bc6004803603604081101561088457600080fd5b81019080803573ffffffffffffffffffffffffffffffffffffffff169060200190929190803515159060200190929190505050611c2f565b005b610900600480360360208110156108d457600080fd5b81019080803573ffffffffffffffffffffffffffffffffffffffff169060200190929190505050611dca565b604051808215151515815260200191505060405180910390f35b6109466004803603602081101561093057600080fd5b8101908080359060200190929190505050611dea565b6040518082815260200191505060405180910390f35b61099e6004803603602081101561097257600080fd5b81019080803573ffffffffffffffffffffffffffffffffffffffff169060200190929190505050611e07565b005b610a02600480360360408110156109b657600080fd5b81019080803573ffffffffffffffffffffffffffffffffffffffff169060200190929190803573ffffffffffffffffffffffffffffffffffffffff169060200190929190505050611f16565b604051808215151515815260200191505060405180910390f35b610b29600480360360a0811015610a3257600080fd5b81019080803573ffffffffffffffffffffffffffffffffffffffff169060200190929190803573ffffffffffffffffffffffffffffffffffffffff169060200190929190803590602001909291908035906020019092919080359060200190640100000000811115610aa357600080fd5b820183602082011115610ab557600080fd5b80359060200191846001830284011164010000000083111715610ad757600080fd5b91908080601f016020809104026020016040519081016040528093929190818152602001838380828437600081840152601f19601f820116905080830192505050505050509192919290505050611faa565b005b610b6d60048036036020811015610b4157600080fd5b81019080803573ffffffffffffffffffffffffffffffffffffffff169060200190929190505050612407565b005b610c2860048036036020811015610b8557600080fd5b8101908080359060200190640100000000811115610ba257600080fd5b820183602082011115610bb457600080fd5b80359060200191846001830284011164010000000083111715610bd657600080fd5b91908080601f016020809104026020016040519081016040528093929190818152602001838380828437600081840152601f19601f82011690508083019250505050505050919291929050505061248d565b005b60008073ffffffffffffffffffffffffffffffffffffffff168373ffffffffffffffffffffffffffffffffffffffff161415610cb1576040517f08c379a00000000000000000000000000000000000000000000000000000000081526004018080602001828103825260298152602001806139736029913960400191505060405180910390fd5b6003600083815260200190815260200160002060008473ffffffffffffffffffffffffffffffffffffffff1673ffffffffffffffffffffffffffffffffffffffff16815260200190815260200160002054905092915050565b6000806000837bffffffffffffffffffffffffffffffffffffffffffffffffffffffff19167bffffffffffffffffffffffffffffffffffffffffffffffffffffffff1916815260200190815260200160002060009054906101000a900460ff169050919050565b606060068054600181600116156101000203166002900480601f016020809104026020016040519081016040528092919081815260200182805460018160011615610100020316600290048015610e095780601f10610dde57610100808354040283529160200191610e09565b820191906000526020600020905b815481529060010190602001808311610dec57829003601f168201915b50505050509050919050565b606060068054600181600116156101000203166002900480601f016020809104026020016040519081016040528092919081815260200182805460018160011615610100020316600290048015610ead5780601f10610e8257610100808354040283529160200191610ead565b820191906000526020600020905b815481529060010190602001808311610e9057829003601f168201915b5050505050905090565b600260003373ffffffffffffffffffffffffffffffffffffffff1673ffffffffffffffffffffffffffffffffffffffff16815260200190815260200160002060009054906101000a900460ff1680610f4157503373ffffffffffffffffffffffffffffffffffffffff16610f29611bad565b73ffffffffffffffffffffffffffffffffffffffff16145b610f4a57600080fd5b8151835114610fa4576040517f08c379a000000000000000000000000000000000000000000000000000000000815260040180806020018281038252602681526020018061399c6026913960400191505060405180910390fd5b600073ffffffffffffffffffffffffffffffffffffffff168473ffffffffffffffffffffffffffffffffffffffff16141561102a576040517f08c379a0000000000000000000000000000000000000000000000000000000008152600401808060200182810382526023815260200180613a986023913960400191505060405180910390fd5b61103261252c565b73ffffffffffffffffffffffffffffffffffffffff168573ffffffffffffffffffffffffffffffffffffffff16148061107857506110778561107261252c565b611f16565b5b6110cd576040517f08c379a00000000000000000000000000000000000000000000000000000000081526004018080602001828103825260308152602001806139c26030913960400191505060405180910390fd5b60006110d761252c565b90506110e7818787878787612534565b60008090505b84518110156112bb57600085828151811061110457fe5b60200260200101519050600085838151811061111c57fe5b602002602001015190506111a3816040518060600160405280602881526020016139f2602891396003600086815260200190815260200160002060008d73ffffffffffffffffffffffffffffffffffffffff1673ffffffffffffffffffffffffffffffffffffffff1681526020019081526020016000205461253c9092919063ffffffff16565b6003600084815260200190815260200160002060008b73ffffffffffffffffffffffffffffffffffffffff1673ffffffffffffffffffffffffffffffffffffffff1681526020019081526020016000208190555061125a816003600085815260200190815260200160002060008b73ffffffffffffffffffffffffffffffffffffffff1673ffffffffffffffffffffffffffffffffffffffff168152602001908152602001600020546125fc90919063ffffffff16565b6003600084815260200190815260200160002060008a73ffffffffffffffffffffffffffffffffffffffff1673ffffffffffffffffffffffffffffffffffffffff1681526020019081526020016000208190555050508060010190506110ed565b508473ffffffffffffffffffffffffffffffffffffffff168673ffffffffffffffffffffffffffffffffffffffff168273ffffffffffffffffffffffffffffffffffffffff167f4a39dc06d4c0dbc64b70af90fd698a233a518aa5d07e595d983b8c0526c8f7fb8787604051808060200180602001838103835285818151815260200191508051906020019060200280838360005b8381101561136b578082015181840152602081019050611350565b50505050905001838103825284818151815260200191508051906020019060200280838360005b838110156113ad578082015181840152602081019050611392565b5050505090500194505050505060405180910390a46113d0818787878787612684565b611425576040517f08c379a0000000000000000000000000000000000000000000000000000000008152600401808060200182810382526036815260200180613abb6036913960400191505060405180910390fd5b505050505050565b611435611bd7565b6114a7576040517f08c379a00000000000000000000000000000000000000000000000000000000081526004018080602001828103825260208152602001807f4f776e61626c653a2063616c6c6572206973206e6f7420746865206f776e657281525060200191505060405180910390fd5b600073ffffffffffffffffffffffffffffffffffffffff168173ffffffffffffffffffffffffffffffffffffffff1614156114e157600080fd5b3373ffffffffffffffffffffffffffffffffffffffff168173ffffffffffffffffffffffffffffffffffffffff16141561151a57600080fd5b6000600260008373ffffffffffffffffffffffffffffffffffffffff1673ffffffffffffffffffffffffffffffffffffffff16815260200190815260200160002060006101000a81548160ff02191690831515021790555050565b600260003373ffffffffffffffffffffffffffffffffffffffff1673ffffffffffffffffffffffffffffffffffffffff16815260200190815260200160002060009054906101000a900460ff16806115ff57503373ffffffffffffffffffffffffffffffffffffffff166115e7611bad565b73ffffffffffffffffffffffffffffffffffffffff16145b61160857600080fd5b61162383838360405180602001604052806000815250612cfc565b7f90f5c1381448d304f76fba02baa9ed60eb8fa8a8c906da284fbe131dac50eba2838383604051808473ffffffffffffffffffffffffffffffffffffffff1673ffffffffffffffffffffffffffffffffffffffff168152602001838152602001828152602001935050505060405180910390a1505050565b606081518351146116f7576040517f08c379a00000000000000000000000000000000000000000000000000000000081526004018080602001828103825260278152602001806139266027913960400191505060405180910390fd5b606083516040519080825280602002602001820160405280156117295781602001602082028038833980820191505090505b50905060008090505b845181101561186e57600073ffffffffffffffffffffffffffffffffffffffff1685828151811061175f57fe5b602002602001015173ffffffffffffffffffffffffffffffffffffffff1614156117d4576040517f08c379a000000000000000000000000000000000000000000000000000000000815260040180806020018281038252602f815260200180613af1602f913960400191505060405180910390fd5b600360008583815181106117e457fe5b60200260200101518152602001908152602001600020600086838151811061180857fe5b602002602001015173ffffffffffffffffffffffffffffffffffffffff1673ffffffffffffffffffffffffffffffffffffffff1681526020019081526020016000205482828151811061185757fe5b602002602001018181525050806001019050611732565b508091505092915050565b60006118856008612fae565b905090565b611892611bd7565b611904576040517f08c379a00000000000000000000000000000000000000000000000000000000081526004018080602001828103825260208152602001807f4f776e61626c653a2063616c6c6572206973206e6f7420746865206f776e657281525060200191505060405180910390fd5b600073ffffffffffffffffffffffffffffffffffffffff16600160009054906101000a900473ffffffffffffffffffffffffffffffffffffffff1673ffffffffffffffffffffffffffffffffffffffff167f8be0079c531659141344cd1fd0a4f28419497f9722a3daafe3b4186f6b6457e060405160405180910390a36000600160006101000a81548173ffffffffffffffffffffffffffffffffffffffff021916908373ffffffffffffffffffffffffffffffffffffffff160217905550565b600260003373ffffffffffffffffffffffffffffffffffffffff1673ffffffffffffffffffffffffffffffffffffffff16815260200190815260200160002060009054906101000a900460ff1680611a4f57503373ffffffffffffffffffffffffffffffffffffffff16611a37611bad565b73ffffffffffffffffffffffffffffffffffffffff16145b611a5857600080fd5b611a626008612fbc565b6000611a6e6008612fae565b9050611ab16040518060400160405280601481526020017f534654202d206d696e744d7573696353746f6e65000000000000000000000000815250828585612fd2565b600760008473ffffffffffffffffffffffffffffffffffffffff1673ffffffffffffffffffffffffffffffffffffffff168152602001908152602001600020819080600181540180825580915050906001820390600052602060002001600090919290919091505550611b3583828460405180602001604052806000815250612cfc565b7f90f5c1381448d304f76fba02baa9ed60eb8fa8a8c906da284fbe131dac50eba2838284604051808473ffffffffffffffffffffffffffffffffffffffff1673ffffffffffffffffffffffffffffffffffffffff168152602001838152602001828152602001935050505060405180910390a1505050565b6000600160009054906101000a900473ffffffffffffffffffffffffffffffffffffffff16905090565b6000600160009054906101000a900473ffffffffffffffffffffffffffffffffffffffff1673ffffffffffffffffffffffffffffffffffffffff163373ffffffffffffffffffffffffffffffffffffffff1614905090565b8173ffffffffffffffffffffffffffffffffffffffff16611c4e61252c565b73ffffffffffffffffffffffffffffffffffffffff161415611cbb576040517f08c379a0000000000000000000000000000000000000000000000000000000008152600401808060200182810382526027815260200180613a1a6027913960400191505060405180910390fd5b8060046000611cc861252c565b73ffffffffffffffffffffffffffffffffffffffff1673ffffffffffffffffffffffffffffffffffffffff16815260200190815260200160002060008473ffffffffffffffffffffffffffffffffffffffff1673ffffffffffffffffffffffffffffffffffffffff16815260200190815260200160002060006101000a81548160ff0219169083151502179055508173ffffffffffffffffffffffffffffffffffffffff16611d7561252c565b73ffffffffffffffffffffffffffffffffffffffff167f17307eab39ab6107e8899845ad3d59bd9653f200f220920489ca2b5937696c3183604051808215151515815260200191505060405180910390a35050565b60026020528060005260406000206000915054906101000a900460ff1681565b600060056000838152602001908152602001600020549050919050565b611e0f611bd7565b611e81576040517f08c379a00000000000000000000000000000000000000000000000000000000081526004018080602001828103825260208152602001807f4f776e61626c653a2063616c6c6572206973206e6f7420746865206f776e657281525060200191505060405180910390fd5b600073ffffffffffffffffffffffffffffffffffffffff168173ffffffffffffffffffffffffffffffffffffffff161415611ebb57600080fd5b6001600260008373ffffffffffffffffffffffffffffffffffffffff1673ffffffffffffffffffffffffffffffffffffffff16815260200190815260200160002060006101000a81548160ff02191690831515021790555050565b6000600460008473ffffffffffffffffffffffffffffffffffffffff1673ffffffffffffffffffffffffffffffffffffffff16815260200190815260200160002060008373ffffffffffffffffffffffffffffffffffffffff1673ffffffffffffffffffffffffffffffffffffffff16815260200190815260200160002060009054906101000a900460ff16905092915050565b600260003373ffffffffffffffffffffffffffffffffffffffff1673ffffffffffffffffffffffffffffffffffffffff16815260200190815260200160002060009054906101000a900460ff168061203457503373ffffffffffffffffffffffffffffffffffffffff1661201c611bad565b73ffffffffffffffffffffffffffffffffffffffff16145b61203d57600080fd5b600073ffffffffffffffffffffffffffffffffffffffff168473ffffffffffffffffffffffffffffffffffffffff1614156120c3576040517f08c379a0000000000000000000000000000000000000000000000000000000008152600401808060200182810382526023815260200180613a986023913960400191505060405180910390fd5b6120cb61252c565b73ffffffffffffffffffffffffffffffffffffffff168573ffffffffffffffffffffffffffffffffffffffff16148061211157506121108561210b61252c565b611f16565b5b612166576040517f08c379a0000000000000000000000000000000000000000000000000000000008152600401808060200182810382526027815260200180613a716027913960400191505060405180910390fd5b600061217061252c565b905061219081878761218188613117565b61218a88613117565b87612534565b61220d836040518060600160405280602881526020016139f2602891396003600088815260200190815260200160002060008a73ffffffffffffffffffffffffffffffffffffffff1673ffffffffffffffffffffffffffffffffffffffff1681526020019081526020016000205461253c9092919063ffffffff16565b6003600086815260200190815260200160002060008873ffffffffffffffffffffffffffffffffffffffff1673ffffffffffffffffffffffffffffffffffffffff168152602001908152602001600020819055506122c4836003600087815260200190815260200160002060008873ffffffffffffffffffffffffffffffffffffffff1673ffffffffffffffffffffffffffffffffffffffff168152602001908152602001600020546125fc90919063ffffffff16565b6003600086815260200190815260200160002060008773ffffffffffffffffffffffffffffffffffffffff1673ffffffffffffffffffffffffffffffffffffffff168152602001908152602001600020819055508473ffffffffffffffffffffffffffffffffffffffff168673ffffffffffffffffffffffffffffffffffffffff168273ffffffffffffffffffffffffffffffffffffffff167fc3d58168c5ae7397731d063d5bbf3d657854427343f4c083240f7aacaa2d0f628787604051808381526020018281526020019250505060405180910390a46123aa818787878787613170565b6123ff576040517f08c379a0000000000000000000000000000000000000000000000000000000008152600401808060200182810382526030815260200180613a416030913960400191505060405180910390fd5b505050505050565b61240f611bd7565b612481576040517f08c379a00000000000000000000000000000000000000000000000000000000081526004018080602001828103825260208152602001807f4f776e61626c653a2063616c6c6572206973206e6f7420746865206f776e657281525060200191505060405180910390fd5b61248a816136e4565b50565b600260003373ffffffffffffffffffffffffffffffffffffffff1673ffffffffffffffffffffffffffffffffffffffff16815260200190815260200160002060009054906101000a900460ff168061251757503373ffffffffffffffffffffffffffffffffffffffff166124ff611bad565b73ffffffffffffffffffffffffffffffffffffffff16145b61252057600080fd5b6125298161382a565b50565b600033905090565b505050505050565b60008383111582906125e9576040517f08c379a00000000000000000000000000000000000000000000000000000000081526004018080602001828103825283818151815260200191508051906020019080838360005b838110156125ae578082015181840152602081019050612593565b50505050905090810190601f1680156125db5780820380516001836020036101000a031916815260200191505b509250505060405180910390fd5b5060008385039050809150509392505050565b60008082840190508381101561267a576040517f08c379a000000000000000000000000000000000000000000000000000000000815260040180806020018281038252601b8152602001807f536166654d6174683a206164646974696f6e206f766572666c6f77000000000081525060200191505060405180910390fd5b8091505092915050565b60008060606126a88773ffffffffffffffffffffffffffffffffffffffff16613844565b6126b757600192505050612cf2565b8673ffffffffffffffffffffffffffffffffffffffff1663bc197c8160e01b8a8a898989604051602401808673ffffffffffffffffffffffffffffffffffffffff1673ffffffffffffffffffffffffffffffffffffffff1681526020018573ffffffffffffffffffffffffffffffffffffffff1673ffffffffffffffffffffffffffffffffffffffff168152602001806020018060200180602001848103845287818151815260200191508051906020019060200280838360005b8381101561278d578082015181840152602081019050612772565b50505050905001848103835286818151815260200191508051906020019060200280838360005b838110156127cf5780820151818401526020810190506127b4565b50505050905001848103825285818151815260200191508051906020019080838360005b8381101561280e5780820151818401526020810190506127f3565b50505050905090810190601f16801561283b5780820380516001836020036101000a031916815260200191505b5098505050505050505050604051602081830303815290604052907bffffffffffffffffffffffffffffffffffffffffffffffffffffffff19166020820180517bffffffffffffffffffffffffffffffffffffffffffffffffffffffff83818316178352505050506040518082805190602001908083835b602083106128d657805182526020820191506020810190506020830392506128b3565b6001836020036101000a0380198251168184511680821785525050505050509050019150506000604051808303816000865af19150503d8060008114612938576040519150601f19603f3d011682016040523d82523d6000602084013e61293d565b606091505b50809250819350505060008151141580156129c1575063bc197c8160e01b7bffffffffffffffffffffffffffffffffffffffffffffffffffffffff191681806020019051602081101561298f57600080fd5b81019080805190602001909291905050507bffffffffffffffffffffffffffffffffffffffffffffffffffffffff1916145b156129d157600192505050612cf2565b8673ffffffffffffffffffffffffffffffffffffffff16639b49e33260e01b8a8a898989604051602401808673ffffffffffffffffffffffffffffffffffffffff1673ffffffffffffffffffffffffffffffffffffffff1681526020018573ffffffffffffffffffffffffffffffffffffffff1673ffffffffffffffffffffffffffffffffffffffff168152602001806020018060200180602001848103845287818151815260200191508051906020019060200280838360005b83811015612aa7578082015181840152602081019050612a8c565b50505050905001848103835286818151815260200191508051906020019060200280838360005b83811015612ae9578082015181840152602081019050612ace565b50505050905001848103825285818151815260200191508051906020019080838360005b83811015612b28578082015181840152602081019050612b0d565b50505050905090810190601f168015612b555780820380516001836020036101000a031916815260200191505b5098505050505050505050604051602081830303815290604052907bffffffffffffffffffffffffffffffffffffffffffffffffffffffff19166020820180517bffffffffffffffffffffffffffffffffffffffffffffffffffffffff83818316178352505050506040518082805190602001908083835b60208310612bf05780518252602082019150602081019050602083039250612bcd565b6001836020036101000a0380198251168184511680821785525050505050509050019150506000604051808303816000865af19150503d8060008114612c52576040519150601f19603f3d011682016040523d82523d6000602084013e612c57565b606091505b5080925081935050506000815114158015612cdb5750639b49e33260e01b7bffffffffffffffffffffffffffffffffffffffffffffffffffffffff1916818060200190516020811015612ca957600080fd5b81019080805190602001909291905050507bffffffffffffffffffffffffffffffffffffffffffffffffffffffff1916145b15612ceb57600192505050612cf2565b6000925050505b9695505050505050565b600073ffffffffffffffffffffffffffffffffffffffff168473ffffffffffffffffffffffffffffffffffffffff161415612d9f576040517f08c379a000000000000000000000000000000000000000000000000000000000815260040180806020018281038252601f8152602001807f4b495033373a206d696e7420746f20746865207a65726f20616464726573730081525060200191505060405180910390fd5b6000612da961252c565b9050612dca81600087612dbb88613117565b612dc488613117565b87612534565b612e2d836003600087815260200190815260200160002060008873ffffffffffffffffffffffffffffffffffffffff1673ffffffffffffffffffffffffffffffffffffffff168152602001908152602001600020546125fc90919063ffffffff16565b6003600086815260200190815260200160002060008773ffffffffffffffffffffffffffffffffffffffff1673ffffffffffffffffffffffffffffffffffffffff16815260200190815260200160002081905550612ea78360056000878152602001908152602001600020546125fc90919063ffffffff16565b60056000868152602001908152602001600020819055508473ffffffffffffffffffffffffffffffffffffffff16600073ffffffffffffffffffffffffffffffffffffffff168273ffffffffffffffffffffffffffffffffffffffff167fc3d58168c5ae7397731d063d5bbf3d657854427343f4c083240f7aacaa2d0f628787604051808381526020018281526020019250505060405180910390a4612f5281600087878787613170565b612fa7576040517f08c379a0000000000000000000000000000000000000000000000000000000008152600401808060200182810382526030815260200180613a416030913960400191505060405180910390fd5b5050505050565b600081600001549050919050565b6001816000016000828254019250508190555050565b6131118484848460405160240180806020018581526020018473ffffffffffffffffffffffffffffffffffffffff1673ffffffffffffffffffffffffffffffffffffffff168152602001838152602001828103825286818151815260200191508051906020019080838360005b8381101561305a57808201518184015260208101905061303f565b50505050905090810190601f1680156130875780820380516001836020036101000a031916815260200191505b50955050505050506040516020818303038152906040527f58497afe000000000000000000000000000000000000000000000000000000007bffffffffffffffffffffffffffffffffffffffffffffffffffffffff19166020820180517bffffffffffffffffffffffffffffffffffffffffffffffffffffffff8381831617835250505050613857565b50505050565b606080600160405190808252806020026020018201604052801561314a5781602001602082028038833980820191505090505b509050828160008151811061315b57fe5b60200260200101818152505080915050919050565b60008060606131948773ffffffffffffffffffffffffffffffffffffffff16613844565b6131a3576001925050506136da565b8673ffffffffffffffffffffffffffffffffffffffff1663f23a6e6160e01b8a8a898989604051602401808673ffffffffffffffffffffffffffffffffffffffff1673ffffffffffffffffffffffffffffffffffffffff1681526020018573ffffffffffffffffffffffffffffffffffffffff1673ffffffffffffffffffffffffffffffffffffffff16815260200184815260200183815260200180602001828103825283818151815260200191508051906020019080838360005b8381101561327a57808201518184015260208101905061325f565b50505050905090810190601f1680156132a75780820380516001836020036101000a031916815260200191505b509650505050505050604051602081830303815290604052907bffffffffffffffffffffffffffffffffffffffffffffffffffffffff19166020820180517bffffffffffffffffffffffffffffffffffffffffffffffffffffffff83818316178352505050506040518082805190602001908083835b60208310613340578051825260208201915060208101905060208303925061331d565b6001836020036101000a0380198251168184511680821785525050505050509050019150506000604051808303816000865af19150503d80600081146133a2576040519150601f19603f3d011682016040523d82523d6000602084013e6133a7565b606091505b508092508193505050600081511415801561342b575063f23a6e6160e01b7bffffffffffffffffffffffffffffffffffffffffffffffffffffffff19168180602001905160208110156133f957600080fd5b81019080805190602001909291905050507bffffffffffffffffffffffffffffffffffffffffffffffffffffffff1916145b1561343b576001925050506136da565b8673ffffffffffffffffffffffffffffffffffffffff1663e78b332560e01b8a8a898989604051602401808673ffffffffffffffffffffffffffffffffffffffff1673ffffffffffffffffffffffffffffffffffffffff1681526020018573ffffffffffffffffffffffffffffffffffffffff1673ffffffffffffffffffffffffffffffffffffffff16815260200184815260200183815260200180602001828103825283818151815260200191508051906020019080838360005b838110156135125780820151818401526020810190506134f7565b50505050905090810190601f16801561353f5780820380516001836020036101000a031916815260200191505b509650505050505050604051602081830303815290604052907bffffffffffffffffffffffffffffffffffffffffffffffffffffffff19166020820180517bffffffffffffffffffffffffffffffffffffffffffffffffffffffff83818316178352505050506040518082805190602001908083835b602083106135d857805182526020820191506020810190506020830392506135b5565b6001836020036101000a0380198251168184511680821785525050505050509050019150506000604051808303816000865af19150503d806000811461363a576040519150601f19603f3d011682016040523d82523d6000602084013e61363f565b606091505b50809250819350505060008151141580156136c3575063e78b332560e01b7bffffffffffffffffffffffffffffffffffffffffffffffffffffffff191681806020019051602081101561369157600080fd5b81019080805190602001909291905050507bffffffffffffffffffffffffffffffffffffffffffffffffffffffff1916145b156136d3576001925050506136da565b6000925050505b9695505050505050565b600073ffffffffffffffffffffffffffffffffffffffff168173ffffffffffffffffffffffffffffffffffffffff16141561376a576040517f08c379a000000000000000000000000000000000000000000000000000000000815260040180806020018281038252602681526020018061394d6026913960400191505060405180910390fd5b8073ffffffffffffffffffffffffffffffffffffffff16600160009054906101000a900473ffffffffffffffffffffffffffffffffffffffff1673ffffffffffffffffffffffffffffffffffffffff167f8be0079c531659141344cd1fd0a4f28419497f9722a3daafe3b4186f6b6457e060405160405180910390a380600160006101000a81548173ffffffffffffffffffffffffffffffffffffffff021916908373ffffffffffffffffffffffffffffffffffffffff16021790555050565b8060069080519060200190613840929190613880565b5050565b600080823b905060008111915050919050565b60008151905060006a636f6e736f6c652e6c6f679050602083016000808483855afa5050505050565b828054600181600116156101000203166002900490600052602060002090601f016020900481019282601f106138c157805160ff19168380011785556138ef565b828001600101855582156138ef579182015b828111156138ee5782518255916020019190600101906138d3565b5b5090506138fc9190613900565b5090565b61392291905b8082111561391e576000816000905550600101613906565b5090565b9056fe4b495033373a206163636f756e747320616e6420696473206c656e677468206d69736d617463684f776e61626c653a206e6577206f776e657220697320746865207a65726f20616464726573734b495033373a2062616c616e636520717565727920666f7220746865207a65726f20616464726573734b495033373a2069647320616e6420616d6f756e7473206c656e677468206d69736d617463684b495033373a207472616e736665722063616c6c6572206973206e6f74206f776e6572206e6f7220617070726f7665644b495033373a20696e73756666696369656e742062616c616e636520666f72207472616e736665724b495033373a2073657474696e6720617070726f76616c2073746174757320666f722073656c664b495033373a207472616e7366657220746f206e6f6e204b49503337526563656976657220696d706c656d656e7465724b495033373a2063616c6c6572206973206e6f74206f776e6572206e6f7220617070726f7665644b495033373a207472616e7366657220746f20746865207a65726f20616464726573734b495033373a206261746368207472616e7366657220746f206e6f6e204b49503337526563656976657220696d706c656d656e7465724b495033373a2062617463682062616c616e636520717565727920666f7220746865207a65726f2061646472657373a165627a7a72305820fe25f13bca40292709a689443fbda4dee77049c254179db9da3d83bf8fe92cb30029",
  "linkReferences": {},
  "deployedLinkReferences": {}
}