{
  "_format": "hh-sol-artifact-1",
  "contractName": "MusicStoneService",
  "sourceName": "contracts/MusicStoneService.sol",
  "abi": [
    {
      "constant": false,
      "inputs": [
        {
          "name": "_amount",
          "type": "uint256"
        }
      ],
      "name": "withdrawalDeposit",
      "outputs": [],
      "payable": false,
      "stateMutability": "nonpayable",
      "type": "function"
    },
    {
      "constant": true,
      "inputs": [
        {
          "name": "_account",
          "type": "address"
        }
      ],
      "name": "getArtistSfts",
      "outputs": [
        {
          "name": "",
          "type": "uint256[]"
        }
      ],
      "payable": false,
      "stateMutability": "view",
      "type": "function"
    },
    {
      "constant": true,
      "inputs": [
        {
          "name": "interfaceId",
          "type": "bytes4"
        }
      ],
      "name": "supportsInterface",
      "outputs": [
        {
          "name": "",
          "type": "bool"
        }
      ],
      "payable": false,
      "stateMutability": "view",
      "type": "function"
    },
    {
      "constant": false,
      "inputs": [
        {
          "name": "_token",
          "type": "address"
        }
      ],
      "name": "setToken",
      "outputs": [],
      "payable": false,
      "stateMutability": "nonpayable",
      "type": "function"
    },
    {
      "constant": false,
      "inputs": [
        {
          "name": "_amount",
          "type": "uint256"
        }
      ],
      "name": "withdrawalDistribution",
      "outputs": [],
      "payable": false,
      "stateMutability": "nonpayable",
      "type": "function"
    },
    {
      "constant": false,
      "inputs": [
        {
          "name": "_amount",
          "type": "uint256"
        }
      ],
      "name": "sellToken",
      "outputs": [],
      "payable": true,
      "stateMutability": "payable",
      "type": "function"
    },
    {
      "constant": true,
      "inputs": [
        {
          "name": "_account",
          "type": "address"
        },
        {
          "name": "_token_id",
          "type": "uint256"
        }
      ],
      "name": "getUserSFTs",
      "outputs": [
        {
          "name": "",
          "type": "uint256"
        }
      ],
      "payable": false,
      "stateMutability": "view",
      "type": "function"
    },
    {
      "constant": true,
      "inputs": [],
      "name": "mstoken",
      "outputs": [
        {
          "name": "",
          "type": "address"
        }
      ],
      "payable": false,
      "stateMutability": "view",
      "type": "function"
    },
    {
      "constant": false,
      "inputs": [],
      "name": "withdraw",
      "outputs": [],
      "payable": true,
      "stateMutability": "payable",
      "type": "function"
    },
    {
      "constant": false,
      "inputs": [
        {
          "name": "_amount",
          "type": "uint256"
        }
      ],
      "name": "depositMSToken",
      "outputs": [],
      "payable": false,
      "stateMutability": "nonpayable",
      "type": "function"
    },
    {
      "constant": true,
      "inputs": [
        {
          "name": "_seller",
          "type": "address"
        }
      ],
      "name": "getItemsBySeller",
      "outputs": [
        {
          "components": [
            {
              "name": "itemId",
              "type": "uint256"
            },
            {
              "name": "tokenId",
              "type": "uint256"
            },
            {
              "name": "seller",
              "type": "address"
            },
            {
              "name": "unit_price",
              "type": "uint256"
            },
            {
              "name": "total_amount",
              "type": "uint256"
            },
            {
              "name": "remaining_amount",
              "type": "uint256"
            },
            {
              "name": "isOpened",
              "type": "bool"
            }
          ],
          "name": "",
          "type": "tuple[]"
        }
      ],
      "payable": false,
      "stateMutability": "view",
      "type": "function"
    },
    {
      "constant": true,
      "inputs": [],
      "name": "mssft",
      "outputs": [
        {
          "name": "",
          "type": "address"
        }
      ],
      "payable": false,
      "stateMutability": "view",
      "type": "function"
    },
    {
      "constant": false,
      "inputs": [
        {
          "name": "itemId",
          "type": "uint256"
        }
      ],
      "name": "cancelItem",
      "outputs": [],
      "payable": false,
      "stateMutability": "nonpayable",
      "type": "function"
    },
    {
      "constant": true,
      "inputs": [
        {
          "name": "marketItemId",
          "type": "uint256"
        }
      ],
      "name": "getMarketItemById",
      "outputs": [
        {
          "components": [
            {
              "name": "itemId",
              "type": "uint256"
            },
            {
              "name": "tokenId",
              "type": "uint256"
            },
            {
              "name": "seller",
              "type": "address"
            },
            {
              "name": "unit_price",
              "type": "uint256"
            },
            {
              "name": "total_amount",
              "type": "uint256"
            },
            {
              "name": "remaining_amount",
              "type": "uint256"
            },
            {
              "name": "isOpened",
              "type": "bool"
            }
          ],
          "name": "",
          "type": "tuple"
        }
      ],
      "payable": false,
      "stateMutability": "view",
      "type": "function"
    },
    {
      "constant": true,
      "inputs": [
        {
          "name": "_account",
          "type": "address[]"
        }
      ],
      "name": "getUsersAllSFTs",
      "outputs": [
        {
          "components": [
            {
              "name": "id",
              "type": "uint256"
            },
            {
              "name": "balance",
              "type": "uint256"
            },
            {
              "name": "totalSupply",
              "type": "uint256"
            }
          ],
          "name": "",
          "type": "tuple[][]"
        }
      ],
      "payable": false,
      "stateMutability": "view",
      "type": "function"
    },
    {
      "constant": false,
      "inputs": [],
      "name": "renounceOwnership",
      "outputs": [],
      "payable": false,
      "stateMutability": "nonpayable",
      "type": "function"
    },
    {
      "constant": true,
      "inputs": [],
      "name": "owner",
      "outputs": [
        {
          "name": "",
          "type": "address"
        }
      ],
      "payable": false,
      "stateMutability": "view",
      "type": "function"
    },
    {
      "constant": true,
      "inputs": [],
      "name": "isOwner",
      "outputs": [
        {
          "name": "",
          "type": "bool"
        }
      ],
      "payable": false,
      "stateMutability": "view",
      "type": "function"
    },
    {
      "constant": true,
      "inputs": [
        {
          "name": "_id",
          "type": "uint256"
        }
      ],
      "name": "totalSFTSupply",
      "outputs": [
        {
          "name": "",
          "type": "uint256"
        }
      ],
      "payable": false,
      "stateMutability": "view",
      "type": "function"
    },
    {
      "constant": true,
      "inputs": [],
      "name": "getAllowance",
      "outputs": [
        {
          "name": "",
          "type": "uint256"
        }
      ],
      "payable": false,
      "stateMutability": "view",
      "type": "function"
    },
    {
      "constant": false,
      "inputs": [
        {
          "name": "account",
          "type": "address"
        }
      ],
      "name": "addMinter",
      "outputs": [],
      "payable": false,
      "stateMutability": "nonpayable",
      "type": "function"
    },
    {
      "constant": false,
      "inputs": [],
      "name": "renounceMinter",
      "outputs": [],
      "payable": false,
      "stateMutability": "nonpayable",
      "type": "function"
    },
    {
      "constant": false,
      "inputs": [
        {
          "name": "",
          "type": "address"
        },
        {
          "name": "",
          "type": "address"
        },
        {
          "name": "",
          "type": "uint256[]"
        },
        {
          "name": "",
          "type": "uint256[]"
        },
        {
          "name": "",
          "type": "bytes"
        }
      ],
      "name": "onKIP37BatchReceived",
      "outputs": [
        {
          "name": "",
          "type": "bytes4"
        }
      ],
      "payable": false,
      "stateMutability": "nonpayable",
      "type": "function"
    },
    {
      "constant": true,
      "inputs": [],
      "name": "getUnsoldItems",
      "outputs": [
        {
          "components": [
            {
              "name": "itemId",
              "type": "uint256"
            },
            {
              "name": "tokenId",
              "type": "uint256"
            },
            {
              "name": "seller",
              "type": "address"
            },
            {
              "name": "unit_price",
              "type": "uint256"
            },
            {
              "name": "total_amount",
              "type": "uint256"
            },
            {
              "name": "remaining_amount",
              "type": "uint256"
            },
            {
              "name": "isOpened",
              "type": "bool"
            }
          ],
          "name": "",
          "type": "tuple[]"
        }
      ],
      "payable": false,
      "stateMutability": "view",
      "type": "function"
    },
    {
      "constant": false,
      "inputs": [],
      "name": "buyToken",
      "outputs": [],
      "payable": true,
      "stateMutability": "payable",
      "type": "function"
    },
    {
      "constant": true,
      "inputs": [
        {
          "name": "_address",
          "type": "address"
        }
      ],
      "name": "getUserDistribution",
      "outputs": [
        {
          "name": "",
          "type": "uint256"
        }
      ],
      "payable": false,
      "stateMutability": "view",
      "type": "function"
    },
    {
      "constant": true,
      "inputs": [
        {
          "name": "account",
          "type": "address"
        }
      ],
      "name": "isMinter",
      "outputs": [
        {
          "name": "",
          "type": "bool"
        }
      ],
      "payable": false,
      "stateMutability": "view",
      "type": "function"
    },
    {
      "constant": false,
      "inputs": [
        {
          "name": "_amount",
          "type": "uint256"
        }
      ],
      "name": "mintSFT",
      "outputs": [],
      "payable": false,
      "stateMutability": "nonpayable",
      "type": "function"
    },
    {
      "constant": false,
      "inputs": [
        {
          "name": "_address",
          "type": "address[]"
        },
        {
          "name": "_deduct_token",
          "type": "uint256[]"
        }
      ],
      "name": "deduction",
      "outputs": [],
      "payable": false,
      "stateMutability": "nonpayable",
      "type": "function"
    },
    {
      "constant": false,
      "inputs": [
        {
          "name": "_sft_token",
          "type": "uint256[]"
        },
        {
          "name": "_distribute_amount",
          "type": "uint256[]"
        }
      ],
      "name": "distribution",
      "outputs": [],
      "payable": false,
      "stateMutability": "nonpayable",
      "type": "function"
    },
    {
      "constant": true,
      "inputs": [
        {
          "name": "_address",
          "type": "address"
        }
      ],
      "name": "getUserDeposit",
      "outputs": [
        {
          "name": "",
          "type": "uint256"
        }
      ],
      "payable": false,
      "stateMutability": "view",
      "type": "function"
    },
    {
      "constant": true,
      "inputs": [
        {
          "name": "_account",
          "type": "address"
        }
      ],
      "name": "getUserAllSFTs",
      "outputs": [
        {
          "components": [
            {
              "name": "id",
              "type": "uint256"
            },
            {
              "name": "balance",
              "type": "uint256"
            },
            {
              "name": "totalSupply",
              "type": "uint256"
            }
          ],
          "name": "",
          "type": "tuple[]"
        }
      ],
      "payable": false,
      "stateMutability": "view",
      "type": "function"
    },
    {
      "constant": false,
      "inputs": [
        {
          "name": "_token",
          "type": "address"
        }
      ],
      "name": "setSFT",
      "outputs": [],
      "payable": false,
      "stateMutability": "nonpayable",
      "type": "function"
    },
    {
      "constant": true,
      "inputs": [],
      "name": "getTokenRatio",
      "outputs": [
        {
          "name": "",
          "type": "uint256"
        }
      ],
      "payable": false,
      "stateMutability": "view",
      "type": "function"
    },
    {
      "constant": false,
      "inputs": [
        {
          "name": "itemId",
          "type": "uint256"
        },
        {
          "name": "buy_amount",
          "type": "uint256"
        }
      ],
      "name": "purchaseItem",
      "outputs": [],
      "payable": true,
      "stateMutability": "payable",
      "type": "function"
    },
    {
      "constant": false,
      "inputs": [
        {
          "name": "_newTokenRatio",
          "type": "uint256"
        }
      ],
      "name": "setTokenRatio",
      "outputs": [],
      "payable": false,
      "stateMutability": "nonpayable",
      "type": "function"
    },
    {
      "constant": true,
      "inputs": [
        {
          "name": "_id",
          "type": "uint256"
        }
      ],
      "name": "getSftCreator",
      "outputs": [
        {
          "name": "",
          "type": "address"
        }
      ],
      "payable": false,
      "stateMutability": "view",
      "type": "function"
    },
    {
      "constant": false,
      "inputs": [
        {
          "name": "",
          "type": "address"
        },
        {
          "name": "",
          "type": "address"
        },
        {
          "name": "",
          "type": "uint256"
        },
        {
          "name": "",
          "type": "uint256"
        },
        {
          "name": "",
          "type": "bytes"
        }
      ],
      "name": "onKIP37Received",
      "outputs": [
        {
          "name": "",
          "type": "bytes4"
        }
      ],
      "payable": false,
      "stateMutability": "nonpayable",
      "type": "function"
    },
    {
      "constant": false,
      "inputs": [
        {
          "name": "newOwner",
          "type": "address"
        }
      ],
      "name": "transferOwnership",
      "outputs": [],
      "payable": false,
      "stateMutability": "nonpayable",
      "type": "function"
    },
    {
      "constant": false,
      "inputs": [
        {
          "name": "tokenId",
          "type": "uint256"
        },
        {
          "name": "unit_price",
          "type": "uint256"
        },
        {
          "name": "amount",
          "type": "uint256"
        }
      ],
      "name": "addItemToMarket",
      "outputs": [],
      "payable": true,
      "stateMutability": "payable",
      "type": "function"
    },
    {
      "inputs": [],
      "payable": false,
      "stateMutability": "nonpayable",
      "type": "constructor"
    },
    {
      "anonymous": false,
      "inputs": [
        {
          "indexed": true,
          "name": "itemId",
          "type": "uint256"
        },
        {
          "indexed": true,
          "name": "tokenId",
          "type": "uint256"
        },
        {
          "indexed": false,
          "name": "seller",
          "type": "address"
        },
        {
          "indexed": false,
          "name": "unit_price",
          "type": "uint256"
        },
        {
          "indexed": false,
          "name": "total_amount",
          "type": "uint256"
        },
        {
          "indexed": false,
          "name": "remaining_amount",
          "type": "uint256"
        }
      ],
      "name": "MarketItemCreated",
      "type": "event"
    },
    {
      "anonymous": false,
      "inputs": [
        {
          "indexed": true,
          "name": "itemId",
          "type": "uint256"
        },
        {
          "indexed": true,
          "name": "tokenId",
          "type": "uint256"
        },
        {
          "indexed": false,
          "name": "seller",
          "type": "address"
        },
        {
          "indexed": false,
          "name": "buyer",
          "type": "address"
        },
        {
          "indexed": false,
          "name": "unit_price",
          "type": "uint256"
        },
        {
          "indexed": false,
          "name": "total_amount",
          "type": "uint256"
        },
        {
          "indexed": false,
          "name": "buy_amount",
          "type": "uint256"
        },
        {
          "indexed": false,
          "name": "remaining_amount",
          "type": "uint256"
        }
      ],
      "name": "MarketItemSelled",
      "type": "event"
    },
    {
      "anonymous": false,
      "inputs": [
        {
          "indexed": true,
          "name": "itemId",
          "type": "uint256"
        },
        {
          "indexed": true,
          "name": "tokenId",
          "type": "uint256"
        },
        {
          "indexed": false,
          "name": "seller",
          "type": "address"
        },
        {
          "indexed": false,
          "name": "unit_price",
          "type": "uint256"
        },
        {
          "indexed": false,
          "name": "total_amount",
          "type": "uint256"
        },
        {
          "indexed": false,
          "name": "remaining_amount",
          "type": "uint256"
        }
      ],
      "name": "MarketItemCancel",
      "type": "event"
    },
    {
      "anonymous": false,
      "inputs": [
        {
          "indexed": false,
          "name": "user",
          "type": "address"
        },
        {
          "indexed": false,
          "name": "amount",
          "type": "uint256"
        }
      ],
      "name": "BuyToken",
      "type": "event"
    },
    {
      "anonymous": false,
      "inputs": [
        {
          "indexed": false,
          "name": "user",
          "type": "address"
        },
        {
          "indexed": false,
          "name": "amount",
          "type": "uint256"
        }
      ],
      "name": "SellToken",
      "type": "event"
    },
    {
      "anonymous": false,
      "inputs": [
        {
          "indexed": false,
          "name": "artist",
          "type": "address"
        },
        {
          "indexed": false,
          "name": "token_id",
          "type": "uint256"
        },
        {
          "indexed": false,
          "name": "amount",
          "type": "uint256"
        }
      ],
      "name": "SFTMinted",
      "type": "event"
    },
    {
      "anonymous": false,
      "inputs": [
        {
          "indexed": false,
          "name": "user",
          "type": "address"
        },
        {
          "indexed": false,
          "name": "amount",
          "type": "uint256"
        }
      ],
      "name": "DepositMSToken",
      "type": "event"
    },
    {
      "anonymous": false,
      "inputs": [
        {
          "indexed": false,
          "name": "user",
          "type": "address"
        },
        {
          "indexed": false,
          "name": "amount",
          "type": "uint256"
        }
      ],
      "name": "WithDrawalDepositMSToken",
      "type": "event"
    },
    {
      "anonymous": false,
      "inputs": [
        {
          "indexed": false,
          "name": "user",
          "type": "address"
        },
        {
          "indexed": false,
          "name": "amount",
          "type": "uint256"
        }
      ],
      "name": "WithDrawalDistributionMSToken",
      "type": "event"
    },
    {
      "anonymous": false,
      "inputs": [
        {
          "indexed": true,
          "name": "account",
          "type": "address"
        }
      ],
      "name": "MinterAdded",
      "type": "event"
    },
    {
      "anonymous": false,
      "inputs": [
        {
          "indexed": true,
          "name": "account",
          "type": "address"
        }
      ],
      "name": "MinterRemoved",
      "type": "event"
    },
    {
      "anonymous": false,
      "inputs": [
        {
          "indexed": true,
          "name": "previousOwner",
          "type": "address"
        },
        {
          "indexed": true,
          "name": "newOwner",
          "type": "address"
        }
      ],
      "name": "OwnershipTransferred",
      "type": "event"
    }
  ],
  "bytecode": "0x60806040526101f460055567016345785d8a00006012553480156200002357600080fd5b50336000806101000a81548173ffffffffffffffffffffffffffffffffffffffff021916908373ffffffffffffffffffffffffffffffffffffffff1602179055506000809054906101000a900473ffffffffffffffffffffffffffffffffffffffff1673ffffffffffffffffffffffffffffffffffffffff16600073ffffffffffffffffffffffffffffffffffffffff167f8be0079c531659141344cd1fd0a4f28419497f9722a3daafe3b4186f6b6457e060405160405180910390a3620000f1336200016460201b60201c565b620001096301ffc9a760e01b620001c560201b60201c565b6200015e600073ffffffffffffffffffffffffffffffffffffffff16639b49e332905060e01b600073ffffffffffffffffffffffffffffffffffffffff1663e78b3325905060e01b18620001c560201b60201c565b6200057f565b6200017f8160016200029e60201b62003e471790919060201c565b8073ffffffffffffffffffffffffffffffffffffffff167f6ae172837ea30b801fbfcdd4108aa1d5bf8ff775444fd70256b44e6bf3dfc3f660405160405180910390a250565b63ffffffff60e01b817bffffffffffffffffffffffffffffffffffffffffffffffffffffffff1916141562000231576040517f08c379a000000000000000000000000000000000000000000000000000000000815260040162000228906200052a565b60405180910390fd5b600160026000837bffffffffffffffffffffffffffffffffffffffffffffffffffffffff19167bffffffffffffffffffffffffffffffffffffffffffffffffffffffff1916815260200190815260200160002060006101000a81548160ff02191690831515021790555050565b620002b082826200035160201b60201c565b15620002f3576040517f08c379a0000000000000000000000000000000000000000000000000000000008152600401620002ea9062000508565b60405180910390fd5b60018260000160008373ffffffffffffffffffffffffffffffffffffffff1673ffffffffffffffffffffffffffffffffffffffff16815260200190815260200160002060006101000a81548160ff0219169083151502179055505050565b60008073ffffffffffffffffffffffffffffffffffffffff168273ffffffffffffffffffffffffffffffffffffffff161415620003c5576040517f08c379a0000000000000000000000000000000000000000000000000000000008152600401620003bc906200054c565b60405180910390fd5b8260000160008373ffffffffffffffffffffffffffffffffffffffff1673ffffffffffffffffffffffffffffffffffffffff16815260200190815260200160002060009054906101000a900460ff16905092915050565b60006200042b601f836200056e565b91507f526f6c65733a206163636f756e7420616c72656164792068617320726f6c65006000830152602082019050919050565b60006200046d601b836200056e565b91507f4b495031333a20696e76616c696420696e7465726661636520696400000000006000830152602082019050919050565b6000620004af6022836200056e565b91507f526f6c65733a206163636f756e7420697320746865207a65726f20616464726560008301527f73730000000000000000000000000000000000000000000000000000000000006020830152604082019050919050565b6000602082019050818103600083015262000523816200041c565b9050919050565b6000602082019050818103600083015262000545816200045e565b9050919050565b600060208201905081810360008301526200056781620004a0565b9050919050565b600082825260208201905092915050565b615dab806200058f6000396000f3fe6080604052600436106102395760003560e01c8063983b2d561161012e578063c084b10b116100ab578063e38e91f91161006f578063e38e91f91461085b578063e668302a14610884578063e78b3325146108c1578063f2fde38b146108fe578063f7d20a231461092757610239565b8063c084b10b14610771578063c0d37752146107ae578063c37176b9146107eb578063d8a4bfe114610814578063e06756981461083f57610239565b8063a55b748e116100f2578063a55b748e1461067c578063aa271e1a146106b9578063ac104f90146106f6578063ae1a18811461071f578063b9058c7e1461074857610239565b8063983b2d56146105ca57806398650275146105f35780639b49e3321461060a5780639b8bc12714610647578063a48217191461067257610239565b806349bf3efb116101bc578063715018a611610180578063715018a6146104f55780638da5cb5b1461050c5780638f32d59b146105375780638f87ce1214610562578063973e9b8b1461059f57610239565b806349bf3efb146103ea5780634e71f8dc1461042757806351563f8e1461045257806353dbceb11461047b578063584b8e64146104b857610239565b80632397e4d7116102035780632397e4d714610333578063315543e81461034f57806338f5ba2f1461038c5780633ccfd60b146103b757806341038aa4146103c157610239565b8062992a4b1461023e578062e3c6c81461026757806301ffc9a7146102a4578063144fa6d7146102e1578063226d15561461030a575b600080fd5b34801561024a57600080fd5b5061026560048036036102609190810190614766565b610943565b005b34801561027357600080fd5b5061028e6004803603610289919081019061441f565b610aa8565b60405161029b919061560a565b60405180910390f35b3480156102b057600080fd5b506102cb60048036036102c6919081019061473d565b610baf565b6040516102d8919061562c565b60405180910390f35b3480156102ed57600080fd5b506103086004803603610303919081019061441f565b610c17565b005b34801561031657600080fd5b50610331600480360361032c9190810190614766565b610ca2565b005b61034d60048036036103489190810190614766565b610e07565b005b34801561035b57600080fd5b50610376600480360361037191908101906145bf565b610f7b565b6040516103839190615995565b60405180910390f35b34801561039857600080fd5b506103a1610fd6565b6040516103ae919061567d565b60405180910390f35b6103bf610ffc565b005b3480156103cd57600080fd5b506103e860048036036103e39190810190614766565b61109a565b005b3480156103f657600080fd5b50610411600480360361040c919081019061441f565b61117d565b60405161041e91906155c6565b60405180910390f35b34801561043357600080fd5b5061043c6113ef565b6040516104499190615662565b60405180910390f35b34801561045e57600080fd5b5061047960048036036104749190810190614766565b611415565b005b34801561048757600080fd5b506104a2600480360361049d9190810190614766565b611658565b6040516104af919061597a565b60405180910390f35b3480156104c457600080fd5b506104df60048036036104da91908101906145fb565b611734565b6040516104ec91906155a4565b60405180910390f35b34801561050157600080fd5b5061050a611a43565b005b34801561051857600080fd5b50610521611b49565b60405161052e9190615373565b60405180910390f35b34801561054357600080fd5b5061054c611b72565b604051610559919061562c565b60405180910390f35b34801561056e57600080fd5b5061058960048036036105849190810190614766565b611bc9565b6040516105969190615995565b60405180910390f35b3480156105ab57600080fd5b506105b4611be6565b6040516105c19190615995565b60405180910390f35b3480156105d657600080fd5b506105f160048036036105ec919081019061441f565b611ca1565b005b3480156105ff57600080fd5b50610608611cf5565b005b34801561061657600080fd5b50610631600480360361062c9190810190614471565b611d00565b60405161063e9190615647565b60405180910390f35b34801561065357600080fd5b5061065c611d15565b60405161066991906155c6565b60405180910390f35b61067a611ec8565b005b34801561068857600080fd5b506106a3600480360361069e919081019061441f565b612000565b6040516106b09190615995565b60405180910390f35b3480156106c557600080fd5b506106e060048036036106db919081019061441f565b612049565b6040516106ed919061562c565b60405180910390f35b34801561070257600080fd5b5061071d60048036036107189190810190614766565b612066565b005b34801561072b57600080fd5b506107466004803603610741919081019061463c565b612323565b005b34801561075457600080fd5b5061076f600480360361076a91908101906146a8565b612461565b005b34801561077d57600080fd5b506107986004803603610793919081019061441f565b6126e5565b6040516107a59190615995565b60405180910390f35b3480156107ba57600080fd5b506107d560048036036107d0919081019061441f565b61272e565b6040516107e291906155e8565b60405180910390f35b3480156107f757600080fd5b50610812600480360361080d919081019061441f565b6128e5565b005b34801561082057600080fd5b50610829612970565b6040516108369190615995565b60405180910390f35b610859600480360361085491908101906147b8565b61297a565b005b34801561086757600080fd5b50610882600480360361087d9190810190614766565b612d36565b005b34801561089057600080fd5b506108ab60048036036108a69190810190614766565b612d87565b6040516108b89190615358565b60405180910390f35b3480156108cd57600080fd5b506108e860048036036108e39190810190614530565b612dc4565b6040516108f59190615647565b60405180910390f35b34801561090a57600080fd5b5061092560048036036109209190810190614448565b612dd9565b005b610941600480360361093c91908101906147f4565b612e2c565b005b80600860003373ffffffffffffffffffffffffffffffffffffffff1673ffffffffffffffffffffffffffffffffffffffff1681526020019081526020016000205410156109c5576040517f08c379a00000000000000000000000000000000000000000000000000000000081526004016109bc906156ba565b60405180910390fd5b610a1781600860003373ffffffffffffffffffffffffffffffffffffffff1673ffffffffffffffffffffffffffffffffffffffff1681526020019081526020016000205461306590919063ffffffff16565b600860003373ffffffffffffffffffffffffffffffffffffffff1673ffffffffffffffffffffffffffffffffffffffff16815260200190815260200160002081905550610a6c610a65611b49565b33836130af565b7fa12ff442cb4f848e9f25aaffc7b8f993d50d7bced7aed7153cda8f6dcc37c6cd3382604051610a9d929190615470565b60405180910390a150565b6060600073ffffffffffffffffffffffffffffffffffffffff168273ffffffffffffffffffffffffffffffffffffffff161415610b1a576040517f08c379a0000000000000000000000000000000000000000000000000000000008152600401610b119061575a565b60405180910390fd5b600e60008373ffffffffffffffffffffffffffffffffffffffff1673ffffffffffffffffffffffffffffffffffffffff168152602001908152602001600020805480602002602001604051908101604052809291908181526020018280548015610ba357602002820191906000526020600020905b815481526020019060010190808311610b8f575b50505050509050919050565b600060026000837bffffffffffffffffffffffffffffffffffffffffffffffffffffffff19167bffffffffffffffffffffffffffffffffffffffffffffffffffffffff1916815260200190815260200160002060009054906101000a900460ff169050919050565b610c1f611b72565b610c5e576040517f08c379a0000000000000000000000000000000000000000000000000000000008152600401610c559061589a565b60405180910390fd5b80600660006101000a81548173ffffffffffffffffffffffffffffffffffffffff021916908373ffffffffffffffffffffffffffffffffffffffff16021790555050565b80600960003373ffffffffffffffffffffffffffffffffffffffff1673ffffffffffffffffffffffffffffffffffffffff168152602001908152602001600020541015610d24576040517f08c379a0000000000000000000000000000000000000000000000000000000008152600401610d1b906158da565b60405180910390fd5b610d7681600960003373ffffffffffffffffffffffffffffffffffffffff1673ffffffffffffffffffffffffffffffffffffffff1681526020019081526020016000205461306590919063ffffffff16565b600960003373ffffffffffffffffffffffffffffffffffffffff1673ffffffffffffffffffffffffffffffffffffffff16815260200190815260200160002081905550610dcb610dc4611b49565b33836130af565b7ffbddb6b83f56ca2cf6f4832ce1f6ae9976dc080046a10f1b262c13b418a93d1a3382604051610dfc929190615470565b60405180910390a150565b60006005548281610e1457fe5b049050803073ffffffffffffffffffffffffffffffffffffffff16311015610e71576040517f08c379a0000000000000000000000000000000000000000000000000000000008152600401610e689061595a565b60405180910390fd5b600660009054906101000a900473ffffffffffffffffffffffffffffffffffffffff1673ffffffffffffffffffffffffffffffffffffffff166379cc679033846040518363ffffffff1660e01b8152600401610ece929190615470565b600060405180830381600087803b158015610ee857600080fd5b505af1158015610efc573d6000803e3d6000fd5b505050503373ffffffffffffffffffffffffffffffffffffffff166108fc829081150290604051600060405180830381858888f19350505050610f3e57600080fd5b7ff567b51b9deaa2fa38dd169801137cdc7532865d1e82192be079971d61e3ce863383604051610f6f929190615470565b60405180910390a15050565b6000600c60008473ffffffffffffffffffffffffffffffffffffffff1673ffffffffffffffffffffffffffffffffffffffff168152602001908152602001600020600083815260200190815260200160002054905092915050565b600660009054906101000a900473ffffffffffffffffffffffffffffffffffffffff1681565b611004611b72565b611043576040517f08c379a000000000000000000000000000000000000000000000000000000000815260040161103a9061589a565b60405180910390fd5b3373ffffffffffffffffffffffffffffffffffffffff166108fc3073ffffffffffffffffffffffffffffffffffffffff16319081150290604051600060405180830381858888f1935050505061109857600080fd5b565b6110ac336110a6611b49565b836130af565b6110fe81600860003373ffffffffffffffffffffffffffffffffffffffff1673ffffffffffffffffffffffffffffffffffffffff168152602001908152602001600020546131aa90919063ffffffff16565b600860003373ffffffffffffffffffffffffffffffffffffffff1673ffffffffffffffffffffffffffffffffffffffff168152602001908152602001600020819055507f1de446d6892438294bad2644da47b63af5a95c2c031e41ded6b533807a11ce1c3382604051611172929190615470565b60405180910390a150565b6060600061118b60036131ff565b90506000809050600080905060008090505b83811015611226578573ffffffffffffffffffffffffffffffffffffffff166011600060018401815260200190815260200160002060020160009054906101000a900473ffffffffffffffffffffffffffffffffffffffff1673ffffffffffffffffffffffffffffffffffffffff161415611219576001830192505b808060010191505061119d565b5060608260405190808252806020026020018201604052801561126357816020015b611250614182565b8152602001906001900390816112485790505b50905060008090505b848110156113e2578673ffffffffffffffffffffffffffffffffffffffff166011600060018401815260200190815260200160002060020160009054906101000a900473ffffffffffffffffffffffffffffffffffffffff1673ffffffffffffffffffffffffffffffffffffffff1614156113d55760006001820190506112f16141d7565b601160008381526020019081526020016000206040518060e001604052908160008201548152602001600182015481526020016002820160009054906101000a900473ffffffffffffffffffffffffffffffffffffffff1673ffffffffffffffffffffffffffffffffffffffff1673ffffffffffffffffffffffffffffffffffffffff1681526020016003820154815260200160048201548152602001600582015481526020016006820160009054906101000a900460ff1615151515815250509050808486815181106113c157fe5b602002602001018190525060018501945050505b808060010191505061126c565b5080945050505050919050565b600760009054906101000a900473ffffffffffffffffffffffffffffffffffffffff1681565b60006011600083815260200190815260200160002060020160009054906101000a900473ffffffffffffffffffffffffffffffffffffffff1690506000601160008481526020019081526020016000206001015490506000601160008581526020019081526020016000206005015490503373ffffffffffffffffffffffffffffffffffffffff168373ffffffffffffffffffffffffffffffffffffffff16146114f4576040517f08c379a00000000000000000000000000000000000000000000000000000000081526004016114eb9061591a565b60405180910390fd5b600760009054906101000a900473ffffffffffffffffffffffffffffffffffffffff1673ffffffffffffffffffffffffffffffffffffffff1663f242432a303385856040518563ffffffff1660e01b81526004016115559493929190615515565b600060405180830381600087803b15801561156f57600080fd5b505af1158015611583573d6000803e3d6000fd5b505050506115908461320d565b61159b338383613249565b81847fbd38f4b052b02b12cfef3a49a5a317df92360c746c95f08e9eead3f017d21baa6011600088815260200190815260200160002060020160009054906101000a900473ffffffffffffffffffffffffffffffffffffffff166011600089815260200190815260200160002060030154601160008a815260200190815260200160002060040154601160008b81526020019081526020016000206005015460405161164a94939291906154d0565b60405180910390a350505050565b6116606141d7565b6116686141d7565b601160008481526020019081526020016000206040518060e001604052908160008201548152602001600182015481526020016002820160009054906101000a900473ffffffffffffffffffffffffffffffffffffffff1673ffffffffffffffffffffffffffffffffffffffff1673ffffffffffffffffffffffffffffffffffffffff1681526020016003820154815260200160048201548152602001600582015481526020016006820160009054906101000a900460ff161515151581525050905080915050919050565b606060008251905060608160405190808252806020026020018201604052801561177257816020015b606081526020019060019003908161175d5790505b50905060008090505b8281101561183d576000600a600087848151811061179557fe5b602002602001015173ffffffffffffffffffffffffffffffffffffffff1673ffffffffffffffffffffffffffffffffffffffff1681526020019081526020016000208054905090508060405190808252806020026020018201604052801561181757816020015b61180461422c565b8152602001906001900390816117fc5790505b5083838151811061182457fe5b602002602001018190525050808060010191505061177b565b5060008090505b82811015611a38576000600a600087848151811061185e57fe5b602002602001015173ffffffffffffffffffffffffffffffffffffffff1673ffffffffffffffffffffffffffffffffffffffff16815260200190815260200160002080549050905060008090505b81811015611a29576000600a60008986815181106118c657fe5b602002602001015173ffffffffffffffffffffffffffffffffffffffff1673ffffffffffffffffffffffffffffffffffffffff168152602001908152602001600020828154811061191357fe5b906000526020600020015490508085858151811061192d57fe5b6020026020010151838151811061194057fe5b60200260200101516000018181525050600c600089868151811061196057fe5b602002602001015173ffffffffffffffffffffffffffffffffffffffff1673ffffffffffffffffffffffffffffffffffffffff1681526020019081526020016000206000828152602001908152602001600020548585815181106119c057fe5b602002602001015183815181106119d357fe5b602002602001015160200181815250506119ec81611bc9565b8585815181106119f857fe5b60200260200101518381518110611a0b57fe5b602002602001015160400181815250505080806001019150506118ac565b50508080600101915050611844565b508092505050919050565b611a4b611b72565b611a8a576040517f08c379a0000000000000000000000000000000000000000000000000000000008152600401611a819061589a565b60405180910390fd5b600073ffffffffffffffffffffffffffffffffffffffff166000809054906101000a900473ffffffffffffffffffffffffffffffffffffffff1673ffffffffffffffffffffffffffffffffffffffff167f8be0079c531659141344cd1fd0a4f28419497f9722a3daafe3b4186f6b6457e060405160405180910390a360008060006101000a81548173ffffffffffffffffffffffffffffffffffffffff021916908373ffffffffffffffffffffffffffffffffffffffff160217905550565b60008060009054906101000a900473ffffffffffffffffffffffffffffffffffffffff16905090565b60008060009054906101000a900473ffffffffffffffffffffffffffffffffffffffff1673ffffffffffffffffffffffffffffffffffffffff163373ffffffffffffffffffffffffffffffffffffffff1614905090565b600060106000838152602001908152602001600020549050919050565b6000600660009054906101000a900473ffffffffffffffffffffffffffffffffffffffff1673ffffffffffffffffffffffffffffffffffffffff1663dd62ed3e611c2e611b49565b306040518363ffffffff1660e01b8152600401611c4c92919061538e565b60206040518083038186803b158015611c6457600080fd5b505afa158015611c78573d6000803e3d6000fd5b505050506040513d601f19601f82011682018060405250611c9c919081019061478f565b905090565b611caa33612049565b611ce9576040517f08c379a0000000000000000000000000000000000000000000000000000000008152600401611ce09061583a565b60405180910390fd5b611cf281613305565b50565b611cfe3361335f565b565b6000639b49e33260e01b905095945050505050565b60606000611d2360036131ff565b90506000611d3160046131ff565b611d3b60036131ff565b0390506000809050606082604051908082528060200260200182016040528015611d7f57816020015b611d6c614182565b815260200190600190039081611d645790505b50905060008090505b84811015611ebd576011600060018301815260200190815260200160002060060160009054906101000a900460ff1615611eb0576000600182019050611dcc6141d7565b601160008381526020019081526020016000206040518060e001604052908160008201548152602001600182015481526020016002820160009054906101000a900473ffffffffffffffffffffffffffffffffffffffff1673ffffffffffffffffffffffffffffffffffffffff1673ffffffffffffffffffffffffffffffffffffffff1681526020016003820154815260200160048201548152602001600582015481526020016006820160009054906101000a900460ff161515151581525050905080848681518110611e9c57fe5b602002602001018190525060018501945050505b8080600101915050611d88565b508094505050505090565b60006005543402905060003411611f14576040517f08c379a0000000000000000000000000000000000000000000000000000000008152600401611f0b906156fa565b60405180910390fd5b600660009054906101000a900473ffffffffffffffffffffffffffffffffffffffff1673ffffffffffffffffffffffffffffffffffffffff166340c10f1933836040518363ffffffff1660e01b8152600401611f71929190615470565b602060405180830381600087803b158015611f8b57600080fd5b505af1158015611f9f573d6000803e3d6000fd5b505050506040513d601f19601f82011682018060405250611fc39190810190614714565b507fdd06b66c3ba8126086cd863137d6f3b86ce5bcf4309cac390cc265e39194d0b23382604051611ff5929190615470565b60405180910390a150565b6000600960008373ffffffffffffffffffffffffffffffffffffffff1673ffffffffffffffffffffffffffffffffffffffff168152602001908152602001600020549050919050565b600061205f8260016133b990919063ffffffff16565b9050919050565b61206f33612049565b6120ae576040517f08c379a00000000000000000000000000000000000000000000000000000000081526004016120a59061583a565b60405180910390fd5b6000600760009054906101000a900473ffffffffffffffffffffffffffffffffffffffff1673ffffffffffffffffffffffffffffffffffffffff16635b456a706040518163ffffffff1660e01b815260040160206040518083038186803b15801561211857600080fd5b505afa15801561212c573d6000803e3d6000fd5b505050506040513d601f19601f82011682018060405250612150919081019061478f565b9050600760009054906101000a900473ffffffffffffffffffffffffffffffffffffffff1673ffffffffffffffffffffffffffffffffffffffff166374c1832033846040518363ffffffff1660e01b81526004016121af929190615470565b600060405180830381600087803b1580156121c957600080fd5b505af11580156121dd573d6000803e3d6000fd5b50505050600e60003373ffffffffffffffffffffffffffffffffffffffff1673ffffffffffffffffffffffffffffffffffffffff16815260200190815260200160002081908060018154018082558091505090600182039060005260206000200160009091929091909150555033600f600083815260200190815260200160002060006101000a81548173ffffffffffffffffffffffffffffffffffffffff021916908373ffffffffffffffffffffffffffffffffffffffff1602179055506122c28260106000848152602001908152602001600020546131aa90919063ffffffff16565b60106000838152602001908152602001600020819055506122e4338284613481565b7f90f5c1381448d304f76fba02baa9ed60eb8fa8a8c906da284fbe131dac50eba233828460405161231793929190615499565b60405180910390a15050565b600082519050600082519050808214612371576040517f08c379a00000000000000000000000000000000000000000000000000000000081526004016123689061579a565b60405180910390fd5b60008090505b8281101561245a576123f784828151811061238e57fe5b6020026020010151600860008885815181106123a657fe5b602002602001015173ffffffffffffffffffffffffffffffffffffffff1673ffffffffffffffffffffffffffffffffffffffff1681526020019081526020016000205461306590919063ffffffff16565b6008600087848151811061240757fe5b602002602001015173ffffffffffffffffffffffffffffffffffffffff1673ffffffffffffffffffffffffffffffffffffffff168152602001908152602001600020819055508080600101915050612377565b5050505050565b6000825190506000825190508082146124af576040517f08c379a00000000000000000000000000000000000000000000000000000000081526004016124a69061579a565b60405180910390fd5b60008090505b828110156126de5760008582815181106124cb57fe5b602002602001015190506060600b600083815260200190815260200160002080548060200260200160405190810160405280929190818152602001828054801561256a57602002820191906000526020600020905b8160009054906101000a900473ffffffffffffffffffffffffffffffffffffffff1673ffffffffffffffffffffffffffffffffffffffff1681526020019060010190808311612520575b5050505050905060006010600084815260200190815260200160002054905060008090505b82518110156126cd5760008382815181106125a657fe5b602002602001015190506000600c60008373ffffffffffffffffffffffffffffffffffffffff1673ffffffffffffffffffffffffffffffffffffffff1681526020019081526020016000206000878152602001908152602001600020549050600084828c8a8151811061261557fe5b6020026020010151028161262557fe5b04905061267a81600960008673ffffffffffffffffffffffffffffffffffffffff1673ffffffffffffffffffffffffffffffffffffffff168152602001908152602001600020546131aa90919063ffffffff16565b600960008573ffffffffffffffffffffffffffffffffffffffff1673ffffffffffffffffffffffffffffffffffffffff16815260200190815260200160002081905550505050808060010191505061258f565b5050505080806001019150506124b5565b5050505050565b6000600860008373ffffffffffffffffffffffffffffffffffffffff1673ffffffffffffffffffffffffffffffffffffffff168152602001908152602001600020549050919050565b60606000600a60008473ffffffffffffffffffffffffffffffffffffffff1673ffffffffffffffffffffffffffffffffffffffff1681526020019081526020016000208054905090506060816040519080825280602002602001820160405280156127b357816020015b6127a061422c565b8152602001906001900390816127985790505b50905060008090505b828110156128da576000600a60008773ffffffffffffffffffffffffffffffffffffffff1673ffffffffffffffffffffffffffffffffffffffff168152602001908152602001600020828154811061281057fe5b906000526020600020015490508083838151811061282a57fe5b60200260200101516000018181525050600c60008773ffffffffffffffffffffffffffffffffffffffff1673ffffffffffffffffffffffffffffffffffffffff16815260200190815260200160002060008281526020019081526020016000205483838151811061289757fe5b602002602001015160200181815250506128b081611bc9565b8383815181106128bc57fe5b602002602001015160400181815250505080806001019150506127bc565b508092505050919050565b6128ed611b72565b61292c576040517f08c379a00000000000000000000000000000000000000000000000000000000081526004016129239061589a565b60405180910390fd5b80600760006101000a81548173ffffffffffffffffffffffffffffffffffffffff021916908373ffffffffffffffffffffffffffffffffffffffff16021790555050565b6000600554905090565b60006011600084815260200190815260200160002060060160009054906101000a900460ff16905060011515811515146129e9576040517f08c379a00000000000000000000000000000000000000000000000000000000081526004016129e0906157da565b60405180910390fd5b60006011600085815260200190815260200160002060010154905060006011600086815260200190815260200160002060030154905060006011600087815260200190815260200160002060050154905084811015612a7d576040517f08c379a0000000000000000000000000000000000000000000000000000000008152600401612a74906158fa565b60405180910390fd5b8482023414612ac1576040517f08c379a0000000000000000000000000000000000000000000000000000000008152600401612ab89061577a565b60405180910390fd5b6011600087815260200190815260200160002060020160009054906101000a900473ffffffffffffffffffffffffffffffffffffffff1673ffffffffffffffffffffffffffffffffffffffff166108fc349081150290604051600060405180830381858888f19350505050158015612b3d573d6000803e3d6000fd5b50612b6785601160008981526020019081526020016000206005015461306590919063ffffffff16565b6011600088815260200190815260200160002060050181905550600060116000888152602001908152602001600020600501541415612baa57612ba98661320d565b5b612beb6011600088815260200190815260200160002060020160009054906101000a900473ffffffffffffffffffffffffffffffffffffffff16848761364f565b612bf6338487613481565b600760009054906101000a900473ffffffffffffffffffffffffffffffffffffffff1673ffffffffffffffffffffffffffffffffffffffff1663f242432a303386896040518563ffffffff1660e01b8152600401612c579493929190615515565b600060405180830381600087803b158015612c7157600080fd5b505af1158015612c85573d6000803e3d6000fd5b5050505082867f600918f9eafb4d7ea2306fe40426faf0301ad83352c5dc1a74978e5ae36345b6601160008a815260200190815260200160002060020160009054906101000a900473ffffffffffffffffffffffffffffffffffffffff163386601160008d8152602001908152602001600020600401548b601160008f815260200190815260200160002060050154604051612d26969594939291906153b7565b60405180910390a3505050505050565b612d3e611b72565b612d7d576040517f08c379a0000000000000000000000000000000000000000000000000000000008152600401612d749061589a565b60405180910390fd5b8060058190555050565b6000600f600083815260200190815260200160002060009054906101000a900473ffffffffffffffffffffffffffffffffffffffff169050919050565b600063e78b332560e01b905095945050505050565b612de1611b72565b612e20576040517f08c379a0000000000000000000000000000000000000000000000000000000008152600401612e179061589a565b60405180910390fd5b612e2981613b07565b50565b60008211612e6f576040517f08c379a0000000000000000000000000000000000000000000000000000000008152600401612e669061593a565b60405180910390fd5b612e796003613c35565b6000612e8560036131ff565b90506040518060e001604052808281526020018581526020013373ffffffffffffffffffffffffffffffffffffffff1681526020018481526020018381526020018381526020016001151581525060116000838152602001908152602001600020600082015181600001556020820151816001015560408201518160020160006101000a81548173ffffffffffffffffffffffffffffffffffffffff021916908373ffffffffffffffffffffffffffffffffffffffff160217905550606082015181600301556080820151816004015560a0820151816005015560c08201518160060160006101000a81548160ff021916908315150217905550905050600760009054906101000a900473ffffffffffffffffffffffffffffffffffffffff1673ffffffffffffffffffffffffffffffffffffffff1663f242432a333087866040518563ffffffff1660e01b8152600401612fe39493929190615418565b600060405180830381600087803b158015612ffd57600080fd5b505af1158015613011573d6000803e3d6000fd5b50505050613020338584613c4b565b83817f57fb6a47e970e71c47b9023fb3c64b4a6916a36ddb11d2531591a07afaddd0063386868760405161305794939291906154d0565b60405180910390a350505050565b60006130a783836040518060400160405280601e81526020017f536166654d6174683a207375627472616374696f6e206f766572666c6f770000815250613dec565b905092915050565b6000600660009054906101000a900473ffffffffffffffffffffffffffffffffffffffff1673ffffffffffffffffffffffffffffffffffffffff166323b872dd8585856040518463ffffffff1660e01b81526004016131109392919061556d565b602060405180830381600087803b15801561312a57600080fd5b505af115801561313e573d6000803e3d6000fd5b505050506040513d601f19601f820116820180604052506131629190810190614714565b9050806131a4576040517f08c379a000000000000000000000000000000000000000000000000000000000815260040161319b906157fa565b60405180910390fd5b50505050565b6000808284019050838110156131f5576040517f08c379a00000000000000000000000000000000000000000000000000000000081526004016131ec9061573a565b60405180910390fd5b8091505092915050565b600081600001549050919050565b6132176004613c35565b60006011600083815260200190815260200160002060060160006101000a81548160ff02191690831515021790555050565b6132ac81600d60008673ffffffffffffffffffffffffffffffffffffffff1673ffffffffffffffffffffffffffffffffffffffff16815260200190815260200160002060008581526020019081526020016000205461306590919063ffffffff16565b600d60008573ffffffffffffffffffffffffffffffffffffffff1673ffffffffffffffffffffffffffffffffffffffff168152602001908152602001600020600084815260200190815260200160002081905550505050565b613319816001613e4790919063ffffffff16565b8073ffffffffffffffffffffffffffffffffffffffff167f6ae172837ea30b801fbfcdd4108aa1d5bf8ff775444fd70256b44e6bf3dfc3f660405160405180910390a250565b613373816001613eef90919063ffffffff16565b8073ffffffffffffffffffffffffffffffffffffffff167fe94479a9f7e1952cc78f2d6baab678adc1b772d936c6583def489e524cb6669260405160405180910390a250565b60008073ffffffffffffffffffffffffffffffffffffffff168273ffffffffffffffffffffffffffffffffffffffff16141561342a576040517f08c379a0000000000000000000000000000000000000000000000000000000008152600401613421906158ba565b60405180910390fd5b8260000160008373ffffffffffffffffffffffffffffffffffffffff1673ffffffffffffffffffffffffffffffffffffffff16815260200190815260200160002060009054906101000a900460ff16905092915050565b7fffffffffffffffffffffffffffffffffffffffffffffffffffffffffffffffff6134ac8484613f96565b141561359357600a60008473ffffffffffffffffffffffffffffffffffffffff1673ffffffffffffffffffffffffffffffffffffffff168152602001908152602001600020829080600181540180825580915050906001820390600052602060002001600090919290919091505550600b60008381526020019081526020016000208390806001815401808255809150509060018203906000526020600020016000909192909190916101000a81548173ffffffffffffffffffffffffffffffffffffffff021916908373ffffffffffffffffffffffffffffffffffffffff160217905550505b6135f681600c60008673ffffffffffffffffffffffffffffffffffffffff1673ffffffffffffffffffffffffffffffffffffffff1681526020019081526020016000206000858152602001908152602001600020546131aa90919063ffffffff16565b600c60008573ffffffffffffffffffffffffffffffffffffffff1673ffffffffffffffffffffffffffffffffffffffff168152602001908152602001600020600084815260200190815260200160002081905550505050565b80600c60008573ffffffffffffffffffffffffffffffffffffffff1673ffffffffffffffffffffffffffffffffffffffff16815260200190815260200160002060008481526020019081526020016000205410156136e2576040517f08c379a00000000000000000000000000000000000000000000000000000000081526004016136d99061581a565b60405180910390fd5b61374581600c60008673ffffffffffffffffffffffffffffffffffffffff1673ffffffffffffffffffffffffffffffffffffffff16815260200190815260200160002060008581526020019081526020016000205461306590919063ffffffff16565b600c60008573ffffffffffffffffffffffffffffffffffffffff1673ffffffffffffffffffffffffffffffffffffffff1681526020019081526020016000206000848152602001908152602001600020819055506000600c60008573ffffffffffffffffffffffffffffffffffffffff1673ffffffffffffffffffffffffffffffffffffffff1681526020019081526020016000206000848152602001908152602001600020541415613b025760006137fe8484613f96565b90506000811015613844576040517f08c379a000000000000000000000000000000000000000000000000000000000815260040161383b906157ba565b60405180910390fd5b600a60008573ffffffffffffffffffffffffffffffffffffffff1673ffffffffffffffffffffffffffffffffffffffff1681526020019081526020016000206001600a60008773ffffffffffffffffffffffffffffffffffffffff1673ffffffffffffffffffffffffffffffffffffffff1681526020019081526020016000208054905003815481106138d357fe5b9060005260206000200154600a60008673ffffffffffffffffffffffffffffffffffffffff1673ffffffffffffffffffffffffffffffffffffffff168152602001908152602001600020828154811061392857fe5b9060005260206000200181905550600a60008573ffffffffffffffffffffffffffffffffffffffff1673ffffffffffffffffffffffffffffffffffffffff16815260200190815260200160002080548061397e57fe5b6001900381819060005260206000200160009055905560006139a08585614092565b905060008110156139e6576040517f08c379a00000000000000000000000000000000000000000000000000000000081526004016139dd9061587a565b60405180910390fd5b600b60008581526020019081526020016000206001600b6000878152602001908152602001600020805490500381548110613a1d57fe5b9060005260206000200160009054906101000a900473ffffffffffffffffffffffffffffffffffffffff16600b60008681526020019081526020016000208281548110613a6657fe5b9060005260206000200160006101000a81548173ffffffffffffffffffffffffffffffffffffffff021916908373ffffffffffffffffffffffffffffffffffffffff160217905550600b6000858152602001908152602001600020805480613aca57fe5b6001900381819060005260206000200160006101000a81549073ffffffffffffffffffffffffffffffffffffffff0219169055905550505b505050565b600073ffffffffffffffffffffffffffffffffffffffff168173ffffffffffffffffffffffffffffffffffffffff161415613b77576040517f08c379a0000000000000000000000000000000000000000000000000000000008152600401613b6e9061571a565b60405180910390fd5b8073ffffffffffffffffffffffffffffffffffffffff166000809054906101000a900473ffffffffffffffffffffffffffffffffffffffff1673ffffffffffffffffffffffffffffffffffffffff167f8be0079c531659141344cd1fd0a4f28419497f9722a3daafe3b4186f6b6457e060405160405180910390a3806000806101000a81548173ffffffffffffffffffffffffffffffffffffffff021916908373ffffffffffffffffffffffffffffffffffffffff16021790555050565b6001816000016000828254019250508190555050565b80600d60008573ffffffffffffffffffffffffffffffffffffffff1673ffffffffffffffffffffffffffffffffffffffff16815260200190815260200160002060008481526020019081526020016000205401600c60008573ffffffffffffffffffffffffffffffffffffffff1673ffffffffffffffffffffffffffffffffffffffff1681526020019081526020016000206000848152602001908152602001600020541015613d30576040517f08c379a0000000000000000000000000000000000000000000000000000000008152600401613d279061581a565b60405180910390fd5b613d9381600d60008673ffffffffffffffffffffffffffffffffffffffff1673ffffffffffffffffffffffffffffffffffffffff1681526020019081526020016000206000858152602001908152602001600020546131aa90919063ffffffff16565b600d60008573ffffffffffffffffffffffffffffffffffffffff1673ffffffffffffffffffffffffffffffffffffffff168152602001908152602001600020600084815260200190815260200160002081905550505050565b6000838311158290613e34576040517f08c379a0000000000000000000000000000000000000000000000000000000008152600401613e2b9190615698565b60405180910390fd5b5060008385039050809150509392505050565b613e5182826133b9565b15613e91576040517f08c379a0000000000000000000000000000000000000000000000000000000008152600401613e88906156da565b60405180910390fd5b60018260000160008373ffffffffffffffffffffffffffffffffffffffff1673ffffffffffffffffffffffffffffffffffffffff16815260200190815260200160002060006101000a81548160ff0219169083151502179055505050565b613ef982826133b9565b613f38576040517f08c379a0000000000000000000000000000000000000000000000000000000008152600401613f2f9061585a565b60405180910390fd5b60008260000160008373ffffffffffffffffffffffffffffffffffffffff1673ffffffffffffffffffffffffffffffffffffffff16815260200190815260200160002060006101000a81548160ff0219169083151502179055505050565b600080600a60008573ffffffffffffffffffffffffffffffffffffffff1673ffffffffffffffffffffffffffffffffffffffff16815260200190815260200160002080549050905060008090505b81811015614066576000600a60008773ffffffffffffffffffffffffffffffffffffffff1673ffffffffffffffffffffffffffffffffffffffff168152602001908152602001600020828154811061403857fe5b90600052602060002001549050808514156140585781935050505061408c565b508080600101915050613fe4565b507fffffffffffffffffffffffffffffffffffffffffffffffffffffffffffffffff9150505b92915050565b600080600b600084815260200190815260200160002080549050905060008090505b81811015614156576000600b600086815260200190815260200160002082815481106140dc57fe5b9060005260206000200160009054906101000a900473ffffffffffffffffffffffffffffffffffffffff1690508073ffffffffffffffffffffffffffffffffffffffff168673ffffffffffffffffffffffffffffffffffffffff1614156141485781935050505061417c565b5080806001019150506140b4565b507fffffffffffffffffffffffffffffffffffffffffffffffffffffffffffffffff9150505b92915050565b6040518060e001604052806000815260200160008152602001600073ffffffffffffffffffffffffffffffffffffffff1681526020016000815260200160008152602001600081526020016000151581525090565b6040518060e001604052806000815260200160008152602001600073ffffffffffffffffffffffffffffffffffffffff1681526020016000815260200160008152602001600081526020016000151581525090565b60405180606001604052806000815260200160008152602001600081525090565b60006142598235615c1a565b905092915050565b600061426d8235615c2c565b905092915050565b600082601f83011261428657600080fd5b8135614299614294826159dd565b6159b0565b915081818352602084019350602081019050838560208402820111156142be57600080fd5b60005b838110156142ee57816142d4888261424d565b8452602084019350602083019250506001810190506142c1565b5050505092915050565b600082601f83011261430957600080fd5b813561431c61431782615a05565b6159b0565b9150818183526020840193506020810190508385602084028201111561434157600080fd5b60005b83811015614371578161435788826143f7565b845260208401935060208301925050600181019050614344565b5050505092915050565b60006143878251615c3e565b905092915050565b600061439b8235615c4a565b905092915050565b600082601f8301126143b457600080fd5b81356143c76143c282615a2d565b6159b0565b915080825260208301602083018583830111156143e357600080fd5b6143ee838284615d1e565b50505092915050565b60006144038235615c96565b905092915050565b60006144178251615c96565b905092915050565b60006020828403121561443157600080fd5b600061443f8482850161424d565b91505092915050565b60006020828403121561445a57600080fd5b600061446884828501614261565b91505092915050565b600080600080600060a0868803121561448957600080fd5b60006144978882890161424d565b95505060206144a88882890161424d565b945050604086013567ffffffffffffffff8111156144c557600080fd5b6144d1888289016142f8565b935050606086013567ffffffffffffffff8111156144ee57600080fd5b6144fa888289016142f8565b925050608086013567ffffffffffffffff81111561451757600080fd5b614523888289016143a3565b9150509295509295909350565b600080600080600060a0868803121561454857600080fd5b60006145568882890161424d565b95505060206145678882890161424d565b9450506040614578888289016143f7565b9350506060614589888289016143f7565b925050608086013567ffffffffffffffff8111156145a657600080fd5b6145b2888289016143a3565b9150509295509295909350565b600080604083850312156145d257600080fd5b60006145e08582860161424d565b92505060206145f1858286016143f7565b9150509250929050565b60006020828403121561460d57600080fd5b600082013567ffffffffffffffff81111561462757600080fd5b61463384828501614275565b91505092915050565b6000806040838503121561464f57600080fd5b600083013567ffffffffffffffff81111561466957600080fd5b61467585828601614275565b925050602083013567ffffffffffffffff81111561469257600080fd5b61469e858286016142f8565b9150509250929050565b600080604083850312156146bb57600080fd5b600083013567ffffffffffffffff8111156146d557600080fd5b6146e1858286016142f8565b925050602083013567ffffffffffffffff8111156146fe57600080fd5b61470a858286016142f8565b9150509250929050565b60006020828403121561472657600080fd5b60006147348482850161437b565b91505092915050565b60006020828403121561474f57600080fd5b600061475d8482850161438f565b91505092915050565b60006020828403121561477857600080fd5b6000614786848285016143f7565b91505092915050565b6000602082840312156147a157600080fd5b60006147af8482850161440b565b91505092915050565b600080604083850312156147cb57600080fd5b60006147d9858286016143f7565b92505060206147ea858286016143f7565b9150509250929050565b60008060006060848603121561480957600080fd5b6000614817868287016143f7565b9350506020614828868287016143f7565b9250506040614839868287016143f7565b9150509250925092565b600061484f8383614a00565b905092915050565b6000614863838361526a565b60e08301905092915050565b600061487b83836152f8565b60608301905092915050565b6000614893838361533a565b60208301905092915050565b6148a881615ca0565b82525050565b6148b781615ba6565b82525050565b6148c681615ba6565b82525050565b6148d581615b94565b82525050565b60006148e682615a9a565b6148f08185615b1d565b93508360208202850161490285615a59565b60005b8481101561493b57838303885261491d838351614843565b925061492882615adc565b9150602088019750600181019050614905565b508196508694505050505092915050565b600061495782615aa5565b6149618185615b2e565b935061496c83615a66565b60005b8281101561499a57614982868351614857565b955061498d82615ae9565b915060018101905061496f565b50849250505092915050565b60006149b182615abb565b6149bb8185615b50565b93506149c683615a80565b60005b828110156149f4576149dc86835161486f565b95506149e782615b03565b91506001810190506149c9565b50849250505092915050565b6000614a0b82615ab0565b614a158185615b3f565b9350614a2083615a73565b60005b82811015614a4e57614a3686835161486f565b9550614a4182615af6565b9150600181019050614a23565b50849250505092915050565b6000614a6582615ac6565b614a6f8185615b61565b9350614a7a83615a8d565b60005b82811015614aa857614a90868351614887565b9550614a9b82615b10565b9150600181019050614a7d565b50849250505092915050565b614abd81615bb8565b82525050565b614acc81615bb8565b82525050565b614adb81615bc4565b82525050565b614aea81615cb2565b82525050565b614af981615cd6565b82525050565b6000614b0a82615ad1565b614b148185615b83565b9350614b24818560208601615d2d565b614b2d81615d60565b840191505092915050565b6000614b45601a83615b83565b91507f4e6f7420456e6f756768204465706f7369742062616c616e63650000000000006000830152602082019050919050565b6000614b85601f83615b83565b91507f526f6c65733a206163636f756e7420616c72656164792068617320726f6c65006000830152602082019050919050565b6000614bc5601c83615b83565b91507f596f75206d75737420706179206174206c656173742031204b6c6179000000006000830152602082019050919050565b6000614c05602683615b83565b91507f4f776e61626c653a206e6577206f776e657220697320746865207a65726f206160008301527f64647265737300000000000000000000000000000000000000000000000000006020830152604082019050919050565b6000614c6b601b83615b83565b91507f536166654d6174683a206164646974696f6e206f766572666c6f7700000000006000830152602082019050919050565b6000614cab602983615b83565b91507f4b495033373a2062616c616e636520717565727920666f7220746865207a657260008301527f6f206164647265737300000000000000000000000000000000000000000000006020830152604082019050919050565b6000614d11603183615b83565b91507f54686520707572636861736520707269636520616e642073616c65732070726960008301527f63652061726520646966666572656e742e0000000000000000000000000000006020830152604082019050919050565b6000614d77601883615b83565b91507f546865206c656e67746820697320646966666572656e742e00000000000000006000830152602082019050919050565b6000614db7601e83615b83565b91507f57726f6e6720496e646578285f67657455736572534654496e646578292e00006000830152602082019050919050565b6000614df7601a83615b83565b91507f54686973204d61726b65744974656d20697320636c6f7365642e0000000000006000830152602082019050919050565b6000614e37601783615b83565b91507f6d73746f6b656e207472616e73666572206661696c65640000000000000000006000830152602082019050919050565b6000614e77601a83615b83565b91507f55736572205346542042616c616e636573206973206c6573732e0000000000006000830152602082019050919050565b6000614eb7603083615b83565b91507f4d696e746572526f6c653a2063616c6c657220646f6573206e6f74206861766560008301527f20746865204d696e74657220726f6c65000000000000000000000000000000006020830152604082019050919050565b6000614f1d602183615b83565b91507f526f6c65733a206163636f756e7420646f6573206e6f74206861766520726f6c60008301527f65000000000000000000000000000000000000000000000000000000000000006020830152604082019050919050565b6000614f83601e83615b83565b91507f57726f6e6720496e646578285f67657453465455736572496e646578292e00006000830152602082019050919050565b6000614fc3602083615b83565b91507f4f776e61626c653a2063616c6c6572206973206e6f7420746865206f776e65726000830152602082019050919050565b6000615003602283615b83565b91507f526f6c65733a206163636f756e7420697320746865207a65726f20616464726560008301527f73730000000000000000000000000000000000000000000000000000000000006020830152604082019050919050565b6000615069601f83615b83565b91507f4e6f7420456e6f75676820446973747269627574696f6e2062616c616e6365006000830152602082019050919050565b60006150a9600083615b72565b9150600082019050919050565b60006150c3603a83615b83565b91507f54686520707572636861736520766f6c756d65206973206c617267657220746860008301527f616e207468652072656d61696e696e67207175616e746974792e0000000000006020830152604082019050919050565b6000615129601783615b83565b91507f4f6e6c792053656c6c65722063616e2063616e63656c2e0000000000000000006000830152602082019050919050565b6000615169601c83615b83565b91507f5072696365206d757374206265206174206c65617374203120776569000000006000830152602082019050919050565b60006151a9600c83615b83565b91507f4b6c617920746f6f206c6f7700000000000000000000000000000000000000006000830152602082019050919050565b60e0820160008201516151f2600085018261533a565b506020820151615205602085018261533a565b50604082015161521860408501826148ae565b50606082015161522b606085018261533a565b50608082015161523e608085018261533a565b5060a082015161525160a085018261533a565b5060c082015161526460c0850182614ab4565b50505050565b60e082016000820151615280600085018261533a565b506020820151615293602085018261533a565b5060408201516152a660408501826148ae565b5060608201516152b9606085018261533a565b5060808201516152cc608085018261533a565b5060a08201516152df60a085018261533a565b5060c08201516152f260c0850182614ab4565b50505050565b60608201600082015161530e600085018261533a565b506020820151615321602085018261533a565b506040820151615334604085018261533a565b50505050565b61534381615c10565b82525050565b61535281615c10565b82525050565b600060208201905061536d60008301846148cc565b92915050565b600060208201905061538860008301846148bd565b92915050565b60006040820190506153a3600083018561489f565b6153b060208301846148cc565b9392505050565b600060c0820190506153cc600083018961489f565b6153d9602083018861489f565b6153e66040830187615349565b6153f36060830186615349565b6154006080830185615349565b61540d60a0830184615349565b979650505050505050565b600060a08201905061542d600083018761489f565b61543a60208301866148cc565b6154476040830185615349565b6154546060830184615349565b81810360808301526154658161509c565b905095945050505050565b6000604082019050615485600083018561489f565b6154926020830184615349565b9392505050565b60006060820190506154ae600083018661489f565b6154bb6020830185615349565b6154c86040830184615349565b949350505050565b60006080820190506154e5600083018761489f565b6154f26020830186615349565b6154ff6040830185615349565b61550c6060830184615349565b95945050505050565b600060a08201905061552a60008301876148cc565b615537602083018661489f565b6155446040830185615349565b6155516060830184615349565b81810360808301526155628161509c565b905095945050505050565b600060608201905061558260008301866148cc565b61558f60208301856148cc565b61559c6040830184615349565b949350505050565b600060208201905081810360008301526155be81846148db565b905092915050565b600060208201905081810360008301526155e0818461494c565b905092915050565b6000602082019050818103600083015261560281846149a6565b905092915050565b600060208201905081810360008301526156248184614a5a565b905092915050565b60006020820190506156416000830184614ac3565b92915050565b600060208201905061565c6000830184614ad2565b92915050565b60006020820190506156776000830184614ae1565b92915050565b60006020820190506156926000830184614af0565b92915050565b600060208201905081810360008301526156b28184614aff565b905092915050565b600060208201905081810360008301526156d381614b38565b9050919050565b600060208201905081810360008301526156f381614b78565b9050919050565b6000602082019050818103600083015261571381614bb8565b9050919050565b6000602082019050818103600083015261573381614bf8565b9050919050565b6000602082019050818103600083015261575381614c5e565b9050919050565b6000602082019050818103600083015261577381614c9e565b9050919050565b6000602082019050818103600083015261579381614d04565b9050919050565b600060208201905081810360008301526157b381614d6a565b9050919050565b600060208201905081810360008301526157d381614daa565b9050919050565b600060208201905081810360008301526157f381614dea565b9050919050565b6000602082019050818103600083015261581381614e2a565b9050919050565b6000602082019050818103600083015261583381614e6a565b9050919050565b6000602082019050818103600083015261585381614eaa565b9050919050565b6000602082019050818103600083015261587381614f10565b9050919050565b6000602082019050818103600083015261589381614f76565b9050919050565b600060208201905081810360008301526158b381614fb6565b9050919050565b600060208201905081810360008301526158d381614ff6565b9050919050565b600060208201905081810360008301526158f38161505c565b9050919050565b60006020820190508181036000830152615913816150b6565b9050919050565b600060208201905081810360008301526159338161511c565b9050919050565b600060208201905081810360008301526159538161515c565b9050919050565b600060208201905081810360008301526159738161519c565b9050919050565b600060e08201905061598f60008301846151dc565b92915050565b60006020820190506159aa6000830184615349565b92915050565b6000604051905081810181811067ffffffffffffffff821117156159d357600080fd5b8060405250919050565b600067ffffffffffffffff8211156159f457600080fd5b602082029050602081019050919050565b600067ffffffffffffffff821115615a1c57600080fd5b602082029050602081019050919050565b600067ffffffffffffffff821115615a4457600080fd5b601f19601f8301169050602081019050919050565b6000602082019050919050565b6000602082019050919050565b6000602082019050919050565b6000602082019050919050565b6000602082019050919050565b600081519050919050565b600081519050919050565b600081519050919050565b600081519050919050565b600081519050919050565b600081519050919050565b6000602082019050919050565b6000602082019050919050565b6000602082019050919050565b6000602082019050919050565b6000602082019050919050565b600082825260208201905092915050565b600082825260208201905092915050565b600082825260208201905092915050565b600082825260208201905092915050565b600082825260208201905092915050565b600082825260208201905092915050565b600082825260208201905092915050565b6000615b9f82615bf0565b9050919050565b6000615bb182615bf0565b9050919050565b60008115159050919050565b60007fffffffff0000000000000000000000000000000000000000000000000000000082169050919050565b600073ffffffffffffffffffffffffffffffffffffffff82169050919050565b6000819050919050565b6000615c2582615c76565b9050919050565b6000615c3782615c76565b9050919050565b60008115159050919050565b60007fffffffff0000000000000000000000000000000000000000000000000000000082169050919050565b600073ffffffffffffffffffffffffffffffffffffffff82169050919050565b6000819050919050565b6000615cab82615cfa565b9050919050565b6000615cbd82615cc4565b9050919050565b6000615ccf82615bf0565b9050919050565b6000615ce182615ce8565b9050919050565b6000615cf382615bf0565b9050919050565b6000615d0582615d0c565b9050919050565b6000615d1782615bf0565b9050919050565b82818337600083830152505050565b60005b83811015615d4b578082015181840152602081019050615d30565b83811115615d5a576000848401525b50505050565b6000601f19601f830116905091905056fea265627a7a72305820e99b11183fa9cdf495ba71c8d3d4f50e4b123e69330c5c943698f5f6eddfcf496c6578706572696d656e74616cf50037",
  "linkReferences": {},
  "deployedLinkReferences": {}
}