{
  "_format": "hh-sol-artifact-1",
  "contractName": "MusicStoneService",
  "sourceName": "contracts/MusicStoneService.sol",
  "abi": [
    {
      "constant": false,
      "inputs": [
        {
          "name": "_amount",
          "type": "uint256"
        }
      ],
      "name": "withdrawalDeposit",
      "outputs": [],
      "payable": false,
      "stateMutability": "nonpayable",
      "type": "function"
    },
    {
      "constant": true,
      "inputs": [
        {
          "name": "_account",
          "type": "address"
        }
      ],
      "name": "getArtistSfts",
      "outputs": [
        {
          "name": "",
          "type": "uint256[]"
        }
      ],
      "payable": false,
      "stateMutability": "view",
      "type": "function"
    },
    {
      "constant": true,
      "inputs": [
        {
          "name": "interfaceId",
          "type": "bytes4"
        }
      ],
      "name": "supportsInterface",
      "outputs": [
        {
          "name": "",
          "type": "bool"
        }
      ],
      "payable": false,
      "stateMutability": "view",
      "type": "function"
    },
    {
      "constant": false,
      "inputs": [
        {
          "name": "_token",
          "type": "address"
        }
      ],
      "name": "setToken",
      "outputs": [],
      "payable": false,
      "stateMutability": "nonpayable",
      "type": "function"
    },
    {
      "constant": false,
      "inputs": [
        {
          "name": "_amount",
          "type": "uint256"
        }
      ],
      "name": "withdrawalDistribution",
      "outputs": [],
      "payable": false,
      "stateMutability": "nonpayable",
      "type": "function"
    },
    {
      "constant": false,
      "inputs": [
        {
          "name": "_amount",
          "type": "uint256"
        }
      ],
      "name": "sellToken",
      "outputs": [],
      "payable": true,
      "stateMutability": "payable",
      "type": "function"
    },
    {
      "constant": true,
      "inputs": [
        {
          "name": "_account",
          "type": "address"
        },
        {
          "name": "_token_id",
          "type": "uint256"
        }
      ],
      "name": "getUserSFTs",
      "outputs": [
        {
          "name": "",
          "type": "uint256"
        }
      ],
      "payable": false,
      "stateMutability": "view",
      "type": "function"
    },
    {
      "constant": true,
      "inputs": [],
      "name": "mstoken",
      "outputs": [
        {
          "name": "",
          "type": "address"
        }
      ],
      "payable": false,
      "stateMutability": "view",
      "type": "function"
    },
    {
      "constant": false,
      "inputs": [],
      "name": "withdraw",
      "outputs": [],
      "payable": true,
      "stateMutability": "payable",
      "type": "function"
    },
    {
      "constant": false,
      "inputs": [
        {
          "name": "_amount",
          "type": "uint256"
        }
      ],
      "name": "depositMSToken",
      "outputs": [],
      "payable": false,
      "stateMutability": "nonpayable",
      "type": "function"
    },
    {
      "constant": true,
      "inputs": [
        {
          "name": "_seller",
          "type": "address"
        }
      ],
      "name": "getItemsBySeller",
      "outputs": [
        {
          "components": [
            {
              "name": "itemId",
              "type": "uint256"
            },
            {
              "name": "tokenId",
              "type": "uint256"
            },
            {
              "name": "seller",
              "type": "address"
            },
            {
              "name": "unit_price",
              "type": "uint256"
            },
            {
              "name": "total_amount",
              "type": "uint256"
            },
            {
              "name": "remaining_amount",
              "type": "uint256"
            },
            {
              "name": "isOpened",
              "type": "bool"
            }
          ],
          "name": "",
          "type": "tuple[]"
        }
      ],
      "payable": false,
      "stateMutability": "view",
      "type": "function"
    },
    {
      "constant": true,
      "inputs": [],
      "name": "mssft",
      "outputs": [
        {
          "name": "",
          "type": "address"
        }
      ],
      "payable": false,
      "stateMutability": "view",
      "type": "function"
    },
    {
      "constant": false,
      "inputs": [
        {
          "name": "itemId",
          "type": "uint256"
        }
      ],
      "name": "cancelItem",
      "outputs": [],
      "payable": false,
      "stateMutability": "nonpayable",
      "type": "function"
    },
    {
      "constant": true,
      "inputs": [
        {
          "name": "marketItemId",
          "type": "uint256"
        }
      ],
      "name": "getMarketItemById",
      "outputs": [
        {
          "components": [
            {
              "name": "itemId",
              "type": "uint256"
            },
            {
              "name": "tokenId",
              "type": "uint256"
            },
            {
              "name": "seller",
              "type": "address"
            },
            {
              "name": "unit_price",
              "type": "uint256"
            },
            {
              "name": "total_amount",
              "type": "uint256"
            },
            {
              "name": "remaining_amount",
              "type": "uint256"
            },
            {
              "name": "isOpened",
              "type": "bool"
            }
          ],
          "name": "",
          "type": "tuple"
        }
      ],
      "payable": false,
      "stateMutability": "view",
      "type": "function"
    },
    {
      "constant": true,
      "inputs": [
        {
          "name": "_account",
          "type": "address[]"
        }
      ],
      "name": "getUsersAllSFTs",
      "outputs": [
        {
          "components": [
            {
              "name": "id",
              "type": "uint256"
            },
            {
              "name": "balance",
              "type": "uint256"
            },
            {
              "name": "totalSupply",
              "type": "uint256"
            }
          ],
          "name": "",
          "type": "tuple[][]"
        }
      ],
      "payable": false,
      "stateMutability": "view",
      "type": "function"
    },
    {
      "constant": false,
      "inputs": [],
      "name": "renounceOwnership",
      "outputs": [],
      "payable": false,
      "stateMutability": "nonpayable",
      "type": "function"
    },
    {
      "constant": true,
      "inputs": [],
      "name": "owner",
      "outputs": [
        {
          "name": "",
          "type": "address"
        }
      ],
      "payable": false,
      "stateMutability": "view",
      "type": "function"
    },
    {
      "constant": true,
      "inputs": [],
      "name": "isOwner",
      "outputs": [
        {
          "name": "",
          "type": "bool"
        }
      ],
      "payable": false,
      "stateMutability": "view",
      "type": "function"
    },
    {
      "constant": true,
      "inputs": [
        {
          "name": "_id",
          "type": "uint256"
        }
      ],
      "name": "totalSFTSupply",
      "outputs": [
        {
          "name": "",
          "type": "uint256"
        }
      ],
      "payable": false,
      "stateMutability": "view",
      "type": "function"
    },
    {
      "constant": true,
      "inputs": [],
      "name": "getAllowance",
      "outputs": [
        {
          "name": "",
          "type": "uint256"
        }
      ],
      "payable": false,
      "stateMutability": "view",
      "type": "function"
    },
    {
      "constant": false,
      "inputs": [
        {
          "name": "account",
          "type": "address"
        }
      ],
      "name": "addMinter",
      "outputs": [],
      "payable": false,
      "stateMutability": "nonpayable",
      "type": "function"
    },
    {
      "constant": false,
      "inputs": [],
      "name": "renounceMinter",
      "outputs": [],
      "payable": false,
      "stateMutability": "nonpayable",
      "type": "function"
    },
    {
      "constant": false,
      "inputs": [
        {
          "name": "",
          "type": "address"
        },
        {
          "name": "",
          "type": "address"
        },
        {
          "name": "",
          "type": "uint256[]"
        },
        {
          "name": "",
          "type": "uint256[]"
        },
        {
          "name": "",
          "type": "bytes"
        }
      ],
      "name": "onKIP37BatchReceived",
      "outputs": [
        {
          "name": "",
          "type": "bytes4"
        }
      ],
      "payable": false,
      "stateMutability": "nonpayable",
      "type": "function"
    },
    {
      "constant": true,
      "inputs": [],
      "name": "getUnsoldItems",
      "outputs": [
        {
          "components": [
            {
              "name": "itemId",
              "type": "uint256"
            },
            {
              "name": "tokenId",
              "type": "uint256"
            },
            {
              "name": "seller",
              "type": "address"
            },
            {
              "name": "unit_price",
              "type": "uint256"
            },
            {
              "name": "total_amount",
              "type": "uint256"
            },
            {
              "name": "remaining_amount",
              "type": "uint256"
            },
            {
              "name": "isOpened",
              "type": "bool"
            }
          ],
          "name": "",
          "type": "tuple[]"
        }
      ],
      "payable": false,
      "stateMutability": "view",
      "type": "function"
    },
    {
      "constant": false,
      "inputs": [],
      "name": "buyToken",
      "outputs": [],
      "payable": true,
      "stateMutability": "payable",
      "type": "function"
    },
    {
      "constant": true,
      "inputs": [
        {
          "name": "_address",
          "type": "address"
        }
      ],
      "name": "getUserDistribution",
      "outputs": [
        {
          "name": "",
          "type": "uint256"
        }
      ],
      "payable": false,
      "stateMutability": "view",
      "type": "function"
    },
    {
      "constant": true,
      "inputs": [
        {
          "name": "account",
          "type": "address"
        }
      ],
      "name": "isMinter",
      "outputs": [
        {
          "name": "",
          "type": "bool"
        }
      ],
      "payable": false,
      "stateMutability": "view",
      "type": "function"
    },
    {
      "constant": false,
      "inputs": [
        {
          "name": "_amount",
          "type": "uint256"
        }
      ],
      "name": "mintSFT",
      "outputs": [],
      "payable": false,
      "stateMutability": "nonpayable",
      "type": "function"
    },
    {
      "constant": false,
      "inputs": [
        {
          "name": "_address",
          "type": "address[]"
        },
        {
          "name": "_deduct_token",
          "type": "uint256[]"
        }
      ],
      "name": "deduction",
      "outputs": [],
      "payable": false,
      "stateMutability": "nonpayable",
      "type": "function"
    },
    {
      "constant": false,
      "inputs": [
        {
          "name": "_sft_token",
          "type": "uint256[]"
        },
        {
          "name": "_distribute_amount",
          "type": "uint256[]"
        }
      ],
      "name": "distribution",
      "outputs": [],
      "payable": false,
      "stateMutability": "nonpayable",
      "type": "function"
    },
    {
      "constant": true,
      "inputs": [
        {
          "name": "_address",
          "type": "address"
        }
      ],
      "name": "getUserDeposit",
      "outputs": [
        {
          "name": "",
          "type": "uint256"
        }
      ],
      "payable": false,
      "stateMutability": "view",
      "type": "function"
    },
    {
      "constant": true,
      "inputs": [
        {
          "name": "_account",
          "type": "address"
        }
      ],
      "name": "getUserAllSFTs",
      "outputs": [
        {
          "components": [
            {
              "name": "id",
              "type": "uint256"
            },
            {
              "name": "balance",
              "type": "uint256"
            },
            {
              "name": "totalSupply",
              "type": "uint256"
            }
          ],
          "name": "",
          "type": "tuple[]"
        }
      ],
      "payable": false,
      "stateMutability": "view",
      "type": "function"
    },
    {
      "constant": false,
      "inputs": [
        {
          "name": "_token",
          "type": "address"
        }
      ],
      "name": "setSFT",
      "outputs": [],
      "payable": false,
      "stateMutability": "nonpayable",
      "type": "function"
    },
    {
      "constant": true,
      "inputs": [],
      "name": "getTokenRatio",
      "outputs": [
        {
          "name": "",
          "type": "uint256"
        }
      ],
      "payable": false,
      "stateMutability": "view",
      "type": "function"
    },
    {
      "constant": false,
      "inputs": [
        {
          "name": "itemId",
          "type": "uint256"
        },
        {
          "name": "buy_amount",
          "type": "uint256"
        }
      ],
      "name": "purchaseItem",
      "outputs": [],
      "payable": true,
      "stateMutability": "payable",
      "type": "function"
    },
    {
      "constant": false,
      "inputs": [
        {
          "name": "_newTokenRatio",
          "type": "uint256"
        }
      ],
      "name": "setTokenRatio",
      "outputs": [],
      "payable": false,
      "stateMutability": "nonpayable",
      "type": "function"
    },
    {
      "constant": true,
      "inputs": [
        {
          "name": "_id",
          "type": "uint256"
        }
      ],
      "name": "getSftCreator",
      "outputs": [
        {
          "name": "",
          "type": "address"
        }
      ],
      "payable": false,
      "stateMutability": "view",
      "type": "function"
    },
    {
      "constant": false,
      "inputs": [
        {
          "name": "",
          "type": "address"
        },
        {
          "name": "",
          "type": "address"
        },
        {
          "name": "",
          "type": "uint256"
        },
        {
          "name": "",
          "type": "uint256"
        },
        {
          "name": "",
          "type": "bytes"
        }
      ],
      "name": "onKIP37Received",
      "outputs": [
        {
          "name": "",
          "type": "bytes4"
        }
      ],
      "payable": false,
      "stateMutability": "nonpayable",
      "type": "function"
    },
    {
      "constant": false,
      "inputs": [
        {
          "name": "newOwner",
          "type": "address"
        }
      ],
      "name": "transferOwnership",
      "outputs": [],
      "payable": false,
      "stateMutability": "nonpayable",
      "type": "function"
    },
    {
      "constant": false,
      "inputs": [
        {
          "name": "tokenId",
          "type": "uint256"
        },
        {
          "name": "unit_price",
          "type": "uint256"
        },
        {
          "name": "amount",
          "type": "uint256"
        }
      ],
      "name": "addItemToMarket",
      "outputs": [],
      "payable": true,
      "stateMutability": "payable",
      "type": "function"
    },
    {
      "inputs": [],
      "payable": false,
      "stateMutability": "nonpayable",
      "type": "constructor"
    },
    {
      "anonymous": false,
      "inputs": [
        {
          "indexed": true,
          "name": "itemId",
          "type": "uint256"
        },
        {
          "indexed": true,
          "name": "tokenId",
          "type": "uint256"
        },
        {
          "indexed": false,
          "name": "seller",
          "type": "address"
        },
        {
          "indexed": false,
          "name": "unit_price",
          "type": "uint256"
        },
        {
          "indexed": false,
          "name": "total_amount",
          "type": "uint256"
        },
        {
          "indexed": false,
          "name": "remaining_amount",
          "type": "uint256"
        }
      ],
      "name": "MarketItemCreated",
      "type": "event"
    },
    {
      "anonymous": false,
      "inputs": [
        {
          "indexed": true,
          "name": "itemId",
          "type": "uint256"
        },
        {
          "indexed": true,
          "name": "tokenId",
          "type": "uint256"
        },
        {
          "indexed": false,
          "name": "seller",
          "type": "address"
        },
        {
          "indexed": false,
          "name": "buyer",
          "type": "address"
        },
        {
          "indexed": false,
          "name": "unit_price",
          "type": "uint256"
        },
        {
          "indexed": false,
          "name": "total_amount",
          "type": "uint256"
        },
        {
          "indexed": false,
          "name": "buy_amount",
          "type": "uint256"
        },
        {
          "indexed": false,
          "name": "remaining_amount",
          "type": "uint256"
        }
      ],
      "name": "MarketItemSelled",
      "type": "event"
    },
    {
      "anonymous": false,
      "inputs": [
        {
          "indexed": true,
          "name": "itemId",
          "type": "uint256"
        },
        {
          "indexed": true,
          "name": "tokenId",
          "type": "uint256"
        },
        {
          "indexed": false,
          "name": "seller",
          "type": "address"
        },
        {
          "indexed": false,
          "name": "unit_price",
          "type": "uint256"
        },
        {
          "indexed": false,
          "name": "total_amount",
          "type": "uint256"
        },
        {
          "indexed": false,
          "name": "remaining_amount",
          "type": "uint256"
        }
      ],
      "name": "MarketItemCancel",
      "type": "event"
    },
    {
      "anonymous": false,
      "inputs": [
        {
          "indexed": false,
          "name": "user",
          "type": "address"
        },
        {
          "indexed": false,
          "name": "amount",
          "type": "uint256"
        }
      ],
      "name": "BuyToken",
      "type": "event"
    },
    {
      "anonymous": false,
      "inputs": [
        {
          "indexed": false,
          "name": "user",
          "type": "address"
        },
        {
          "indexed": false,
          "name": "amount",
          "type": "uint256"
        }
      ],
      "name": "SellToken",
      "type": "event"
    },
    {
      "anonymous": false,
      "inputs": [
        {
          "indexed": false,
          "name": "artist",
          "type": "address"
        },
        {
          "indexed": false,
          "name": "token_id",
          "type": "uint256"
        },
        {
          "indexed": false,
          "name": "amount",
          "type": "uint256"
        }
      ],
      "name": "SFTMinted",
      "type": "event"
    },
    {
      "anonymous": false,
      "inputs": [
        {
          "indexed": false,
          "name": "user",
          "type": "address"
        },
        {
          "indexed": false,
          "name": "amount",
          "type": "uint256"
        }
      ],
      "name": "DepositMSToken",
      "type": "event"
    },
    {
      "anonymous": false,
      "inputs": [
        {
          "indexed": false,
          "name": "user",
          "type": "address"
        },
        {
          "indexed": false,
          "name": "amount",
          "type": "uint256"
        }
      ],
      "name": "WithDrawalDepositMSToken",
      "type": "event"
    },
    {
      "anonymous": false,
      "inputs": [
        {
          "indexed": false,
          "name": "user",
          "type": "address"
        },
        {
          "indexed": false,
          "name": "amount",
          "type": "uint256"
        }
      ],
      "name": "WithDrawalDistributionMSToken",
      "type": "event"
    },
    {
      "anonymous": false,
      "inputs": [
        {
          "indexed": true,
          "name": "account",
          "type": "address"
        }
      ],
      "name": "MinterAdded",
      "type": "event"
    },
    {
      "anonymous": false,
      "inputs": [
        {
          "indexed": true,
          "name": "account",
          "type": "address"
        }
      ],
      "name": "MinterRemoved",
      "type": "event"
    },
    {
      "anonymous": false,
      "inputs": [
        {
          "indexed": true,
          "name": "previousOwner",
          "type": "address"
        },
        {
          "indexed": true,
          "name": "newOwner",
          "type": "address"
        }
      ],
      "name": "OwnershipTransferred",
      "type": "event"
    }
  ],
  "bytecode": "0x60806040526101f460055567016345785d8a00006012553480156200002357600080fd5b50336000806101000a81548173ffffffffffffffffffffffffffffffffffffffff021916908373ffffffffffffffffffffffffffffffffffffffff1602179055506000809054906101000a900473ffffffffffffffffffffffffffffffffffffffff1673ffffffffffffffffffffffffffffffffffffffff16600073ffffffffffffffffffffffffffffffffffffffff167f8be0079c531659141344cd1fd0a4f28419497f9722a3daafe3b4186f6b6457e060405160405180910390a3620000f1336200016460201b60201c565b620001096301ffc9a760e01b620001c560201b60201c565b6200015e600073ffffffffffffffffffffffffffffffffffffffff16639b49e332905060e01b600073ffffffffffffffffffffffffffffffffffffffff1663e78b3325905060e01b18620001c560201b60201c565b6200057f565b6200017f8160016200029e60201b62003ee61790919060201c565b8073ffffffffffffffffffffffffffffffffffffffff167f6ae172837ea30b801fbfcdd4108aa1d5bf8ff775444fd70256b44e6bf3dfc3f660405160405180910390a250565b63ffffffff60e01b817bffffffffffffffffffffffffffffffffffffffffffffffffffffffff1916141562000231576040517f08c379a000000000000000000000000000000000000000000000000000000000815260040162000228906200052a565b60405180910390fd5b600160026000837bffffffffffffffffffffffffffffffffffffffffffffffffffffffff19167bffffffffffffffffffffffffffffffffffffffffffffffffffffffff1916815260200190815260200160002060006101000a81548160ff02191690831515021790555050565b620002b082826200035160201b60201c565b15620002f3576040517f08c379a0000000000000000000000000000000000000000000000000000000008152600401620002ea9062000508565b60405180910390fd5b60018260000160008373ffffffffffffffffffffffffffffffffffffffff1673ffffffffffffffffffffffffffffffffffffffff16815260200190815260200160002060006101000a81548160ff0219169083151502179055505050565b60008073ffffffffffffffffffffffffffffffffffffffff168273ffffffffffffffffffffffffffffffffffffffff161415620003c5576040517f08c379a0000000000000000000000000000000000000000000000000000000008152600401620003bc906200054c565b60405180910390fd5b8260000160008373ffffffffffffffffffffffffffffffffffffffff1673ffffffffffffffffffffffffffffffffffffffff16815260200190815260200160002060009054906101000a900460ff16905092915050565b60006200042b601f836200056e565b91507f526f6c65733a206163636f756e7420616c72656164792068617320726f6c65006000830152602082019050919050565b60006200046d601b836200056e565b91507f4b495031333a20696e76616c696420696e7465726661636520696400000000006000830152602082019050919050565b6000620004af6022836200056e565b91507f526f6c65733a206163636f756e7420697320746865207a65726f20616464726560008301527f73730000000000000000000000000000000000000000000000000000000000006020830152604082019050919050565b6000602082019050818103600083015262000523816200041c565b9050919050565b6000602082019050818103600083015262000545816200045e565b9050919050565b600060208201905081810360008301526200056781620004a0565b9050919050565b600082825260208201905092915050565b615dea806200058f6000396000f3fe6080604052600436106102395760003560e01c8063983b2d561161012e578063c084b10b116100ab578063e38e91f91161006f578063e38e91f91461085b578063e668302a14610884578063e78b3325146108c1578063f2fde38b146108fe578063f7d20a231461092757610239565b8063c084b10b14610771578063c0d37752146107ae578063c37176b9146107eb578063d8a4bfe114610814578063e06756981461083f57610239565b8063a55b748e116100f2578063a55b748e1461067c578063aa271e1a146106b9578063ac104f90146106f6578063ae1a18811461071f578063b9058c7e1461074857610239565b8063983b2d56146105ca57806398650275146105f35780639b49e3321461060a5780639b8bc12714610647578063a48217191461067257610239565b806349bf3efb116101bc578063715018a611610180578063715018a6146104f55780638da5cb5b1461050c5780638f32d59b146105375780638f87ce1214610562578063973e9b8b1461059f57610239565b806349bf3efb146103ea5780634e71f8dc1461042757806351563f8e1461045257806353dbceb11461047b578063584b8e64146104b857610239565b80632397e4d7116102035780632397e4d714610333578063315543e81461034f57806338f5ba2f1461038c5780633ccfd60b146103b757806341038aa4146103c157610239565b8062992a4b1461023e578062e3c6c81461026757806301ffc9a7146102a4578063144fa6d7146102e1578063226d15561461030a575b600080fd5b34801561024a57600080fd5b5061026560048036036102609190810190614805565b610943565b005b34801561027357600080fd5b5061028e600480360361028991908101906144be565b610b25565b60405161029b9190615669565b60405180910390f35b3480156102b057600080fd5b506102cb60048036036102c691908101906147dc565b610c2c565b6040516102d8919061568b565b60405180910390f35b3480156102ed57600080fd5b50610308600480360361030391908101906144be565b610c94565b005b34801561031657600080fd5b50610331600480360361032c9190810190614805565b610d1f565b005b61034d60048036036103489190810190614805565b610f01565b005b34801561035b57600080fd5b506103766004803603610371919081019061465e565b611075565b60405161038391906159d4565b60405180910390f35b34801561039857600080fd5b506103a16110d0565b6040516103ae91906156dc565b60405180910390f35b6103bf6110f6565b005b3480156103cd57600080fd5b506103e860048036036103e39190810190614805565b611194565b005b3480156103f657600080fd5b50610411600480360361040c91908101906144be565b611317565b60405161041e9190615625565b60405180910390f35b34801561043357600080fd5b5061043c611589565b60405161044991906156c1565b60405180910390f35b34801561045e57600080fd5b5061047960048036036104749190810190614805565b6115af565b005b34801561048757600080fd5b506104a2600480360361049d9190810190614805565b6117f2565b6040516104af91906159b9565b60405180910390f35b3480156104c457600080fd5b506104df60048036036104da919081019061469a565b6118ce565b6040516104ec9190615603565b60405180910390f35b34801561050157600080fd5b5061050a611bdd565b005b34801561051857600080fd5b50610521611ce3565b60405161052e91906153d2565b60405180910390f35b34801561054357600080fd5b5061054c611d0c565b604051610559919061568b565b60405180910390f35b34801561056e57600080fd5b5061058960048036036105849190810190614805565b611d63565b60405161059691906159d4565b60405180910390f35b3480156105ab57600080fd5b506105b4611d80565b6040516105c191906159d4565b60405180910390f35b3480156105d657600080fd5b506105f160048036036105ec91908101906144be565b611e3b565b005b3480156105ff57600080fd5b50610608611e8f565b005b34801561061657600080fd5b50610631600480360361062c9190810190614510565b611e9a565b60405161063e91906156a6565b60405180910390f35b34801561065357600080fd5b5061065c611eaf565b6040516106699190615625565b60405180910390f35b61067a612062565b005b34801561068857600080fd5b506106a3600480360361069e91908101906144be565b61219a565b6040516106b091906159d4565b60405180910390f35b3480156106c557600080fd5b506106e060048036036106db91908101906144be565b6121e3565b6040516106ed919061568b565b60405180910390f35b34801561070257600080fd5b5061071d60048036036107189190810190614805565b612200565b005b34801561072b57600080fd5b50610746600480360361074191908101906146db565b6124bd565b005b34801561075457600080fd5b5061076f600480360361076a9190810190614747565b6125fb565b005b34801561077d57600080fd5b50610798600480360361079391908101906144be565b61287f565b6040516107a591906159d4565b60405180910390f35b3480156107ba57600080fd5b506107d560048036036107d091908101906144be565b6128c8565b6040516107e29190615647565b60405180910390f35b3480156107f757600080fd5b50610812600480360361080d91908101906144be565b612a7f565b005b34801561082057600080fd5b50610829612b0a565b60405161083691906159d4565b60405180910390f35b61085960048036036108549190810190614857565b612b14565b005b34801561086757600080fd5b50610882600480360361087d9190810190614805565b612ed0565b005b34801561089057600080fd5b506108ab60048036036108a69190810190614805565b612f21565b6040516108b891906153b7565b60405180910390f35b3480156108cd57600080fd5b506108e860048036036108e391908101906145cf565b612f5e565b6040516108f591906156a6565b60405180910390f35b34801561090a57600080fd5b50610925600480360361092091908101906144e7565b612f73565b005b610941600480360361093c9190810190614893565b612fc6565b005b80600860003373ffffffffffffffffffffffffffffffffffffffff1673ffffffffffffffffffffffffffffffffffffffff1681526020019081526020016000205410156109c5576040517f08c379a00000000000000000000000000000000000000000000000000000000081526004016109bc90615719565b60405180910390fd5b610a1781600860003373ffffffffffffffffffffffffffffffffffffffff1673ffffffffffffffffffffffffffffffffffffffff168152602001908152602001600020546131ff90919063ffffffff16565b600860003373ffffffffffffffffffffffffffffffffffffffff1673ffffffffffffffffffffffffffffffffffffffff16815260200190815260200160002081905550600660009054906101000a900473ffffffffffffffffffffffffffffffffffffffff1673ffffffffffffffffffffffffffffffffffffffff1663423f6cef33836040518363ffffffff1660e01b8152600401610ab7929190615506565b600060405180830381600087803b158015610ad157600080fd5b505af1158015610ae5573d6000803e3d6000fd5b505050507fa12ff442cb4f848e9f25aaffc7b8f993d50d7bced7aed7153cda8f6dcc37c6cd3382604051610b1a929190615506565b60405180910390a150565b6060600073ffffffffffffffffffffffffffffffffffffffff168273ffffffffffffffffffffffffffffffffffffffff161415610b97576040517f08c379a0000000000000000000000000000000000000000000000000000000008152600401610b8e906157b9565b60405180910390fd5b600e60008373ffffffffffffffffffffffffffffffffffffffff1673ffffffffffffffffffffffffffffffffffffffff168152602001908152602001600020805480602002602001604051908101604052809291908181526020018280548015610c2057602002820191906000526020600020905b815481526020019060010190808311610c0c575b50505050509050919050565b600060026000837bffffffffffffffffffffffffffffffffffffffffffffffffffffffff19167bffffffffffffffffffffffffffffffffffffffffffffffffffffffff1916815260200190815260200160002060009054906101000a900460ff169050919050565b610c9c611d0c565b610cdb576040517f08c379a0000000000000000000000000000000000000000000000000000000008152600401610cd2906158d9565b60405180910390fd5b80600660006101000a81548173ffffffffffffffffffffffffffffffffffffffff021916908373ffffffffffffffffffffffffffffffffffffffff16021790555050565b80600960003373ffffffffffffffffffffffffffffffffffffffff1673ffffffffffffffffffffffffffffffffffffffff168152602001908152602001600020541015610da1576040517f08c379a0000000000000000000000000000000000000000000000000000000008152600401610d9890615919565b60405180910390fd5b610df381600960003373ffffffffffffffffffffffffffffffffffffffff1673ffffffffffffffffffffffffffffffffffffffff168152602001908152602001600020546131ff90919063ffffffff16565b600960003373ffffffffffffffffffffffffffffffffffffffff1673ffffffffffffffffffffffffffffffffffffffff16815260200190815260200160002081905550600660009054906101000a900473ffffffffffffffffffffffffffffffffffffffff1673ffffffffffffffffffffffffffffffffffffffff1663423f6cef33836040518363ffffffff1660e01b8152600401610e93929190615506565b600060405180830381600087803b158015610ead57600080fd5b505af1158015610ec1573d6000803e3d6000fd5b505050507ffbddb6b83f56ca2cf6f4832ce1f6ae9976dc080046a10f1b262c13b418a93d1a3382604051610ef6929190615506565b60405180910390a150565b60006005548281610f0e57fe5b049050803073ffffffffffffffffffffffffffffffffffffffff16311015610f6b576040517f08c379a0000000000000000000000000000000000000000000000000000000008152600401610f6290615999565b60405180910390fd5b600660009054906101000a900473ffffffffffffffffffffffffffffffffffffffff1673ffffffffffffffffffffffffffffffffffffffff166379cc679033846040518363ffffffff1660e01b8152600401610fc8929190615506565b600060405180830381600087803b158015610fe257600080fd5b505af1158015610ff6573d6000803e3d6000fd5b505050503373ffffffffffffffffffffffffffffffffffffffff166108fc829081150290604051600060405180830381858888f1935050505061103857600080fd5b7ff567b51b9deaa2fa38dd169801137cdc7532865d1e82192be079971d61e3ce863383604051611069929190615506565b60405180910390a15050565b6000600c60008473ffffffffffffffffffffffffffffffffffffffff1673ffffffffffffffffffffffffffffffffffffffff168152602001908152602001600020600083815260200190815260200160002054905092915050565b600660009054906101000a900473ffffffffffffffffffffffffffffffffffffffff1681565b6110fe611d0c565b61113d576040517f08c379a0000000000000000000000000000000000000000000000000000000008152600401611134906158d9565b60405180910390fd5b3373ffffffffffffffffffffffffffffffffffffffff166108fc3073ffffffffffffffffffffffffffffffffffffffff16319081150290604051600060405180830381858888f1935050505061119257600080fd5b565b600660009054906101000a900473ffffffffffffffffffffffffffffffffffffffff1673ffffffffffffffffffffffffffffffffffffffff166323b872dd3330846040518463ffffffff1660e01b81526004016111f393929190615477565b602060405180830381600087803b15801561120d57600080fd5b505af1158015611221573d6000803e3d6000fd5b505050506040513d601f19601f8201168201806040525061124591908101906147b3565b5061129881600860003373ffffffffffffffffffffffffffffffffffffffff1673ffffffffffffffffffffffffffffffffffffffff1681526020019081526020016000205461324990919063ffffffff16565b600860003373ffffffffffffffffffffffffffffffffffffffff1673ffffffffffffffffffffffffffffffffffffffff168152602001908152602001600020819055507f1de446d6892438294bad2644da47b63af5a95c2c031e41ded6b533807a11ce1c338260405161130c929190615506565b60405180910390a150565b60606000611325600361329e565b90506000809050600080905060008090505b838110156113c0578573ffffffffffffffffffffffffffffffffffffffff166011600060018401815260200190815260200160002060020160009054906101000a900473ffffffffffffffffffffffffffffffffffffffff1673ffffffffffffffffffffffffffffffffffffffff1614156113b3576001830192505b8080600101915050611337565b506060826040519080825280602002602001820160405280156113fd57816020015b6113ea614221565b8152602001906001900390816113e25790505b50905060008090505b8481101561157c578673ffffffffffffffffffffffffffffffffffffffff166011600060018401815260200190815260200160002060020160009054906101000a900473ffffffffffffffffffffffffffffffffffffffff1673ffffffffffffffffffffffffffffffffffffffff16141561156f57600060018201905061148b614276565b601160008381526020019081526020016000206040518060e001604052908160008201548152602001600182015481526020016002820160009054906101000a900473ffffffffffffffffffffffffffffffffffffffff1673ffffffffffffffffffffffffffffffffffffffff1673ffffffffffffffffffffffffffffffffffffffff1681526020016003820154815260200160048201548152602001600582015481526020016006820160009054906101000a900460ff16151515158152505090508084868151811061155b57fe5b602002602001018190525060018501945050505b8080600101915050611406565b5080945050505050919050565b600760009054906101000a900473ffffffffffffffffffffffffffffffffffffffff1681565b60006011600083815260200190815260200160002060020160009054906101000a900473ffffffffffffffffffffffffffffffffffffffff1690506000601160008481526020019081526020016000206001015490506000601160008581526020019081526020016000206005015490503373ffffffffffffffffffffffffffffffffffffffff168373ffffffffffffffffffffffffffffffffffffffff161461168e576040517f08c379a000000000000000000000000000000000000000000000000000000000815260040161168590615959565b60405180910390fd5b600760009054906101000a900473ffffffffffffffffffffffffffffffffffffffff1673ffffffffffffffffffffffffffffffffffffffff1663f242432a303385856040518563ffffffff1660e01b81526004016116ef94939291906155ab565b600060405180830381600087803b15801561170957600080fd5b505af115801561171d573d6000803e3d6000fd5b5050505061172a846132ac565b6117353383836132e8565b81847fbd38f4b052b02b12cfef3a49a5a317df92360c746c95f08e9eead3f017d21baa6011600088815260200190815260200160002060020160009054906101000a900473ffffffffffffffffffffffffffffffffffffffff166011600089815260200190815260200160002060030154601160008a815260200190815260200160002060040154601160008b8152602001908152602001600020600501546040516117e49493929190615566565b60405180910390a350505050565b6117fa614276565b611802614276565b601160008481526020019081526020016000206040518060e001604052908160008201548152602001600182015481526020016002820160009054906101000a900473ffffffffffffffffffffffffffffffffffffffff1673ffffffffffffffffffffffffffffffffffffffff1673ffffffffffffffffffffffffffffffffffffffff1681526020016003820154815260200160048201548152602001600582015481526020016006820160009054906101000a900460ff161515151581525050905080915050919050565b606060008251905060608160405190808252806020026020018201604052801561190c57816020015b60608152602001906001900390816118f75790505b50905060008090505b828110156119d7576000600a600087848151811061192f57fe5b602002602001015173ffffffffffffffffffffffffffffffffffffffff1673ffffffffffffffffffffffffffffffffffffffff168152602001908152602001600020805490509050806040519080825280602002602001820160405280156119b157816020015b61199e6142cb565b8152602001906001900390816119965790505b508383815181106119be57fe5b6020026020010181905250508080600101915050611915565b5060008090505b82811015611bd2576000600a60008784815181106119f857fe5b602002602001015173ffffffffffffffffffffffffffffffffffffffff1673ffffffffffffffffffffffffffffffffffffffff16815260200190815260200160002080549050905060008090505b81811015611bc3576000600a6000898681518110611a6057fe5b602002602001015173ffffffffffffffffffffffffffffffffffffffff1673ffffffffffffffffffffffffffffffffffffffff1681526020019081526020016000208281548110611aad57fe5b9060005260206000200154905080858581518110611ac757fe5b60200260200101518381518110611ada57fe5b60200260200101516000018181525050600c6000898681518110611afa57fe5b602002602001015173ffffffffffffffffffffffffffffffffffffffff1673ffffffffffffffffffffffffffffffffffffffff168152602001908152602001600020600082815260200190815260200160002054858581518110611b5a57fe5b60200260200101518381518110611b6d57fe5b60200260200101516020018181525050611b8681611d63565b858581518110611b9257fe5b60200260200101518381518110611ba557fe5b60200260200101516040018181525050508080600101915050611a46565b505080806001019150506119de565b508092505050919050565b611be5611d0c565b611c24576040517f08c379a0000000000000000000000000000000000000000000000000000000008152600401611c1b906158d9565b60405180910390fd5b600073ffffffffffffffffffffffffffffffffffffffff166000809054906101000a900473ffffffffffffffffffffffffffffffffffffffff1673ffffffffffffffffffffffffffffffffffffffff167f8be0079c531659141344cd1fd0a4f28419497f9722a3daafe3b4186f6b6457e060405160405180910390a360008060006101000a81548173ffffffffffffffffffffffffffffffffffffffff021916908373ffffffffffffffffffffffffffffffffffffffff160217905550565b60008060009054906101000a900473ffffffffffffffffffffffffffffffffffffffff16905090565b60008060009054906101000a900473ffffffffffffffffffffffffffffffffffffffff1673ffffffffffffffffffffffffffffffffffffffff163373ffffffffffffffffffffffffffffffffffffffff1614905090565b600060106000838152602001908152602001600020549050919050565b6000600660009054906101000a900473ffffffffffffffffffffffffffffffffffffffff1673ffffffffffffffffffffffffffffffffffffffff1663dd62ed3e611dc8611ce3565b306040518363ffffffff1660e01b8152600401611de69291906153ed565b60206040518083038186803b158015611dfe57600080fd5b505afa158015611e12573d6000803e3d6000fd5b505050506040513d601f19601f82011682018060405250611e36919081019061482e565b905090565b611e44336121e3565b611e83576040517f08c379a0000000000000000000000000000000000000000000000000000000008152600401611e7a90615879565b60405180910390fd5b611e8c816133a4565b50565b611e98336133fe565b565b6000639b49e33260e01b905095945050505050565b60606000611ebd600361329e565b90506000611ecb600461329e565b611ed5600361329e565b0390506000809050606082604051908082528060200260200182016040528015611f1957816020015b611f06614221565b815260200190600190039081611efe5790505b50905060008090505b84811015612057576011600060018301815260200190815260200160002060060160009054906101000a900460ff161561204a576000600182019050611f66614276565b601160008381526020019081526020016000206040518060e001604052908160008201548152602001600182015481526020016002820160009054906101000a900473ffffffffffffffffffffffffffffffffffffffff1673ffffffffffffffffffffffffffffffffffffffff1673ffffffffffffffffffffffffffffffffffffffff1681526020016003820154815260200160048201548152602001600582015481526020016006820160009054906101000a900460ff16151515158152505090508084868151811061203657fe5b602002602001018190525060018501945050505b8080600101915050611f22565b508094505050505090565b600060055434029050600034116120ae576040517f08c379a00000000000000000000000000000000000000000000000000000000081526004016120a590615759565b60405180910390fd5b600660009054906101000a900473ffffffffffffffffffffffffffffffffffffffff1673ffffffffffffffffffffffffffffffffffffffff166340c10f1933836040518363ffffffff1660e01b815260040161210b929190615506565b602060405180830381600087803b15801561212557600080fd5b505af1158015612139573d6000803e3d6000fd5b505050506040513d601f19601f8201168201806040525061215d91908101906147b3565b507fdd06b66c3ba8126086cd863137d6f3b86ce5bcf4309cac390cc265e39194d0b2338260405161218f929190615506565b60405180910390a150565b6000600960008373ffffffffffffffffffffffffffffffffffffffff1673ffffffffffffffffffffffffffffffffffffffff168152602001908152602001600020549050919050565b60006121f982600161345890919063ffffffff16565b9050919050565b612209336121e3565b612248576040517f08c379a000000000000000000000000000000000000000000000000000000000815260040161223f90615879565b60405180910390fd5b600760009054906101000a900473ffffffffffffffffffffffffffffffffffffffff1673ffffffffffffffffffffffffffffffffffffffff166374c1832033836040518363ffffffff1660e01b81526004016122a5929190615506565b600060405180830381600087803b1580156122bf57600080fd5b505af11580156122d3573d6000803e3d6000fd5b505050506000600760009054906101000a900473ffffffffffffffffffffffffffffffffffffffff1673ffffffffffffffffffffffffffffffffffffffff16635b456a706040518163ffffffff1660e01b815260040160206040518083038186803b15801561234157600080fd5b505afa158015612355573d6000803e3d6000fd5b505050506040513d601f19601f82011682018060405250612379919081019061482e565b9050600e60003373ffffffffffffffffffffffffffffffffffffffff1673ffffffffffffffffffffffffffffffffffffffff16815260200190815260200160002081908060018154018082558091505090600182039060005260206000200160009091929091909150555033600f600083815260200190815260200160002060006101000a81548173ffffffffffffffffffffffffffffffffffffffff021916908373ffffffffffffffffffffffffffffffffffffffff16021790555061245c82601060008481526020019081526020016000205461324990919063ffffffff16565b601060008381526020019081526020016000208190555061247e338284613520565b7f90f5c1381448d304f76fba02baa9ed60eb8fa8a8c906da284fbe131dac50eba23382846040516124b19392919061552f565b60405180910390a15050565b60008251905060008251905080821461250b576040517f08c379a0000000000000000000000000000000000000000000000000000000008152600401612502906157f9565b60405180910390fd5b60008090505b828110156125f45761259184828151811061252857fe5b60200260200101516008600088858151811061254057fe5b602002602001015173ffffffffffffffffffffffffffffffffffffffff1673ffffffffffffffffffffffffffffffffffffffff168152602001908152602001600020546131ff90919063ffffffff16565b600860008784815181106125a157fe5b602002602001015173ffffffffffffffffffffffffffffffffffffffff1673ffffffffffffffffffffffffffffffffffffffff168152602001908152602001600020819055508080600101915050612511565b5050505050565b600082519050600082519050808214612649576040517f08c379a0000000000000000000000000000000000000000000000000000000008152600401612640906157f9565b60405180910390fd5b60008090505b8281101561287857600085828151811061266557fe5b602002602001015190506060600b600083815260200190815260200160002080548060200260200160405190810160405280929190818152602001828054801561270457602002820191906000526020600020905b8160009054906101000a900473ffffffffffffffffffffffffffffffffffffffff1673ffffffffffffffffffffffffffffffffffffffff16815260200190600101908083116126ba575b5050505050905060006010600084815260200190815260200160002054905060008090505b825181101561286757600083828151811061274057fe5b602002602001015190506000600c60008373ffffffffffffffffffffffffffffffffffffffff1673ffffffffffffffffffffffffffffffffffffffff1681526020019081526020016000206000878152602001908152602001600020549050600084828c8a815181106127af57fe5b602002602001015102816127bf57fe5b04905061281481600960008673ffffffffffffffffffffffffffffffffffffffff1673ffffffffffffffffffffffffffffffffffffffff1681526020019081526020016000205461324990919063ffffffff16565b600960008573ffffffffffffffffffffffffffffffffffffffff1673ffffffffffffffffffffffffffffffffffffffff168152602001908152602001600020819055505050508080600101915050612729565b50505050808060010191505061264f565b5050505050565b6000600860008373ffffffffffffffffffffffffffffffffffffffff1673ffffffffffffffffffffffffffffffffffffffff168152602001908152602001600020549050919050565b60606000600a60008473ffffffffffffffffffffffffffffffffffffffff1673ffffffffffffffffffffffffffffffffffffffff16815260200190815260200160002080549050905060608160405190808252806020026020018201604052801561294d57816020015b61293a6142cb565b8152602001906001900390816129325790505b50905060008090505b82811015612a74576000600a60008773ffffffffffffffffffffffffffffffffffffffff1673ffffffffffffffffffffffffffffffffffffffff16815260200190815260200160002082815481106129aa57fe5b90600052602060002001549050808383815181106129c457fe5b60200260200101516000018181525050600c60008773ffffffffffffffffffffffffffffffffffffffff1673ffffffffffffffffffffffffffffffffffffffff168152602001908152602001600020600082815260200190815260200160002054838381518110612a3157fe5b60200260200101516020018181525050612a4a81611d63565b838381518110612a5657fe5b60200260200101516040018181525050508080600101915050612956565b508092505050919050565b612a87611d0c565b612ac6576040517f08c379a0000000000000000000000000000000000000000000000000000000008152600401612abd906158d9565b60405180910390fd5b80600760006101000a81548173ffffffffffffffffffffffffffffffffffffffff021916908373ffffffffffffffffffffffffffffffffffffffff16021790555050565b6000600554905090565b60006011600084815260200190815260200160002060060160009054906101000a900460ff1690506001151581151514612b83576040517f08c379a0000000000000000000000000000000000000000000000000000000008152600401612b7a90615839565b60405180910390fd5b60006011600085815260200190815260200160002060010154905060006011600086815260200190815260200160002060030154905060006011600087815260200190815260200160002060050154905084811015612c17576040517f08c379a0000000000000000000000000000000000000000000000000000000008152600401612c0e90615939565b60405180910390fd5b8482023414612c5b576040517f08c379a0000000000000000000000000000000000000000000000000000000008152600401612c52906157d9565b60405180910390fd5b6011600087815260200190815260200160002060020160009054906101000a900473ffffffffffffffffffffffffffffffffffffffff1673ffffffffffffffffffffffffffffffffffffffff166108fc349081150290604051600060405180830381858888f19350505050158015612cd7573d6000803e3d6000fd5b50612d018560116000898152602001908152602001600020600501546131ff90919063ffffffff16565b6011600088815260200190815260200160002060050181905550600060116000888152602001908152602001600020600501541415612d4457612d43866132ac565b5b612d856011600088815260200190815260200160002060020160009054906101000a900473ffffffffffffffffffffffffffffffffffffffff1684876136ee565b612d90338487613520565b600760009054906101000a900473ffffffffffffffffffffffffffffffffffffffff1673ffffffffffffffffffffffffffffffffffffffff1663f242432a303386896040518563ffffffff1660e01b8152600401612df194939291906155ab565b600060405180830381600087803b158015612e0b57600080fd5b505af1158015612e1f573d6000803e3d6000fd5b5050505082867f600918f9eafb4d7ea2306fe40426faf0301ad83352c5dc1a74978e5ae36345b6601160008a815260200190815260200160002060020160009054906101000a900473ffffffffffffffffffffffffffffffffffffffff163386601160008d8152602001908152602001600020600401548b601160008f815260200190815260200160002060050154604051612ec096959493929190615416565b60405180910390a3505050505050565b612ed8611d0c565b612f17576040517f08c379a0000000000000000000000000000000000000000000000000000000008152600401612f0e906158d9565b60405180910390fd5b8060058190555050565b6000600f600083815260200190815260200160002060009054906101000a900473ffffffffffffffffffffffffffffffffffffffff169050919050565b600063e78b332560e01b905095945050505050565b612f7b611d0c565b612fba576040517f08c379a0000000000000000000000000000000000000000000000000000000008152600401612fb1906158d9565b60405180910390fd5b612fc381613ba6565b50565b60008211613009576040517f08c379a000000000000000000000000000000000000000000000000000000000815260040161300090615979565b60405180910390fd5b6130136003613cd4565b600061301f600361329e565b90506040518060e001604052808281526020018581526020013373ffffffffffffffffffffffffffffffffffffffff1681526020018481526020018381526020018381526020016001151581525060116000838152602001908152602001600020600082015181600001556020820151816001015560408201518160020160006101000a81548173ffffffffffffffffffffffffffffffffffffffff021916908373ffffffffffffffffffffffffffffffffffffffff160217905550606082015181600301556080820151816004015560a0820151816005015560c08201518160060160006101000a81548160ff021916908315150217905550905050600760009054906101000a900473ffffffffffffffffffffffffffffffffffffffff1673ffffffffffffffffffffffffffffffffffffffff1663f242432a333087866040518563ffffffff1660e01b815260040161317d94939291906154ae565b600060405180830381600087803b15801561319757600080fd5b505af11580156131ab573d6000803e3d6000fd5b505050506131ba338584613cea565b83817f57fb6a47e970e71c47b9023fb3c64b4a6916a36ddb11d2531591a07afaddd006338686876040516131f19493929190615566565b60405180910390a350505050565b600061324183836040518060400160405280601e81526020017f536166654d6174683a207375627472616374696f6e206f766572666c6f770000815250613e8b565b905092915050565b600080828401905083811015613294576040517f08c379a000000000000000000000000000000000000000000000000000000000815260040161328b90615799565b60405180910390fd5b8091505092915050565b600081600001549050919050565b6132b66004613cd4565b60006011600083815260200190815260200160002060060160006101000a81548160ff02191690831515021790555050565b61334b81600d60008673ffffffffffffffffffffffffffffffffffffffff1673ffffffffffffffffffffffffffffffffffffffff1681526020019081526020016000206000858152602001908152602001600020546131ff90919063ffffffff16565b600d60008573ffffffffffffffffffffffffffffffffffffffff1673ffffffffffffffffffffffffffffffffffffffff168152602001908152602001600020600084815260200190815260200160002081905550505050565b6133b8816001613ee690919063ffffffff16565b8073ffffffffffffffffffffffffffffffffffffffff167f6ae172837ea30b801fbfcdd4108aa1d5bf8ff775444fd70256b44e6bf3dfc3f660405160405180910390a250565b613412816001613f8e90919063ffffffff16565b8073ffffffffffffffffffffffffffffffffffffffff167fe94479a9f7e1952cc78f2d6baab678adc1b772d936c6583def489e524cb6669260405160405180910390a250565b60008073ffffffffffffffffffffffffffffffffffffffff168273ffffffffffffffffffffffffffffffffffffffff1614156134c9576040517f08c379a00000000000000000000000000000000000000000000000000000000081526004016134c0906158f9565b60405180910390fd5b8260000160008373ffffffffffffffffffffffffffffffffffffffff1673ffffffffffffffffffffffffffffffffffffffff16815260200190815260200160002060009054906101000a900460ff16905092915050565b7fffffffffffffffffffffffffffffffffffffffffffffffffffffffffffffffff61354b8484614035565b141561363257600a60008473ffffffffffffffffffffffffffffffffffffffff1673ffffffffffffffffffffffffffffffffffffffff168152602001908152602001600020829080600181540180825580915050906001820390600052602060002001600090919290919091505550600b60008381526020019081526020016000208390806001815401808255809150509060018203906000526020600020016000909192909190916101000a81548173ffffffffffffffffffffffffffffffffffffffff021916908373ffffffffffffffffffffffffffffffffffffffff160217905550505b61369581600c60008673ffffffffffffffffffffffffffffffffffffffff1673ffffffffffffffffffffffffffffffffffffffff16815260200190815260200160002060008581526020019081526020016000205461324990919063ffffffff16565b600c60008573ffffffffffffffffffffffffffffffffffffffff1673ffffffffffffffffffffffffffffffffffffffff168152602001908152602001600020600084815260200190815260200160002081905550505050565b80600c60008573ffffffffffffffffffffffffffffffffffffffff1673ffffffffffffffffffffffffffffffffffffffff1681526020019081526020016000206000848152602001908152602001600020541015613781576040517f08c379a000000000000000000000000000000000000000000000000000000000815260040161377890615859565b60405180910390fd5b6137e481600c60008673ffffffffffffffffffffffffffffffffffffffff1673ffffffffffffffffffffffffffffffffffffffff1681526020019081526020016000206000858152602001908152602001600020546131ff90919063ffffffff16565b600c60008573ffffffffffffffffffffffffffffffffffffffff1673ffffffffffffffffffffffffffffffffffffffff1681526020019081526020016000206000848152602001908152602001600020819055506000600c60008573ffffffffffffffffffffffffffffffffffffffff1673ffffffffffffffffffffffffffffffffffffffff1681526020019081526020016000206000848152602001908152602001600020541415613ba157600061389d8484614035565b905060008110156138e3576040517f08c379a00000000000000000000000000000000000000000000000000000000081526004016138da90615819565b60405180910390fd5b600a60008573ffffffffffffffffffffffffffffffffffffffff1673ffffffffffffffffffffffffffffffffffffffff1681526020019081526020016000206001600a60008773ffffffffffffffffffffffffffffffffffffffff1673ffffffffffffffffffffffffffffffffffffffff16815260200190815260200160002080549050038154811061397257fe5b9060005260206000200154600a60008673ffffffffffffffffffffffffffffffffffffffff1673ffffffffffffffffffffffffffffffffffffffff16815260200190815260200160002082815481106139c757fe5b9060005260206000200181905550600a60008573ffffffffffffffffffffffffffffffffffffffff1673ffffffffffffffffffffffffffffffffffffffff168152602001908152602001600020805480613a1d57fe5b600190038181906000526020600020016000905590556000613a3f8585614131565b90506000811015613a85576040517f08c379a0000000000000000000000000000000000000000000000000000000008152600401613a7c906158b9565b60405180910390fd5b600b60008581526020019081526020016000206001600b6000878152602001908152602001600020805490500381548110613abc57fe5b9060005260206000200160009054906101000a900473ffffffffffffffffffffffffffffffffffffffff16600b60008681526020019081526020016000208281548110613b0557fe5b9060005260206000200160006101000a81548173ffffffffffffffffffffffffffffffffffffffff021916908373ffffffffffffffffffffffffffffffffffffffff160217905550600b6000858152602001908152602001600020805480613b6957fe5b6001900381819060005260206000200160006101000a81549073ffffffffffffffffffffffffffffffffffffffff0219169055905550505b505050565b600073ffffffffffffffffffffffffffffffffffffffff168173ffffffffffffffffffffffffffffffffffffffff161415613c16576040517f08c379a0000000000000000000000000000000000000000000000000000000008152600401613c0d90615779565b60405180910390fd5b8073ffffffffffffffffffffffffffffffffffffffff166000809054906101000a900473ffffffffffffffffffffffffffffffffffffffff1673ffffffffffffffffffffffffffffffffffffffff167f8be0079c531659141344cd1fd0a4f28419497f9722a3daafe3b4186f6b6457e060405160405180910390a3806000806101000a81548173ffffffffffffffffffffffffffffffffffffffff021916908373ffffffffffffffffffffffffffffffffffffffff16021790555050565b6001816000016000828254019250508190555050565b80600d60008573ffffffffffffffffffffffffffffffffffffffff1673ffffffffffffffffffffffffffffffffffffffff16815260200190815260200160002060008481526020019081526020016000205401600c60008573ffffffffffffffffffffffffffffffffffffffff1673ffffffffffffffffffffffffffffffffffffffff1681526020019081526020016000206000848152602001908152602001600020541015613dcf576040517f08c379a0000000000000000000000000000000000000000000000000000000008152600401613dc690615859565b60405180910390fd5b613e3281600d60008673ffffffffffffffffffffffffffffffffffffffff1673ffffffffffffffffffffffffffffffffffffffff16815260200190815260200160002060008581526020019081526020016000205461324990919063ffffffff16565b600d60008573ffffffffffffffffffffffffffffffffffffffff1673ffffffffffffffffffffffffffffffffffffffff168152602001908152602001600020600084815260200190815260200160002081905550505050565b6000838311158290613ed3576040517f08c379a0000000000000000000000000000000000000000000000000000000008152600401613eca91906156f7565b60405180910390fd5b5060008385039050809150509392505050565b613ef08282613458565b15613f30576040517f08c379a0000000000000000000000000000000000000000000000000000000008152600401613f2790615739565b60405180910390fd5b60018260000160008373ffffffffffffffffffffffffffffffffffffffff1673ffffffffffffffffffffffffffffffffffffffff16815260200190815260200160002060006101000a81548160ff0219169083151502179055505050565b613f988282613458565b613fd7576040517f08c379a0000000000000000000000000000000000000000000000000000000008152600401613fce90615899565b60405180910390fd5b60008260000160008373ffffffffffffffffffffffffffffffffffffffff1673ffffffffffffffffffffffffffffffffffffffff16815260200190815260200160002060006101000a81548160ff0219169083151502179055505050565b600080600a60008573ffffffffffffffffffffffffffffffffffffffff1673ffffffffffffffffffffffffffffffffffffffff16815260200190815260200160002080549050905060008090505b81811015614105576000600a60008773ffffffffffffffffffffffffffffffffffffffff1673ffffffffffffffffffffffffffffffffffffffff16815260200190815260200160002082815481106140d757fe5b90600052602060002001549050808514156140f75781935050505061412b565b508080600101915050614083565b507fffffffffffffffffffffffffffffffffffffffffffffffffffffffffffffffff9150505b92915050565b600080600b600084815260200190815260200160002080549050905060008090505b818110156141f5576000600b6000868152602001908152602001600020828154811061417b57fe5b9060005260206000200160009054906101000a900473ffffffffffffffffffffffffffffffffffffffff1690508073ffffffffffffffffffffffffffffffffffffffff168673ffffffffffffffffffffffffffffffffffffffff1614156141e75781935050505061421b565b508080600101915050614153565b507fffffffffffffffffffffffffffffffffffffffffffffffffffffffffffffffff9150505b92915050565b6040518060e001604052806000815260200160008152602001600073ffffffffffffffffffffffffffffffffffffffff1681526020016000815260200160008152602001600081526020016000151581525090565b6040518060e001604052806000815260200160008152602001600073ffffffffffffffffffffffffffffffffffffffff1681526020016000815260200160008152602001600081526020016000151581525090565b60405180606001604052806000815260200160008152602001600081525090565b60006142f88235615c59565b905092915050565b600061430c8235615c6b565b905092915050565b600082601f83011261432557600080fd5b813561433861433382615a1c565b6159ef565b9150818183526020840193506020810190508385602084028201111561435d57600080fd5b60005b8381101561438d578161437388826142ec565b845260208401935060208301925050600181019050614360565b5050505092915050565b600082601f8301126143a857600080fd5b81356143bb6143b682615a44565b6159ef565b915081818352602084019350602081019050838560208402820111156143e057600080fd5b60005b8381101561441057816143f68882614496565b8452602084019350602083019250506001810190506143e3565b5050505092915050565b60006144268251615c7d565b905092915050565b600061443a8235615c89565b905092915050565b600082601f83011261445357600080fd5b813561446661446182615a6c565b6159ef565b9150808252602083016020830185838301111561448257600080fd5b61448d838284615d5d565b50505092915050565b60006144a28235615cd5565b905092915050565b60006144b68251615cd5565b905092915050565b6000602082840312156144d057600080fd5b60006144de848285016142ec565b91505092915050565b6000602082840312156144f957600080fd5b600061450784828501614300565b91505092915050565b600080600080600060a0868803121561452857600080fd5b6000614536888289016142ec565b9550506020614547888289016142ec565b945050604086013567ffffffffffffffff81111561456457600080fd5b61457088828901614397565b935050606086013567ffffffffffffffff81111561458d57600080fd5b61459988828901614397565b925050608086013567ffffffffffffffff8111156145b657600080fd5b6145c288828901614442565b9150509295509295909350565b600080600080600060a086880312156145e757600080fd5b60006145f5888289016142ec565b9550506020614606888289016142ec565b945050604061461788828901614496565b935050606061462888828901614496565b925050608086013567ffffffffffffffff81111561464557600080fd5b61465188828901614442565b9150509295509295909350565b6000806040838503121561467157600080fd5b600061467f858286016142ec565b925050602061469085828601614496565b9150509250929050565b6000602082840312156146ac57600080fd5b600082013567ffffffffffffffff8111156146c657600080fd5b6146d284828501614314565b91505092915050565b600080604083850312156146ee57600080fd5b600083013567ffffffffffffffff81111561470857600080fd5b61471485828601614314565b925050602083013567ffffffffffffffff81111561473157600080fd5b61473d85828601614397565b9150509250929050565b6000806040838503121561475a57600080fd5b600083013567ffffffffffffffff81111561477457600080fd5b61478085828601614397565b925050602083013567ffffffffffffffff81111561479d57600080fd5b6147a985828601614397565b9150509250929050565b6000602082840312156147c557600080fd5b60006147d38482850161441a565b91505092915050565b6000602082840312156147ee57600080fd5b60006147fc8482850161442e565b91505092915050565b60006020828403121561481757600080fd5b600061482584828501614496565b91505092915050565b60006020828403121561484057600080fd5b600061484e848285016144aa565b91505092915050565b6000806040838503121561486a57600080fd5b600061487885828601614496565b925050602061488985828601614496565b9150509250929050565b6000806000606084860312156148a857600080fd5b60006148b686828701614496565b93505060206148c786828701614496565b92505060406148d886828701614496565b9150509250925092565b60006148ee8383614a9f565b905092915050565b600061490283836152c9565b60e08301905092915050565b600061491a8383615357565b60608301905092915050565b60006149328383615399565b60208301905092915050565b61494781615cdf565b82525050565b61495681615be5565b82525050565b61496581615be5565b82525050565b61497481615bd3565b82525050565b600061498582615ad9565b61498f8185615b5c565b9350836020820285016149a185615a98565b60005b848110156149da5783830388526149bc8383516148e2565b92506149c782615b1b565b91506020880197506001810190506149a4565b508196508694505050505092915050565b60006149f682615ae4565b614a008185615b6d565b9350614a0b83615aa5565b60005b82811015614a3957614a218683516148f6565b9550614a2c82615b28565b9150600181019050614a0e565b50849250505092915050565b6000614a5082615afa565b614a5a8185615b8f565b9350614a6583615abf565b60005b82811015614a9357614a7b86835161490e565b9550614a8682615b42565b9150600181019050614a68565b50849250505092915050565b6000614aaa82615aef565b614ab48185615b7e565b9350614abf83615ab2565b60005b82811015614aed57614ad586835161490e565b9550614ae082615b35565b9150600181019050614ac2565b50849250505092915050565b6000614b0482615b05565b614b0e8185615ba0565b9350614b1983615acc565b60005b82811015614b4757614b2f868351614926565b9550614b3a82615b4f565b9150600181019050614b1c565b50849250505092915050565b614b5c81615bf7565b82525050565b614b6b81615bf7565b82525050565b614b7a81615c03565b82525050565b614b8981615cf1565b82525050565b614b9881615d15565b82525050565b6000614ba982615b10565b614bb38185615bc2565b9350614bc3818560208601615d6c565b614bcc81615d9f565b840191505092915050565b6000614be4601a83615bc2565b91507f4e6f7420456e6f756768204465706f7369742062616c616e63650000000000006000830152602082019050919050565b6000614c24601f83615bc2565b91507f526f6c65733a206163636f756e7420616c72656164792068617320726f6c65006000830152602082019050919050565b6000614c64601c83615bc2565b91507f596f75206d75737420706179206174206c656173742031204b6c6179000000006000830152602082019050919050565b6000614ca4602683615bc2565b91507f4f776e61626c653a206e6577206f776e657220697320746865207a65726f206160008301527f64647265737300000000000000000000000000000000000000000000000000006020830152604082019050919050565b6000614d0a601b83615bc2565b91507f536166654d6174683a206164646974696f6e206f766572666c6f7700000000006000830152602082019050919050565b6000614d4a602983615bc2565b91507f4b495033373a2062616c616e636520717565727920666f7220746865207a657260008301527f6f206164647265737300000000000000000000000000000000000000000000006020830152604082019050919050565b6000614db0603183615bc2565b91507f54686520707572636861736520707269636520616e642073616c65732070726960008301527f63652061726520646966666572656e742e0000000000000000000000000000006020830152604082019050919050565b6000614e16601883615bc2565b91507f546865206c656e67746820697320646966666572656e742e00000000000000006000830152602082019050919050565b6000614e56601e83615bc2565b91507f57726f6e6720496e646578285f67657455736572534654496e646578292e00006000830152602082019050919050565b6000614e96601a83615bc2565b91507f54686973204d61726b65744974656d20697320636c6f7365642e0000000000006000830152602082019050919050565b6000614ed6601a83615bc2565b91507f55736572205346542042616c616e636573206973206c6573732e0000000000006000830152602082019050919050565b6000614f16603083615bc2565b91507f4d696e746572526f6c653a2063616c6c657220646f6573206e6f74206861766560008301527f20746865204d696e74657220726f6c65000000000000000000000000000000006020830152604082019050919050565b6000614f7c602183615bc2565b91507f526f6c65733a206163636f756e7420646f6573206e6f74206861766520726f6c60008301527f65000000000000000000000000000000000000000000000000000000000000006020830152604082019050919050565b6000614fe2601e83615bc2565b91507f57726f6e6720496e646578285f67657453465455736572496e646578292e00006000830152602082019050919050565b6000615022602083615bc2565b91507f4f776e61626c653a2063616c6c6572206973206e6f7420746865206f776e65726000830152602082019050919050565b6000615062602283615bc2565b91507f526f6c65733a206163636f756e7420697320746865207a65726f20616464726560008301527f73730000000000000000000000000000000000000000000000000000000000006020830152604082019050919050565b60006150c8601f83615bc2565b91507f4e6f7420456e6f75676820446973747269627574696f6e2062616c616e6365006000830152602082019050919050565b6000615108600083615bb1565b9150600082019050919050565b6000615122603a83615bc2565b91507f54686520707572636861736520766f6c756d65206973206c617267657220746860008301527f616e207468652072656d61696e696e67207175616e746974792e0000000000006020830152604082019050919050565b6000615188601783615bc2565b91507f4f6e6c792053656c6c65722063616e2063616e63656c2e0000000000000000006000830152602082019050919050565b60006151c8601c83615bc2565b91507f5072696365206d757374206265206174206c65617374203120776569000000006000830152602082019050919050565b6000615208600c83615bc2565b91507f4b6c617920746f6f206c6f7700000000000000000000000000000000000000006000830152602082019050919050565b60e0820160008201516152516000850182615399565b5060208201516152646020850182615399565b506040820151615277604085018261494d565b50606082015161528a6060850182615399565b50608082015161529d6080850182615399565b5060a08201516152b060a0850182615399565b5060c08201516152c360c0850182614b53565b50505050565b60e0820160008201516152df6000850182615399565b5060208201516152f26020850182615399565b506040820151615305604085018261494d565b5060608201516153186060850182615399565b50608082015161532b6080850182615399565b5060a082015161533e60a0850182615399565b5060c082015161535160c0850182614b53565b50505050565b60608201600082015161536d6000850182615399565b5060208201516153806020850182615399565b5060408201516153936040850182615399565b50505050565b6153a281615c4f565b82525050565b6153b181615c4f565b82525050565b60006020820190506153cc600083018461496b565b92915050565b60006020820190506153e7600083018461495c565b92915050565b6000604082019050615402600083018561493e565b61540f602083018461496b565b9392505050565b600060c08201905061542b600083018961493e565b615438602083018861493e565b61544560408301876153a8565b61545260608301866153a8565b61545f60808301856153a8565b61546c60a08301846153a8565b979650505050505050565b600060608201905061548c600083018661493e565b615499602083018561496b565b6154a660408301846153a8565b949350505050565b600060a0820190506154c3600083018761493e565b6154d0602083018661496b565b6154dd60408301856153a8565b6154ea60608301846153a8565b81810360808301526154fb816150fb565b905095945050505050565b600060408201905061551b600083018561493e565b61552860208301846153a8565b9392505050565b6000606082019050615544600083018661493e565b61555160208301856153a8565b61555e60408301846153a8565b949350505050565b600060808201905061557b600083018761493e565b61558860208301866153a8565b61559560408301856153a8565b6155a260608301846153a8565b95945050505050565b600060a0820190506155c0600083018761496b565b6155cd602083018661493e565b6155da60408301856153a8565b6155e760608301846153a8565b81810360808301526155f8816150fb565b905095945050505050565b6000602082019050818103600083015261561d818461497a565b905092915050565b6000602082019050818103600083015261563f81846149eb565b905092915050565b600060208201905081810360008301526156618184614a45565b905092915050565b600060208201905081810360008301526156838184614af9565b905092915050565b60006020820190506156a06000830184614b62565b92915050565b60006020820190506156bb6000830184614b71565b92915050565b60006020820190506156d66000830184614b80565b92915050565b60006020820190506156f16000830184614b8f565b92915050565b600060208201905081810360008301526157118184614b9e565b905092915050565b6000602082019050818103600083015261573281614bd7565b9050919050565b6000602082019050818103600083015261575281614c17565b9050919050565b6000602082019050818103600083015261577281614c57565b9050919050565b6000602082019050818103600083015261579281614c97565b9050919050565b600060208201905081810360008301526157b281614cfd565b9050919050565b600060208201905081810360008301526157d281614d3d565b9050919050565b600060208201905081810360008301526157f281614da3565b9050919050565b6000602082019050818103600083015261581281614e09565b9050919050565b6000602082019050818103600083015261583281614e49565b9050919050565b6000602082019050818103600083015261585281614e89565b9050919050565b6000602082019050818103600083015261587281614ec9565b9050919050565b6000602082019050818103600083015261589281614f09565b9050919050565b600060208201905081810360008301526158b281614f6f565b9050919050565b600060208201905081810360008301526158d281614fd5565b9050919050565b600060208201905081810360008301526158f281615015565b9050919050565b6000602082019050818103600083015261591281615055565b9050919050565b60006020820190508181036000830152615932816150bb565b9050919050565b6000602082019050818103600083015261595281615115565b9050919050565b600060208201905081810360008301526159728161517b565b9050919050565b60006020820190508181036000830152615992816151bb565b9050919050565b600060208201905081810360008301526159b2816151fb565b9050919050565b600060e0820190506159ce600083018461523b565b92915050565b60006020820190506159e960008301846153a8565b92915050565b6000604051905081810181811067ffffffffffffffff82111715615a1257600080fd5b8060405250919050565b600067ffffffffffffffff821115615a3357600080fd5b602082029050602081019050919050565b600067ffffffffffffffff821115615a5b57600080fd5b602082029050602081019050919050565b600067ffffffffffffffff821115615a8357600080fd5b601f19601f8301169050602081019050919050565b6000602082019050919050565b6000602082019050919050565b6000602082019050919050565b6000602082019050919050565b6000602082019050919050565b600081519050919050565b600081519050919050565b600081519050919050565b600081519050919050565b600081519050919050565b600081519050919050565b6000602082019050919050565b6000602082019050919050565b6000602082019050919050565b6000602082019050919050565b6000602082019050919050565b600082825260208201905092915050565b600082825260208201905092915050565b600082825260208201905092915050565b600082825260208201905092915050565b600082825260208201905092915050565b600082825260208201905092915050565b600082825260208201905092915050565b6000615bde82615c2f565b9050919050565b6000615bf082615c2f565b9050919050565b60008115159050919050565b60007fffffffff0000000000000000000000000000000000000000000000000000000082169050919050565b600073ffffffffffffffffffffffffffffffffffffffff82169050919050565b6000819050919050565b6000615c6482615cb5565b9050919050565b6000615c7682615cb5565b9050919050565b60008115159050919050565b60007fffffffff0000000000000000000000000000000000000000000000000000000082169050919050565b600073ffffffffffffffffffffffffffffffffffffffff82169050919050565b6000819050919050565b6000615cea82615d39565b9050919050565b6000615cfc82615d03565b9050919050565b6000615d0e82615c2f565b9050919050565b6000615d2082615d27565b9050919050565b6000615d3282615c2f565b9050919050565b6000615d4482615d4b565b9050919050565b6000615d5682615c2f565b9050919050565b82818337600083830152505050565b60005b83811015615d8a578082015181840152602081019050615d6f565b83811115615d99576000848401525b50505050565b6000601f19601f830116905091905056fea265627a7a72305820b3b9345778c69ef35723064b264979b08ff5d228a02b249831bab478aa6c0fc86c6578706572696d656e74616cf50037",
  "linkReferences": {},
  "deployedLinkReferences": {}
}