{
  "_format": "hh-sol-artifact-1",
  "contractName": "MusicStoneService",
  "sourceName": "contracts/MusicStoneService.sol",
  "abi": [
    {
      "constant": false,
      "inputs": [
        {
          "name": "_amount",
          "type": "uint256"
        }
      ],
      "name": "withdrawalDeposit",
      "outputs": [],
      "payable": false,
      "stateMutability": "nonpayable",
      "type": "function"
    },
    {
      "constant": true,
      "inputs": [
        {
          "name": "_account",
          "type": "address"
        }
      ],
      "name": "getArtistSfts",
      "outputs": [
        {
          "name": "",
          "type": "uint256[]"
        }
      ],
      "payable": false,
      "stateMutability": "view",
      "type": "function"
    },
    {
      "constant": true,
      "inputs": [
        {
          "name": "interfaceId",
          "type": "bytes4"
        }
      ],
      "name": "supportsInterface",
      "outputs": [
        {
          "name": "",
          "type": "bool"
        }
      ],
      "payable": false,
      "stateMutability": "view",
      "type": "function"
    },
    {
      "constant": false,
      "inputs": [
        {
          "name": "_token",
          "type": "address"
        }
      ],
      "name": "setToken",
      "outputs": [],
      "payable": false,
      "stateMutability": "nonpayable",
      "type": "function"
    },
    {
      "constant": false,
      "inputs": [
        {
          "name": "_amount",
          "type": "uint256"
        }
      ],
      "name": "withdrawalDistribution",
      "outputs": [],
      "payable": false,
      "stateMutability": "nonpayable",
      "type": "function"
    },
    {
      "constant": false,
      "inputs": [
        {
          "name": "_amount",
          "type": "uint256"
        }
      ],
      "name": "sellToken",
      "outputs": [],
      "payable": true,
      "stateMutability": "payable",
      "type": "function"
    },
    {
      "constant": true,
      "inputs": [],
      "name": "mstoken",
      "outputs": [
        {
          "name": "",
          "type": "address"
        }
      ],
      "payable": false,
      "stateMutability": "view",
      "type": "function"
    },
    {
      "constant": false,
      "inputs": [],
      "name": "withdraw",
      "outputs": [],
      "payable": true,
      "stateMutability": "payable",
      "type": "function"
    },
    {
      "constant": false,
      "inputs": [
        {
          "name": "_amount",
          "type": "uint256"
        }
      ],
      "name": "depositMSToken",
      "outputs": [],
      "payable": false,
      "stateMutability": "nonpayable",
      "type": "function"
    },
    {
      "constant": true,
      "inputs": [
        {
          "name": "_seller",
          "type": "address"
        }
      ],
      "name": "getItemsBySeller",
      "outputs": [
        {
          "components": [
            {
              "name": "itemId",
              "type": "uint256"
            },
            {
              "name": "tokenId",
              "type": "uint256"
            },
            {
              "name": "seller",
              "type": "address"
            },
            {
              "name": "unit_price",
              "type": "uint256"
            },
            {
              "name": "total_amount",
              "type": "uint256"
            },
            {
              "name": "remaining_amount",
              "type": "uint256"
            },
            {
              "name": "isOpened",
              "type": "bool"
            }
          ],
          "name": "",
          "type": "tuple[]"
        }
      ],
      "payable": false,
      "stateMutability": "view",
      "type": "function"
    },
    {
      "constant": true,
      "inputs": [],
      "name": "mssft",
      "outputs": [
        {
          "name": "",
          "type": "address"
        }
      ],
      "payable": false,
      "stateMutability": "view",
      "type": "function"
    },
    {
      "constant": false,
      "inputs": [
        {
          "name": "itemId",
          "type": "uint256"
        }
      ],
      "name": "cancelItem",
      "outputs": [],
      "payable": false,
      "stateMutability": "nonpayable",
      "type": "function"
    },
    {
      "constant": true,
      "inputs": [
        {
          "name": "marketItemId",
          "type": "uint256"
        }
      ],
      "name": "getMarketItemById",
      "outputs": [
        {
          "components": [
            {
              "name": "itemId",
              "type": "uint256"
            },
            {
              "name": "tokenId",
              "type": "uint256"
            },
            {
              "name": "seller",
              "type": "address"
            },
            {
              "name": "unit_price",
              "type": "uint256"
            },
            {
              "name": "total_amount",
              "type": "uint256"
            },
            {
              "name": "remaining_amount",
              "type": "uint256"
            },
            {
              "name": "isOpened",
              "type": "bool"
            }
          ],
          "name": "",
          "type": "tuple"
        }
      ],
      "payable": false,
      "stateMutability": "view",
      "type": "function"
    },
    {
      "constant": true,
      "inputs": [
        {
          "name": "_account",
          "type": "address[]"
        }
      ],
      "name": "getUsersAllSFTs",
      "outputs": [
        {
          "components": [
            {
              "name": "id",
              "type": "uint256"
            },
            {
              "name": "balance",
              "type": "uint256"
            },
            {
              "name": "totalSupply",
              "type": "uint256"
            }
          ],
          "name": "",
          "type": "tuple[][]"
        }
      ],
      "payable": false,
      "stateMutability": "view",
      "type": "function"
    },
    {
      "constant": false,
      "inputs": [],
      "name": "renounceOwnership",
      "outputs": [],
      "payable": false,
      "stateMutability": "nonpayable",
      "type": "function"
    },
    {
      "constant": true,
      "inputs": [],
      "name": "owner",
      "outputs": [
        {
          "name": "",
          "type": "address"
        }
      ],
      "payable": false,
      "stateMutability": "view",
      "type": "function"
    },
    {
      "constant": true,
      "inputs": [],
      "name": "isOwner",
      "outputs": [
        {
          "name": "",
          "type": "bool"
        }
      ],
      "payable": false,
      "stateMutability": "view",
      "type": "function"
    },
    {
      "constant": true,
      "inputs": [
        {
          "name": "_id",
          "type": "uint256"
        }
      ],
      "name": "totalSFTSupply",
      "outputs": [
        {
          "name": "",
          "type": "uint256"
        }
      ],
      "payable": false,
      "stateMutability": "view",
      "type": "function"
    },
    {
      "constant": true,
      "inputs": [],
      "name": "getAllowance",
      "outputs": [
        {
          "name": "",
          "type": "uint256"
        }
      ],
      "payable": false,
      "stateMutability": "view",
      "type": "function"
    },
    {
      "constant": false,
      "inputs": [
        {
          "name": "account",
          "type": "address"
        }
      ],
      "name": "addMinter",
      "outputs": [],
      "payable": false,
      "stateMutability": "nonpayable",
      "type": "function"
    },
    {
      "constant": false,
      "inputs": [],
      "name": "renounceMinter",
      "outputs": [],
      "payable": false,
      "stateMutability": "nonpayable",
      "type": "function"
    },
    {
      "constant": false,
      "inputs": [
        {
          "name": "",
          "type": "address"
        },
        {
          "name": "",
          "type": "address"
        },
        {
          "name": "",
          "type": "uint256[]"
        },
        {
          "name": "",
          "type": "uint256[]"
        },
        {
          "name": "",
          "type": "bytes"
        }
      ],
      "name": "onKIP37BatchReceived",
      "outputs": [
        {
          "name": "",
          "type": "bytes4"
        }
      ],
      "payable": false,
      "stateMutability": "nonpayable",
      "type": "function"
    },
    {
      "constant": true,
      "inputs": [],
      "name": "getUnsoldItems",
      "outputs": [
        {
          "components": [
            {
              "name": "itemId",
              "type": "uint256"
            },
            {
              "name": "tokenId",
              "type": "uint256"
            },
            {
              "name": "seller",
              "type": "address"
            },
            {
              "name": "unit_price",
              "type": "uint256"
            },
            {
              "name": "total_amount",
              "type": "uint256"
            },
            {
              "name": "remaining_amount",
              "type": "uint256"
            },
            {
              "name": "isOpened",
              "type": "bool"
            }
          ],
          "name": "",
          "type": "tuple[]"
        }
      ],
      "payable": false,
      "stateMutability": "view",
      "type": "function"
    },
    {
      "constant": false,
      "inputs": [],
      "name": "buyToken",
      "outputs": [],
      "payable": true,
      "stateMutability": "payable",
      "type": "function"
    },
    {
      "constant": true,
      "inputs": [
        {
          "name": "_address",
          "type": "address"
        }
      ],
      "name": "getUserDistribution",
      "outputs": [
        {
          "name": "",
          "type": "uint256"
        }
      ],
      "payable": false,
      "stateMutability": "view",
      "type": "function"
    },
    {
      "constant": true,
      "inputs": [
        {
          "name": "account",
          "type": "address"
        }
      ],
      "name": "isMinter",
      "outputs": [
        {
          "name": "",
          "type": "bool"
        }
      ],
      "payable": false,
      "stateMutability": "view",
      "type": "function"
    },
    {
      "constant": false,
      "inputs": [
        {
          "name": "_amount",
          "type": "uint256"
        }
      ],
      "name": "mintSFT",
      "outputs": [],
      "payable": false,
      "stateMutability": "nonpayable",
      "type": "function"
    },
    {
      "constant": false,
      "inputs": [
        {
          "name": "_address",
          "type": "address[]"
        },
        {
          "name": "_deduct_token",
          "type": "uint256[]"
        }
      ],
      "name": "deduction",
      "outputs": [],
      "payable": false,
      "stateMutability": "nonpayable",
      "type": "function"
    },
    {
      "constant": false,
      "inputs": [
        {
          "name": "_sft_token",
          "type": "uint256[]"
        },
        {
          "name": "_distribute_amount",
          "type": "uint256[]"
        }
      ],
      "name": "distribution",
      "outputs": [],
      "payable": false,
      "stateMutability": "nonpayable",
      "type": "function"
    },
    {
      "constant": true,
      "inputs": [
        {
          "name": "_address",
          "type": "address"
        }
      ],
      "name": "getUserDeposit",
      "outputs": [
        {
          "name": "",
          "type": "uint256"
        }
      ],
      "payable": false,
      "stateMutability": "view",
      "type": "function"
    },
    {
      "constant": true,
      "inputs": [
        {
          "name": "_account",
          "type": "address"
        }
      ],
      "name": "getUserAllSFTs",
      "outputs": [
        {
          "components": [
            {
              "name": "id",
              "type": "uint256"
            },
            {
              "name": "balance",
              "type": "uint256"
            },
            {
              "name": "totalSupply",
              "type": "uint256"
            }
          ],
          "name": "",
          "type": "tuple[]"
        }
      ],
      "payable": false,
      "stateMutability": "view",
      "type": "function"
    },
    {
      "constant": false,
      "inputs": [
        {
          "name": "_token",
          "type": "address"
        }
      ],
      "name": "setSFT",
      "outputs": [],
      "payable": false,
      "stateMutability": "nonpayable",
      "type": "function"
    },
    {
      "constant": true,
      "inputs": [],
      "name": "getTokenRatio",
      "outputs": [
        {
          "name": "",
          "type": "uint256"
        }
      ],
      "payable": false,
      "stateMutability": "view",
      "type": "function"
    },
    {
      "constant": false,
      "inputs": [
        {
          "name": "itemId",
          "type": "uint256"
        },
        {
          "name": "buy_amount",
          "type": "uint256"
        }
      ],
      "name": "purchaseItem",
      "outputs": [],
      "payable": true,
      "stateMutability": "payable",
      "type": "function"
    },
    {
      "constant": false,
      "inputs": [
        {
          "name": "_newTokenRatio",
          "type": "uint256"
        }
      ],
      "name": "setTokenRatio",
      "outputs": [],
      "payable": false,
      "stateMutability": "nonpayable",
      "type": "function"
    },
    {
      "constant": true,
      "inputs": [
        {
          "name": "_id",
          "type": "uint256"
        }
      ],
      "name": "getSftCreator",
      "outputs": [
        {
          "name": "",
          "type": "address"
        }
      ],
      "payable": false,
      "stateMutability": "view",
      "type": "function"
    },
    {
      "constant": false,
      "inputs": [
        {
          "name": "",
          "type": "address"
        },
        {
          "name": "",
          "type": "address"
        },
        {
          "name": "",
          "type": "uint256"
        },
        {
          "name": "",
          "type": "uint256"
        },
        {
          "name": "",
          "type": "bytes"
        }
      ],
      "name": "onKIP37Received",
      "outputs": [
        {
          "name": "",
          "type": "bytes4"
        }
      ],
      "payable": false,
      "stateMutability": "nonpayable",
      "type": "function"
    },
    {
      "constant": false,
      "inputs": [
        {
          "name": "newOwner",
          "type": "address"
        }
      ],
      "name": "transferOwnership",
      "outputs": [],
      "payable": false,
      "stateMutability": "nonpayable",
      "type": "function"
    },
    {
      "constant": false,
      "inputs": [
        {
          "name": "tokenId",
          "type": "uint256"
        },
        {
          "name": "unit_price",
          "type": "uint256"
        },
        {
          "name": "amount",
          "type": "uint256"
        }
      ],
      "name": "addItemToMarket",
      "outputs": [],
      "payable": true,
      "stateMutability": "payable",
      "type": "function"
    },
    {
      "inputs": [],
      "payable": false,
      "stateMutability": "nonpayable",
      "type": "constructor"
    },
    {
      "anonymous": false,
      "inputs": [
        {
          "indexed": true,
          "name": "itemId",
          "type": "uint256"
        },
        {
          "indexed": true,
          "name": "tokenId",
          "type": "uint256"
        },
        {
          "indexed": false,
          "name": "seller",
          "type": "address"
        },
        {
          "indexed": false,
          "name": "unit_price",
          "type": "uint256"
        },
        {
          "indexed": false,
          "name": "total_amount",
          "type": "uint256"
        },
        {
          "indexed": false,
          "name": "remaining_amount",
          "type": "uint256"
        }
      ],
      "name": "MarketItemCreated",
      "type": "event"
    },
    {
      "anonymous": false,
      "inputs": [
        {
          "indexed": true,
          "name": "itemId",
          "type": "uint256"
        },
        {
          "indexed": true,
          "name": "tokenId",
          "type": "uint256"
        },
        {
          "indexed": false,
          "name": "seller",
          "type": "address"
        },
        {
          "indexed": false,
          "name": "buyer",
          "type": "address"
        },
        {
          "indexed": false,
          "name": "unit_price",
          "type": "uint256"
        },
        {
          "indexed": false,
          "name": "total_amount",
          "type": "uint256"
        },
        {
          "indexed": false,
          "name": "buy_amount",
          "type": "uint256"
        },
        {
          "indexed": false,
          "name": "remaining_amount",
          "type": "uint256"
        }
      ],
      "name": "MarketItemSelled",
      "type": "event"
    },
    {
      "anonymous": false,
      "inputs": [
        {
          "indexed": true,
          "name": "itemId",
          "type": "uint256"
        },
        {
          "indexed": true,
          "name": "tokenId",
          "type": "uint256"
        },
        {
          "indexed": false,
          "name": "seller",
          "type": "address"
        },
        {
          "indexed": false,
          "name": "unit_price",
          "type": "uint256"
        },
        {
          "indexed": false,
          "name": "total_amount",
          "type": "uint256"
        },
        {
          "indexed": false,
          "name": "remaining_amount",
          "type": "uint256"
        }
      ],
      "name": "MarketItemCancel",
      "type": "event"
    },
    {
      "anonymous": false,
      "inputs": [
        {
          "indexed": true,
          "name": "account",
          "type": "address"
        }
      ],
      "name": "MinterAdded",
      "type": "event"
    },
    {
      "anonymous": false,
      "inputs": [
        {
          "indexed": true,
          "name": "account",
          "type": "address"
        }
      ],
      "name": "MinterRemoved",
      "type": "event"
    },
    {
      "anonymous": false,
      "inputs": [
        {
          "indexed": true,
          "name": "previousOwner",
          "type": "address"
        },
        {
          "indexed": true,
          "name": "newOwner",
          "type": "address"
        }
      ],
      "name": "OwnershipTransferred",
      "type": "event"
    }
  ],
  "bytecode": "0x60806040526101f460035567016345785d8a00006012553480156200002357600080fd5b50336000806101000a81548173ffffffffffffffffffffffffffffffffffffffff021916908373ffffffffffffffffffffffffffffffffffffffff1602179055506000809054906101000a900473ffffffffffffffffffffffffffffffffffffffff1673ffffffffffffffffffffffffffffffffffffffff16600073ffffffffffffffffffffffffffffffffffffffff167f8be0079c531659141344cd1fd0a4f28419497f9722a3daafe3b4186f6b6457e060405160405180910390a3620000f1336200016460201b60201c565b620001096301ffc9a760e01b620001c560201b60201c565b6200015e600073ffffffffffffffffffffffffffffffffffffffff16639b49e332905060e01b600073ffffffffffffffffffffffffffffffffffffffff1663e78b3325905060e01b18620001c560201b60201c565b6200057f565b6200017f8160016200029e60201b62003d8e1790919060201c565b8073ffffffffffffffffffffffffffffffffffffffff167f6ae172837ea30b801fbfcdd4108aa1d5bf8ff775444fd70256b44e6bf3dfc3f660405160405180910390a250565b63ffffffff60e01b817bffffffffffffffffffffffffffffffffffffffffffffffffffffffff1916141562000231576040517f08c379a000000000000000000000000000000000000000000000000000000000815260040162000228906200052a565b60405180910390fd5b600160026000837bffffffffffffffffffffffffffffffffffffffffffffffffffffffff19167bffffffffffffffffffffffffffffffffffffffffffffffffffffffff1916815260200190815260200160002060006101000a81548160ff02191690831515021790555050565b620002b082826200035160201b60201c565b15620002f3576040517f08c379a0000000000000000000000000000000000000000000000000000000008152600401620002ea9062000508565b60405180910390fd5b60018260000160008373ffffffffffffffffffffffffffffffffffffffff1673ffffffffffffffffffffffffffffffffffffffff16815260200190815260200160002060006101000a81548160ff0219169083151502179055505050565b60008073ffffffffffffffffffffffffffffffffffffffff168273ffffffffffffffffffffffffffffffffffffffff161415620003c5576040517f08c379a0000000000000000000000000000000000000000000000000000000008152600401620003bc906200054c565b60405180910390fd5b8260000160008373ffffffffffffffffffffffffffffffffffffffff1673ffffffffffffffffffffffffffffffffffffffff16815260200190815260200160002060009054906101000a900460ff16905092915050565b60006200042b601f836200056e565b91507f526f6c65733a206163636f756e7420616c72656164792068617320726f6c65006000830152602082019050919050565b60006200046d601b836200056e565b91507f4b495031333a20696e76616c696420696e7465726661636520696400000000006000830152602082019050919050565b6000620004af6022836200056e565b91507f526f6c65733a206163636f756e7420697320746865207a65726f20616464726560008301527f73730000000000000000000000000000000000000000000000000000000000006020830152604082019050919050565b6000602082019050818103600083015262000523816200041c565b9050919050565b6000602082019050818103600083015262000545816200045e565b9050919050565b600060208201905081810360008301526200056781620004a0565b9050919050565b600082825260208201905092915050565b615dad806200058f6000396000f3fe60806040526004361061022e5760003560e01c8063983b2d561161012e578063c084b10b116100ab578063e38e91f91161006f578063e38e91f914610813578063e668302a1461083c578063e78b332514610879578063f2fde38b146108b6578063f7d20a23146108df5761022e565b8063c084b10b14610729578063c0d3775214610766578063c37176b9146107a3578063d8a4bfe1146107cc578063e0675698146107f75761022e565b8063a55b748e116100f2578063a55b748e14610634578063aa271e1a14610671578063ac104f90146106ae578063ae1a1881146106d7578063b9058c7e146107005761022e565b8063983b2d561461058257806398650275146105ab5780639b49e332146105c25780639b8bc127146105ff578063a48217191461062a5761022e565b806349bf3efb116101bc578063715018a611610180578063715018a6146104ad5780638da5cb5b146104c45780638f32d59b146104ef5780638f87ce121461051a578063973e9b8b146105575761022e565b806349bf3efb146103a25780634e71f8dc146103df57806351563f8e1461040a57806353dbceb114610433578063584b8e64146104705761022e565b8063226d155611610203578063226d1556146102ff5780632397e4d71461032857806338f5ba2f146103445780633ccfd60b1461036f57806341038aa4146103795761022e565b8062992a4b14610233578062e3c6c81461025c57806301ffc9a714610299578063144fa6d7146102d6575b600080fd5b34801561023f57600080fd5b5061025a6004803603610255919081019061469a565b6108fb565b005b34801561026857600080fd5b50610283600480360361027e919081019061438f565b610a27565b6040516102909190615587565b60405180910390f35b3480156102a557600080fd5b506102c060048036036102bb9190810190614671565b610b2e565b6040516102cd91906155a9565b60405180910390f35b3480156102e257600080fd5b506102fd60048036036102f8919081019061438f565b610b96565b005b34801561030b57600080fd5b506103266004803603610321919081019061469a565b610c21565b005b610342600480360361033d919081019061469a565b610d4d565b005b34801561035057600080fd5b50610359610efa565b60405161036691906155df565b60405180910390f35b610377610f20565b005b34801561038557600080fd5b506103a0600480360361039b919081019061469a565b610fbe565b005b3480156103ae57600080fd5b506103c960048036036103c4919081019061438f565b611068565b6040516103d69190615543565b60405180910390f35b3480156103eb57600080fd5b506103f46112da565b60405161040191906155fa565b60405180910390f35b34801561041657600080fd5b50610431600480360361042c919081019061469a565b611300565b005b34801561043f57600080fd5b5061045a6004803603610455919081019061469a565b611543565b6040516104679190615937565b60405180910390f35b34801561047c57600080fd5b506104976004803603610492919081019061452f565b61161f565b6040516104a49190615521565b60405180910390f35b3480156104b957600080fd5b506104c261192e565b005b3480156104d057600080fd5b506104d9611a34565b6040516104e69190615327565b60405180910390f35b3480156104fb57600080fd5b50610504611a5d565b60405161051191906155a9565b60405180910390f35b34801561052657600080fd5b50610541600480360361053c919081019061469a565b611ab4565b60405161054e9190615952565b60405180910390f35b34801561056357600080fd5b5061056c611ad1565b6040516105799190615952565b60405180910390f35b34801561058e57600080fd5b506105a960048036036105a4919081019061438f565b611b8c565b005b3480156105b757600080fd5b506105c0611be0565b005b3480156105ce57600080fd5b506105e960048036036105e491908101906143e1565b611beb565b6040516105f691906155c4565b60405180910390f35b34801561060b57600080fd5b50610614611c00565b6040516106219190615543565b60405180910390f35b610632611db3565b005b34801561064057600080fd5b5061065b6004803603610656919081019061438f565b611f10565b6040516106689190615952565b60405180910390f35b34801561067d57600080fd5b506106986004803603610693919081019061438f565b611f59565b6040516106a591906155a9565b60405180910390f35b3480156106ba57600080fd5b506106d560048036036106d0919081019061469a565b611f76565b005b3480156106e357600080fd5b506106fe60048036036106f99190810190614570565b6121f8565b005b34801561070c57600080fd5b50610727600480360361072291908101906145dc565b612336565b005b34801561073557600080fd5b50610750600480360361074b919081019061438f565b61258a565b60405161075d9190615952565b60405180910390f35b34801561077257600080fd5b5061078d6004803603610788919081019061438f565b6125d3565b60405161079a9190615565565b60405180910390f35b3480156107af57600080fd5b506107ca60048036036107c5919081019061438f565b61278a565b005b3480156107d857600080fd5b506107e1612815565b6040516107ee9190615952565b60405180910390f35b610811600480360361080c91908101906146ec565b61281f565b005b34801561081f57600080fd5b5061083a6004803603610835919081019061469a565b612bdb565b005b34801561084857600080fd5b50610863600480360361085e919081019061469a565b612c2c565b604051610870919061530c565b60405180910390f35b34801561088557600080fd5b506108a0600480360361089b91908101906144a0565b612c69565b6040516108ad91906155c4565b60405180910390f35b3480156108c257600080fd5b506108dd60048036036108d891908101906143b8565b612c7e565b005b6108f960048036036108f49190810190614728565b612cd1565b005b80600660003373ffffffffffffffffffffffffffffffffffffffff1673ffffffffffffffffffffffffffffffffffffffff16815260200190815260200160002054101561097d576040517f08c379a000000000000000000000000000000000000000000000000000000000815260040161097490615637565b60405180910390fd5b6109cf81600660003373ffffffffffffffffffffffffffffffffffffffff1673ffffffffffffffffffffffffffffffffffffffff16815260200190815260200160002054612f0a90919063ffffffff16565b600660003373ffffffffffffffffffffffffffffffffffffffff1673ffffffffffffffffffffffffffffffffffffffff16815260200190815260200160002081905550610a24610a1d611a34565b3383612f54565b50565b6060600073ffffffffffffffffffffffffffffffffffffffff168273ffffffffffffffffffffffffffffffffffffffff161415610a99576040517f08c379a0000000000000000000000000000000000000000000000000000000008152600401610a90906156d7565b60405180910390fd5b600c60008373ffffffffffffffffffffffffffffffffffffffff1673ffffffffffffffffffffffffffffffffffffffff168152602001908152602001600020805480602002602001604051908101604052809291908181526020018280548015610b2257602002820191906000526020600020905b815481526020019060010190808311610b0e575b50505050509050919050565b600060026000837bffffffffffffffffffffffffffffffffffffffffffffffffffffffff19167bffffffffffffffffffffffffffffffffffffffffffffffffffffffff1916815260200190815260200160002060009054906101000a900460ff169050919050565b610b9e611a5d565b610bdd576040517f08c379a0000000000000000000000000000000000000000000000000000000008152600401610bd490615837565b60405180910390fd5b80600460006101000a81548173ffffffffffffffffffffffffffffffffffffffff021916908373ffffffffffffffffffffffffffffffffffffffff16021790555050565b80600760003373ffffffffffffffffffffffffffffffffffffffff1673ffffffffffffffffffffffffffffffffffffffff168152602001908152602001600020541015610ca3576040517f08c379a0000000000000000000000000000000000000000000000000000000008152600401610c9a90615877565b60405180910390fd5b610cf581600760003373ffffffffffffffffffffffffffffffffffffffff1673ffffffffffffffffffffffffffffffffffffffff16815260200190815260200160002054612f0a90919063ffffffff16565b600760003373ffffffffffffffffffffffffffffffffffffffff1673ffffffffffffffffffffffffffffffffffffffff16815260200190815260200160002081905550610d4a610d43611a34565b3383612f54565b50565b60006003548281610d5a57fe5b04905081600460009054906101000a900473ffffffffffffffffffffffffffffffffffffffff1673ffffffffffffffffffffffffffffffffffffffff1663dd62ed3e33306040518363ffffffff1660e01b8152600401610dbb929190615342565b60206040518083038186803b158015610dd357600080fd5b505afa158015610de7573d6000803e3d6000fd5b505050506040513d601f19601f82011682018060405250610e0b91908101906146c3565b1015610e4c576040517f08c379a0000000000000000000000000000000000000000000000000000000008152600401610e4390615897565b60405180910390fd5b803073ffffffffffffffffffffffffffffffffffffffff16311015610ea6576040517f08c379a0000000000000000000000000000000000000000000000000000000008152600401610e9d90615917565b60405180910390fd5b610eb833610eb2611a34565b84612f54565b3373ffffffffffffffffffffffffffffffffffffffff166108fc829081150290604051600060405180830381858888f19350505050610ef657600080fd5b5050565b600460009054906101000a900473ffffffffffffffffffffffffffffffffffffffff1681565b610f28611a5d565b610f67576040517f08c379a0000000000000000000000000000000000000000000000000000000008152600401610f5e90615837565b60405180910390fd5b3373ffffffffffffffffffffffffffffffffffffffff166108fc3073ffffffffffffffffffffffffffffffffffffffff16319081150290604051600060405180830381858888f19350505050610fbc57600080fd5b565b610fd033610fca611a34565b83612f54565b61102281600660003373ffffffffffffffffffffffffffffffffffffffff1673ffffffffffffffffffffffffffffffffffffffff1681526020019081526020016000205461304f90919063ffffffff16565b600660003373ffffffffffffffffffffffffffffffffffffffff1673ffffffffffffffffffffffffffffffffffffffff1681526020019081526020016000208190555050565b6060600061107660106130a4565b90506000809050600080905060008090505b83811015611111578573ffffffffffffffffffffffffffffffffffffffff16600f600060018401815260200190815260200160002060020160009054906101000a900473ffffffffffffffffffffffffffffffffffffffff1673ffffffffffffffffffffffffffffffffffffffff161415611104576001830192505b8080600101915050611088565b5060608260405190808252806020026020018201604052801561114e57816020015b61113b6140f2565b8152602001906001900390816111335790505b50905060008090505b848110156112cd578673ffffffffffffffffffffffffffffffffffffffff16600f600060018401815260200190815260200160002060020160009054906101000a900473ffffffffffffffffffffffffffffffffffffffff1673ffffffffffffffffffffffffffffffffffffffff1614156112c05760006001820190506111dc614147565b600f60008381526020019081526020016000206040518060e001604052908160008201548152602001600182015481526020016002820160009054906101000a900473ffffffffffffffffffffffffffffffffffffffff1673ffffffffffffffffffffffffffffffffffffffff1673ffffffffffffffffffffffffffffffffffffffff1681526020016003820154815260200160048201548152602001600582015481526020016006820160009054906101000a900460ff1615151515815250509050808486815181106112ac57fe5b602002602001018190525060018501945050505b8080600101915050611157565b5080945050505050919050565b600560009054906101000a900473ffffffffffffffffffffffffffffffffffffffff1681565b6000600f600083815260200190815260200160002060020160009054906101000a900473ffffffffffffffffffffffffffffffffffffffff1690506000600f60008481526020019081526020016000206001015490506000600f60008581526020019081526020016000206005015490503373ffffffffffffffffffffffffffffffffffffffff168373ffffffffffffffffffffffffffffffffffffffff16146113df576040517f08c379a00000000000000000000000000000000000000000000000000000000081526004016113d6906158d7565b60405180910390fd5b600560009054906101000a900473ffffffffffffffffffffffffffffffffffffffff1673ffffffffffffffffffffffffffffffffffffffff1663f242432a303385856040518563ffffffff1660e01b81526004016114409493929190615492565b600060405180830381600087803b15801561145a57600080fd5b505af115801561146e573d6000803e3d6000fd5b5050505061147b846130b2565b6114863383836130ee565b81847fbd38f4b052b02b12cfef3a49a5a317df92360c746c95f08e9eead3f017d21baa600f600088815260200190815260200160002060020160009054906101000a900473ffffffffffffffffffffffffffffffffffffffff16600f600089815260200190815260200160002060030154600f60008a815260200190815260200160002060040154600f60008b815260200190815260200160002060050154604051611535949392919061544d565b60405180910390a350505050565b61154b614147565b611553614147565b600f60008481526020019081526020016000206040518060e001604052908160008201548152602001600182015481526020016002820160009054906101000a900473ffffffffffffffffffffffffffffffffffffffff1673ffffffffffffffffffffffffffffffffffffffff1673ffffffffffffffffffffffffffffffffffffffff1681526020016003820154815260200160048201548152602001600582015481526020016006820160009054906101000a900460ff161515151581525050905080915050919050565b606060008251905060608160405190808252806020026020018201604052801561165d57816020015b60608152602001906001900390816116485790505b50905060008090505b828110156117285760006008600087848151811061168057fe5b602002602001015173ffffffffffffffffffffffffffffffffffffffff1673ffffffffffffffffffffffffffffffffffffffff1681526020019081526020016000208054905090508060405190808252806020026020018201604052801561170257816020015b6116ef61419c565b8152602001906001900390816116e75790505b5083838151811061170f57fe5b6020026020010181905250508080600101915050611666565b5060008090505b828110156119235760006008600087848151811061174957fe5b602002602001015173ffffffffffffffffffffffffffffffffffffffff1673ffffffffffffffffffffffffffffffffffffffff16815260200190815260200160002080549050905060008090505b81811015611914576000600860008986815181106117b157fe5b602002602001015173ffffffffffffffffffffffffffffffffffffffff1673ffffffffffffffffffffffffffffffffffffffff16815260200190815260200160002082815481106117fe57fe5b906000526020600020015490508085858151811061181857fe5b6020026020010151838151811061182b57fe5b60200260200101516000018181525050600a600089868151811061184b57fe5b602002602001015173ffffffffffffffffffffffffffffffffffffffff1673ffffffffffffffffffffffffffffffffffffffff1681526020019081526020016000206000828152602001908152602001600020548585815181106118ab57fe5b602002602001015183815181106118be57fe5b602002602001015160200181815250506118d781611ab4565b8585815181106118e357fe5b602002602001015183815181106118f657fe5b60200260200101516040018181525050508080600101915050611797565b5050808060010191505061172f565b508092505050919050565b611936611a5d565b611975576040517f08c379a000000000000000000000000000000000000000000000000000000000815260040161196c90615837565b60405180910390fd5b600073ffffffffffffffffffffffffffffffffffffffff166000809054906101000a900473ffffffffffffffffffffffffffffffffffffffff1673ffffffffffffffffffffffffffffffffffffffff167f8be0079c531659141344cd1fd0a4f28419497f9722a3daafe3b4186f6b6457e060405160405180910390a360008060006101000a81548173ffffffffffffffffffffffffffffffffffffffff021916908373ffffffffffffffffffffffffffffffffffffffff160217905550565b60008060009054906101000a900473ffffffffffffffffffffffffffffffffffffffff16905090565b60008060009054906101000a900473ffffffffffffffffffffffffffffffffffffffff1673ffffffffffffffffffffffffffffffffffffffff163373ffffffffffffffffffffffffffffffffffffffff1614905090565b6000600e6000838152602001908152602001600020549050919050565b6000600460009054906101000a900473ffffffffffffffffffffffffffffffffffffffff1673ffffffffffffffffffffffffffffffffffffffff1663dd62ed3e611b19611a34565b306040518363ffffffff1660e01b8152600401611b37929190615342565b60206040518083038186803b158015611b4f57600080fd5b505afa158015611b63573d6000803e3d6000fd5b505050506040513d601f19601f82011682018060405250611b8791908101906146c3565b905090565b611b9533611f59565b611bd4576040517f08c379a0000000000000000000000000000000000000000000000000000000008152600401611bcb906157d7565b60405180910390fd5b611bdd816131aa565b50565b611be933613204565b565b6000639b49e33260e01b905095945050505050565b60606000611c0e60106130a4565b90506000611c1c60116130a4565b611c2660106130a4565b0390506000809050606082604051908082528060200260200182016040528015611c6a57816020015b611c576140f2565b815260200190600190039081611c4f5790505b50905060008090505b84811015611da857600f600060018301815260200190815260200160002060060160009054906101000a900460ff1615611d9b576000600182019050611cb7614147565b600f60008381526020019081526020016000206040518060e001604052908160008201548152602001600182015481526020016002820160009054906101000a900473ffffffffffffffffffffffffffffffffffffffff1673ffffffffffffffffffffffffffffffffffffffff1673ffffffffffffffffffffffffffffffffffffffff1681526020016003820154815260200160048201548152602001600582015481526020016006820160009054906101000a900460ff161515151581525050905080848681518110611d8757fe5b602002602001018190525060018501945050505b8080600101915050611c73565b508094505050505090565b6000600354340290506000600460009054906101000a900473ffffffffffffffffffffffffffffffffffffffff1673ffffffffffffffffffffffffffffffffffffffff1663dd62ed3e611e04611a34565b306040518363ffffffff1660e01b8152600401611e22929190615342565b60206040518083038186803b158015611e3a57600080fd5b505afa158015611e4e573d6000803e3d6000fd5b505050506040513d601f19601f82011682018060405250611e7291908101906146c3565b905060003411611eb7576040517f08c379a0000000000000000000000000000000000000000000000000000000008152600401611eae90615677565b60405180910390fd5b81811015611efa576040517f08c379a0000000000000000000000000000000000000000000000000000000008152600401611ef190615757565b60405180910390fd5b611f0c611f05611a34565b3384612f54565b5050565b6000600760008373ffffffffffffffffffffffffffffffffffffffff1673ffffffffffffffffffffffffffffffffffffffff168152602001908152602001600020549050919050565b6000611f6f82600161325e90919063ffffffff16565b9050919050565b611f7f33611f59565b611fbe576040517f08c379a0000000000000000000000000000000000000000000000000000000008152600401611fb5906157d7565b60405180910390fd5b6000600560009054906101000a900473ffffffffffffffffffffffffffffffffffffffff1673ffffffffffffffffffffffffffffffffffffffff16635b456a706040518163ffffffff1660e01b815260040160206040518083038186803b15801561202857600080fd5b505afa15801561203c573d6000803e3d6000fd5b505050506040513d601f19601f8201168201806040525061206091908101906146c3565b9050600560009054906101000a900473ffffffffffffffffffffffffffffffffffffffff1673ffffffffffffffffffffffffffffffffffffffff166374c1832033846040518363ffffffff1660e01b81526004016120bf929190615424565b600060405180830381600087803b1580156120d957600080fd5b505af11580156120ed573d6000803e3d6000fd5b50505050600c60003373ffffffffffffffffffffffffffffffffffffffff1673ffffffffffffffffffffffffffffffffffffffff16815260200190815260200160002081908060018154018082558091505090600182039060005260206000200160009091929091909150555033600d600083815260200190815260200160002060006101000a81548173ffffffffffffffffffffffffffffffffffffffff021916908373ffffffffffffffffffffffffffffffffffffffff1602179055506121d282600e60008481526020019081526020016000205461304f90919063ffffffff16565b600e6000838152602001908152602001600020819055506121f4338284613326565b5050565b600082519050600082519050808214612246576040517f08c379a000000000000000000000000000000000000000000000000000000000815260040161223d90615717565b60405180910390fd5b60008090505b8281101561232f576122cc84828151811061226357fe5b60200260200101516006600088858151811061227b57fe5b602002602001015173ffffffffffffffffffffffffffffffffffffffff1673ffffffffffffffffffffffffffffffffffffffff16815260200190815260200160002054612f0a90919063ffffffff16565b600660008784815181106122dc57fe5b602002602001015173ffffffffffffffffffffffffffffffffffffffff1673ffffffffffffffffffffffffffffffffffffffff16815260200190815260200160002081905550808060010191505061224c565b5050505050565b60008090505b825181101561258557600083828151811061235357fe5b602002602001015190506060600960008381526020019081526020016000208054806020026020016040519081016040528092919081815260200182805480156123f257602002820191906000526020600020905b8160009054906101000a900473ffffffffffffffffffffffffffffffffffffffff1673ffffffffffffffffffffffffffffffffffffffff16815260200190600101908083116123a8575b505050505090506000600e600084815260200190815260200160002054905060008090505b825181101561257457600083828151811061242e57fe5b602002602001015190506000600a60008373ffffffffffffffffffffffffffffffffffffffff1673ffffffffffffffffffffffffffffffffffffffff1681526020019081526020016000206000878152602001908152602001600020549050600084828a8a8151811061249d57fe5b602002602001015102816124ad57fe5b0490506124cf88858b8b815181106124c157fe5b6020026020010151846134f4565b61252181600760008673ffffffffffffffffffffffffffffffffffffffff1673ffffffffffffffffffffffffffffffffffffffff1681526020019081526020016000205461304f90919063ffffffff16565b600760008573ffffffffffffffffffffffffffffffffffffffff1673ffffffffffffffffffffffffffffffffffffffff168152602001908152602001600020819055505050508080600101915050612417565b50505050808060010191505061233c565b505050565b6000600660008373ffffffffffffffffffffffffffffffffffffffff1673ffffffffffffffffffffffffffffffffffffffff168152602001908152602001600020549050919050565b60606000600860008473ffffffffffffffffffffffffffffffffffffffff1673ffffffffffffffffffffffffffffffffffffffff16815260200190815260200160002080549050905060608160405190808252806020026020018201604052801561265857816020015b61264561419c565b81526020019060019003908161263d5790505b50905060008090505b8281101561277f576000600860008773ffffffffffffffffffffffffffffffffffffffff1673ffffffffffffffffffffffffffffffffffffffff16815260200190815260200160002082815481106126b557fe5b90600052602060002001549050808383815181106126cf57fe5b60200260200101516000018181525050600a60008773ffffffffffffffffffffffffffffffffffffffff1673ffffffffffffffffffffffffffffffffffffffff16815260200190815260200160002060008281526020019081526020016000205483838151811061273c57fe5b6020026020010151602001818152505061275581611ab4565b83838151811061276157fe5b60200260200101516040018181525050508080600101915050612661565b508092505050919050565b612792611a5d565b6127d1576040517f08c379a00000000000000000000000000000000000000000000000000000000081526004016127c890615837565b60405180910390fd5b80600560006101000a81548173ffffffffffffffffffffffffffffffffffffffff021916908373ffffffffffffffffffffffffffffffffffffffff16021790555050565b6000600354905090565b6000600f600084815260200190815260200160002060060160009054906101000a900460ff169050600115158115151461288e576040517f08c379a000000000000000000000000000000000000000000000000000000000815260040161288590615777565b60405180910390fd5b6000600f60008581526020019081526020016000206001015490506000600f60008681526020019081526020016000206003015490506000600f600087815260200190815260200160002060050154905084811015612922576040517f08c379a0000000000000000000000000000000000000000000000000000000008152600401612919906158b7565b60405180910390fd5b8482023414612966576040517f08c379a000000000000000000000000000000000000000000000000000000000815260040161295d906156f7565b60405180910390fd5b600f600087815260200190815260200160002060020160009054906101000a900473ffffffffffffffffffffffffffffffffffffffff1673ffffffffffffffffffffffffffffffffffffffff166108fc349081150290604051600060405180830381858888f193505050501580156129e2573d6000803e3d6000fd5b50612a0c85600f600089815260200190815260200160002060050154612f0a90919063ffffffff16565b600f6000888152602001908152602001600020600501819055506000600f6000888152602001908152602001600020600501541415612a4f57612a4e866130b2565b5b612a90600f600088815260200190815260200160002060020160009054906101000a900473ffffffffffffffffffffffffffffffffffffffff168487613596565b612a9b338487613326565b600560009054906101000a900473ffffffffffffffffffffffffffffffffffffffff1673ffffffffffffffffffffffffffffffffffffffff1663f242432a303386896040518563ffffffff1660e01b8152600401612afc9493929190615492565b600060405180830381600087803b158015612b1657600080fd5b505af1158015612b2a573d6000803e3d6000fd5b5050505082867f600918f9eafb4d7ea2306fe40426faf0301ad83352c5dc1a74978e5ae36345b6600f60008a815260200190815260200160002060020160009054906101000a900473ffffffffffffffffffffffffffffffffffffffff163386600f60008d8152602001908152602001600020600401548b600f60008f815260200190815260200160002060050154604051612bcb9695949392919061536b565b60405180910390a3505050505050565b612be3611a5d565b612c22576040517f08c379a0000000000000000000000000000000000000000000000000000000008152600401612c1990615837565b60405180910390fd5b8060038190555050565b6000600d600083815260200190815260200160002060009054906101000a900473ffffffffffffffffffffffffffffffffffffffff169050919050565b600063e78b332560e01b905095945050505050565b612c86611a5d565b612cc5576040517f08c379a0000000000000000000000000000000000000000000000000000000008152600401612cbc90615837565b60405180910390fd5b612cce81613a4e565b50565b60008211612d14576040517f08c379a0000000000000000000000000000000000000000000000000000000008152600401612d0b906158f7565b60405180910390fd5b6000612d2060106130a4565b9050612d2c6010613b7c565b6040518060e001604052808281526020018581526020013373ffffffffffffffffffffffffffffffffffffffff16815260200184815260200183815260200183815260200160011515815250600f6000838152602001908152602001600020600082015181600001556020820151816001015560408201518160020160006101000a81548173ffffffffffffffffffffffffffffffffffffffff021916908373ffffffffffffffffffffffffffffffffffffffff160217905550606082015181600301556080820151816004015560a0820151816005015560c08201518160060160006101000a81548160ff021916908315150217905550905050600560009054906101000a900473ffffffffffffffffffffffffffffffffffffffff1673ffffffffffffffffffffffffffffffffffffffff1663f242432a333087866040518563ffffffff1660e01b8152600401612e8894939291906153cc565b600060405180830381600087803b158015612ea257600080fd5b505af1158015612eb6573d6000803e3d6000fd5b50505050612ec5338584613b92565b83817f57fb6a47e970e71c47b9023fb3c64b4a6916a36ddb11d2531591a07afaddd00633868687604051612efc949392919061544d565b60405180910390a350505050565b6000612f4c83836040518060400160405280601e81526020017f536166654d6174683a207375627472616374696f6e206f766572666c6f770000815250613d33565b905092915050565b6000600460009054906101000a900473ffffffffffffffffffffffffffffffffffffffff1673ffffffffffffffffffffffffffffffffffffffff166323b872dd8585856040518463ffffffff1660e01b8152600401612fb5939291906154ea565b602060405180830381600087803b158015612fcf57600080fd5b505af1158015612fe3573d6000803e3d6000fd5b505050506040513d601f19601f820116820180604052506130079190810190614648565b905080613049576040517f08c379a000000000000000000000000000000000000000000000000000000000815260040161304090615797565b60405180910390fd5b50505050565b60008082840190508381101561309a576040517f08c379a0000000000000000000000000000000000000000000000000000000008152600401613091906156b7565b60405180910390fd5b8091505092915050565b600081600001549050919050565b6000600f600083815260200190815260200160002060060160006101000a81548160ff0219169083151502179055506130eb6011613b7c565b50565b61315181600b60008673ffffffffffffffffffffffffffffffffffffffff1673ffffffffffffffffffffffffffffffffffffffff168152602001908152602001600020600085815260200190815260200160002054612f0a90919063ffffffff16565b600b60008573ffffffffffffffffffffffffffffffffffffffff1673ffffffffffffffffffffffffffffffffffffffff168152602001908152602001600020600084815260200190815260200160002081905550505050565b6131be816001613d8e90919063ffffffff16565b8073ffffffffffffffffffffffffffffffffffffffff167f6ae172837ea30b801fbfcdd4108aa1d5bf8ff775444fd70256b44e6bf3dfc3f660405160405180910390a250565b613218816001613e3690919063ffffffff16565b8073ffffffffffffffffffffffffffffffffffffffff167fe94479a9f7e1952cc78f2d6baab678adc1b772d936c6583def489e524cb6669260405160405180910390a250565b60008073ffffffffffffffffffffffffffffffffffffffff168273ffffffffffffffffffffffffffffffffffffffff1614156132cf576040517f08c379a00000000000000000000000000000000000000000000000000000000081526004016132c690615857565b60405180910390fd5b8260000160008373ffffffffffffffffffffffffffffffffffffffff1673ffffffffffffffffffffffffffffffffffffffff16815260200190815260200160002060009054906101000a900460ff16905092915050565b7fffffffffffffffffffffffffffffffffffffffffffffffffffffffffffffffff6133518484613edd565b141561343857600860008473ffffffffffffffffffffffffffffffffffffffff1673ffffffffffffffffffffffffffffffffffffffff168152602001908152602001600020829080600181540180825580915050906001820390600052602060002001600090919290919091505550600960008381526020019081526020016000208390806001815401808255809150509060018203906000526020600020016000909192909190916101000a81548173ffffffffffffffffffffffffffffffffffffffff021916908373ffffffffffffffffffffffffffffffffffffffff160217905550505b61349b81600a60008673ffffffffffffffffffffffffffffffffffffffff1673ffffffffffffffffffffffffffffffffffffffff16815260200190815260200160002060008581526020019081526020016000205461304f90919063ffffffff16565b600a60008573ffffffffffffffffffffffffffffffffffffffff1673ffffffffffffffffffffffffffffffffffffffff168152602001908152602001600020600084815260200190815260200160002081905550505050565b6135908484848460405160240161350e949392919061596d565b6040516020818303038152906040527f5ca0ad3e000000000000000000000000000000000000000000000000000000007bffffffffffffffffffffffffffffffffffffffffffffffffffffffff19166020820180517bffffffffffffffffffffffffffffffffffffffffffffffffffffffff8381831617835250505050613fd9565b50505050565b80600a60008573ffffffffffffffffffffffffffffffffffffffff1673ffffffffffffffffffffffffffffffffffffffff1681526020019081526020016000206000848152602001908152602001600020541015613629576040517f08c379a0000000000000000000000000000000000000000000000000000000008152600401613620906157b7565b60405180910390fd5b61368c81600a60008673ffffffffffffffffffffffffffffffffffffffff1673ffffffffffffffffffffffffffffffffffffffff168152602001908152602001600020600085815260200190815260200160002054612f0a90919063ffffffff16565b600a60008573ffffffffffffffffffffffffffffffffffffffff1673ffffffffffffffffffffffffffffffffffffffff1681526020019081526020016000206000848152602001908152602001600020819055506000600a60008573ffffffffffffffffffffffffffffffffffffffff1673ffffffffffffffffffffffffffffffffffffffff1681526020019081526020016000206000848152602001908152602001600020541415613a495760006137458484613edd565b9050600081101561378b576040517f08c379a000000000000000000000000000000000000000000000000000000000815260040161378290615737565b60405180910390fd5b600860008573ffffffffffffffffffffffffffffffffffffffff1673ffffffffffffffffffffffffffffffffffffffff1681526020019081526020016000206001600860008773ffffffffffffffffffffffffffffffffffffffff1673ffffffffffffffffffffffffffffffffffffffff16815260200190815260200160002080549050038154811061381a57fe5b9060005260206000200154600860008673ffffffffffffffffffffffffffffffffffffffff1673ffffffffffffffffffffffffffffffffffffffff168152602001908152602001600020828154811061386f57fe5b9060005260206000200181905550600860008573ffffffffffffffffffffffffffffffffffffffff1673ffffffffffffffffffffffffffffffffffffffff1681526020019081526020016000208054806138c557fe5b6001900381819060005260206000200160009055905560006138e78585614002565b9050600081101561392d576040517f08c379a000000000000000000000000000000000000000000000000000000000815260040161392490615817565b60405180910390fd5b6009600085815260200190815260200160002060016009600087815260200190815260200160002080549050038154811061396457fe5b9060005260206000200160009054906101000a900473ffffffffffffffffffffffffffffffffffffffff166009600086815260200190815260200160002082815481106139ad57fe5b9060005260206000200160006101000a81548173ffffffffffffffffffffffffffffffffffffffff021916908373ffffffffffffffffffffffffffffffffffffffff16021790555060096000858152602001908152602001600020805480613a1157fe5b6001900381819060005260206000200160006101000a81549073ffffffffffffffffffffffffffffffffffffffff0219169055905550505b505050565b600073ffffffffffffffffffffffffffffffffffffffff168173ffffffffffffffffffffffffffffffffffffffff161415613abe576040517f08c379a0000000000000000000000000000000000000000000000000000000008152600401613ab590615697565b60405180910390fd5b8073ffffffffffffffffffffffffffffffffffffffff166000809054906101000a900473ffffffffffffffffffffffffffffffffffffffff1673ffffffffffffffffffffffffffffffffffffffff167f8be0079c531659141344cd1fd0a4f28419497f9722a3daafe3b4186f6b6457e060405160405180910390a3806000806101000a81548173ffffffffffffffffffffffffffffffffffffffff021916908373ffffffffffffffffffffffffffffffffffffffff16021790555050565b6001816000016000828254019250508190555050565b80600b60008573ffffffffffffffffffffffffffffffffffffffff1673ffffffffffffffffffffffffffffffffffffffff16815260200190815260200160002060008481526020019081526020016000205401600a60008573ffffffffffffffffffffffffffffffffffffffff1673ffffffffffffffffffffffffffffffffffffffff1681526020019081526020016000206000848152602001908152602001600020541015613c77576040517f08c379a0000000000000000000000000000000000000000000000000000000008152600401613c6e906157b7565b60405180910390fd5b613cda81600b60008673ffffffffffffffffffffffffffffffffffffffff1673ffffffffffffffffffffffffffffffffffffffff16815260200190815260200160002060008581526020019081526020016000205461304f90919063ffffffff16565b600b60008573ffffffffffffffffffffffffffffffffffffffff1673ffffffffffffffffffffffffffffffffffffffff168152602001908152602001600020600084815260200190815260200160002081905550505050565b6000838311158290613d7b576040517f08c379a0000000000000000000000000000000000000000000000000000000008152600401613d729190615615565b60405180910390fd5b5060008385039050809150509392505050565b613d98828261325e565b15613dd8576040517f08c379a0000000000000000000000000000000000000000000000000000000008152600401613dcf90615657565b60405180910390fd5b60018260000160008373ffffffffffffffffffffffffffffffffffffffff1673ffffffffffffffffffffffffffffffffffffffff16815260200190815260200160002060006101000a81548160ff0219169083151502179055505050565b613e40828261325e565b613e7f576040517f08c379a0000000000000000000000000000000000000000000000000000000008152600401613e76906157f7565b60405180910390fd5b60008260000160008373ffffffffffffffffffffffffffffffffffffffff1673ffffffffffffffffffffffffffffffffffffffff16815260200190815260200160002060006101000a81548160ff0219169083151502179055505050565b600080600860008573ffffffffffffffffffffffffffffffffffffffff1673ffffffffffffffffffffffffffffffffffffffff16815260200190815260200160002080549050905060008090505b81811015613fad576000600860008773ffffffffffffffffffffffffffffffffffffffff1673ffffffffffffffffffffffffffffffffffffffff1681526020019081526020016000208281548110613f7f57fe5b9060005260206000200154905080851415613f9f57819350505050613fd3565b508080600101915050613f2b565b507fffffffffffffffffffffffffffffffffffffffffffffffffffffffffffffffff9150505b92915050565b60008151905060006a636f6e736f6c652e6c6f679050602083016000808483855afa5050505050565b6000806009600084815260200190815260200160002080549050905060008090505b818110156140c657600060096000868152602001908152602001600020828154811061404c57fe5b9060005260206000200160009054906101000a900473ffffffffffffffffffffffffffffffffffffffff1690508073ffffffffffffffffffffffffffffffffffffffff168673ffffffffffffffffffffffffffffffffffffffff1614156140b8578193505050506140ec565b508080600101915050614024565b507fffffffffffffffffffffffffffffffffffffffffffffffffffffffffffffffff9150505b92915050565b6040518060e001604052806000815260200160008152602001600073ffffffffffffffffffffffffffffffffffffffff1681526020016000815260200160008152602001600081526020016000151581525090565b6040518060e001604052806000815260200160008152602001600073ffffffffffffffffffffffffffffffffffffffff1681526020016000815260200160008152602001600081526020016000151581525090565b60405180606001604052806000815260200160008152602001600081525090565b60006141c98235615c1c565b905092915050565b60006141dd8235615c2e565b905092915050565b600082601f8301126141f657600080fd5b8135614209614204826159df565b6159b2565b9150818183526020840193506020810190508385602084028201111561422e57600080fd5b60005b8381101561425e578161424488826141bd565b845260208401935060208301925050600181019050614231565b5050505092915050565b600082601f83011261427957600080fd5b813561428c61428782615a07565b6159b2565b915081818352602084019350602081019050838560208402820111156142b157600080fd5b60005b838110156142e157816142c78882614367565b8452602084019350602083019250506001810190506142b4565b5050505092915050565b60006142f78251615c40565b905092915050565b600061430b8235615c4c565b905092915050565b600082601f83011261432457600080fd5b813561433761433282615a2f565b6159b2565b9150808252602083016020830185838301111561435357600080fd5b61435e838284615d20565b50505092915050565b60006143738235615c98565b905092915050565b60006143878251615c98565b905092915050565b6000602082840312156143a157600080fd5b60006143af848285016141bd565b91505092915050565b6000602082840312156143ca57600080fd5b60006143d8848285016141d1565b91505092915050565b600080600080600060a086880312156143f957600080fd5b6000614407888289016141bd565b9550506020614418888289016141bd565b945050604086013567ffffffffffffffff81111561443557600080fd5b61444188828901614268565b935050606086013567ffffffffffffffff81111561445e57600080fd5b61446a88828901614268565b925050608086013567ffffffffffffffff81111561448757600080fd5b61449388828901614313565b9150509295509295909350565b600080600080600060a086880312156144b857600080fd5b60006144c6888289016141bd565b95505060206144d7888289016141bd565b94505060406144e888828901614367565b93505060606144f988828901614367565b925050608086013567ffffffffffffffff81111561451657600080fd5b61452288828901614313565b9150509295509295909350565b60006020828403121561454157600080fd5b600082013567ffffffffffffffff81111561455b57600080fd5b614567848285016141e5565b91505092915050565b6000806040838503121561458357600080fd5b600083013567ffffffffffffffff81111561459d57600080fd5b6145a9858286016141e5565b925050602083013567ffffffffffffffff8111156145c657600080fd5b6145d285828601614268565b9150509250929050565b600080604083850312156145ef57600080fd5b600083013567ffffffffffffffff81111561460957600080fd5b61461585828601614268565b925050602083013567ffffffffffffffff81111561463257600080fd5b61463e85828601614268565b9150509250929050565b60006020828403121561465a57600080fd5b6000614668848285016142eb565b91505092915050565b60006020828403121561468357600080fd5b6000614691848285016142ff565b91505092915050565b6000602082840312156146ac57600080fd5b60006146ba84828501614367565b91505092915050565b6000602082840312156146d557600080fd5b60006146e38482850161437b565b91505092915050565b600080604083850312156146ff57600080fd5b600061470d85828601614367565b925050602061471e85828601614367565b9150509250929050565b60008060006060848603121561473d57600080fd5b600061474b86828701614367565b935050602061475c86828701614367565b925050604061476d86828701614367565b9150509250925092565b60006147838383614934565b905092915050565b6000614797838361521e565b60e08301905092915050565b60006147af83836152ac565b60608301905092915050565b60006147c783836152ee565b60208301905092915050565b6147dc81615ca2565b82525050565b6147eb81615ba8565b82525050565b6147fa81615ba8565b82525050565b61480981615b96565b82525050565b600061481a82615a9c565b6148248185615b1f565b93508360208202850161483685615a5b565b60005b8481101561486f578383038852614851838351614777565b925061485c82615ade565b9150602088019750600181019050614839565b508196508694505050505092915050565b600061488b82615aa7565b6148958185615b30565b93506148a083615a68565b60005b828110156148ce576148b686835161478b565b95506148c182615aeb565b91506001810190506148a3565b50849250505092915050565b60006148e582615abd565b6148ef8185615b52565b93506148fa83615a82565b60005b82811015614928576149108683516147a3565b955061491b82615b05565b91506001810190506148fd565b50849250505092915050565b600061493f82615ab2565b6149498185615b41565b935061495483615a75565b60005b828110156149825761496a8683516147a3565b955061497582615af8565b9150600181019050614957565b50849250505092915050565b600061499982615ac8565b6149a38185615b63565b93506149ae83615a8f565b60005b828110156149dc576149c48683516147bb565b95506149cf82615b12565b91506001810190506149b1565b50849250505092915050565b6149f181615bba565b82525050565b614a0081615bba565b82525050565b614a0f81615bc6565b82525050565b614a1e81615cb4565b82525050565b614a2d81615cd8565b82525050565b6000614a3e82615ad3565b614a488185615b85565b9350614a58818560208601615d2f565b614a6181615d62565b840191505092915050565b6000614a79601a83615b85565b91507f4e6f7420456e6f756768204465706f7369742062616c616e63650000000000006000830152602082019050919050565b6000614ab9601f83615b85565b91507f526f6c65733a206163636f756e7420616c72656164792068617320726f6c65006000830152602082019050919050565b6000614af9601c83615b85565b91507f596f75206d75737420706179206174206c656173742031204b6c6179000000006000830152602082019050919050565b6000614b39602683615b85565b91507f4f776e61626c653a206e6577206f776e657220697320746865207a65726f206160008301527f64647265737300000000000000000000000000000000000000000000000000006020830152604082019050919050565b6000614b9f601b83615b85565b91507f536166654d6174683a206164646974696f6e206f766572666c6f7700000000006000830152602082019050919050565b6000614bdf602983615b85565b91507f4b495033373a2062616c616e636520717565727920666f7220746865207a657260008301527f6f206164647265737300000000000000000000000000000000000000000000006020830152604082019050919050565b6000614c45603183615b85565b91507f54686520707572636861736520707269636520616e642073616c65732070726960008301527f63652061726520646966666572656e742e0000000000000000000000000000006020830152604082019050919050565b6000614cab601883615b85565b91507f546865206c656e67746820697320646966666572656e742e00000000000000006000830152602082019050919050565b6000614ceb601e83615b85565b91507f57726f6e6720496e646578285f67657455736572534654496e646578292e00006000830152602082019050919050565b6000614d2b602083615b85565b91507f53657276696365204d53546f6b656e20697320696e73756666696369656e742e6000830152602082019050919050565b6000614d6b601a83615b85565b91507f54686973204d61726b65744974656d20697320636c6f7365642e0000000000006000830152602082019050919050565b6000614dab601783615b85565b91507f6d73746f6b656e207472616e73666572206661696c65640000000000000000006000830152602082019050919050565b6000614deb601a83615b85565b91507f55736572205346542042616c616e636573206973206c6573732e0000000000006000830152602082019050919050565b6000614e2b603083615b85565b91507f4d696e746572526f6c653a2063616c6c657220646f6573206e6f74206861766560008301527f20746865204d696e74657220726f6c65000000000000000000000000000000006020830152604082019050919050565b6000614e91602183615b85565b91507f526f6c65733a206163636f756e7420646f6573206e6f74206861766520726f6c60008301527f65000000000000000000000000000000000000000000000000000000000000006020830152604082019050919050565b6000614ef7601e83615b85565b91507f57726f6e6720496e646578285f67657453465455736572496e646578292e00006000830152602082019050919050565b6000614f37602083615b85565b91507f4f776e61626c653a2063616c6c6572206973206e6f7420746865206f776e65726000830152602082019050919050565b6000614f77602283615b85565b91507f526f6c65733a206163636f756e7420697320746865207a65726f20616464726560008301527f73730000000000000000000000000000000000000000000000000000000000006020830152604082019050919050565b6000614fdd601f83615b85565b91507f4e6f7420456e6f75676820446973747269627574696f6e2062616c616e6365006000830152602082019050919050565b600061501d601983615b85565b91507f6d73746f6b656e20616c6c6f77616e636520746f6f206c6f77000000000000006000830152602082019050919050565b600061505d600083615b74565b9150600082019050919050565b6000615077603a83615b85565b91507f54686520707572636861736520766f6c756d65206973206c617267657220746860008301527f616e207468652072656d61696e696e67207175616e746974792e0000000000006020830152604082019050919050565b60006150dd601783615b85565b91507f4f6e6c792053656c6c65722063616e2063616e63656c2e0000000000000000006000830152602082019050919050565b600061511d601c83615b85565b91507f5072696365206d757374206265206174206c65617374203120776569000000006000830152602082019050919050565b600061515d600c83615b85565b91507f4b6c617920746f6f206c6f7700000000000000000000000000000000000000006000830152602082019050919050565b60e0820160008201516151a660008501826152ee565b5060208201516151b960208501826152ee565b5060408201516151cc60408501826147e2565b5060608201516151df60608501826152ee565b5060808201516151f260808501826152ee565b5060a082015161520560a08501826152ee565b5060c082015161521860c08501826149e8565b50505050565b60e08201600082015161523460008501826152ee565b50602082015161524760208501826152ee565b50604082015161525a60408501826147e2565b50606082015161526d60608501826152ee565b50608082015161528060808501826152ee565b5060a082015161529360a08501826152ee565b5060c08201516152a660c08501826149e8565b50505050565b6060820160008201516152c260008501826152ee565b5060208201516152d560208501826152ee565b5060408201516152e860408501826152ee565b50505050565b6152f781615c12565b82525050565b61530681615c12565b82525050565b60006020820190506153216000830184614800565b92915050565b600060208201905061533c60008301846147f1565b92915050565b600060408201905061535760008301856147d3565b6153646020830184614800565b9392505050565b600060c08201905061538060008301896147d3565b61538d60208301886147d3565b61539a60408301876152fd565b6153a760608301866152fd565b6153b460808301856152fd565b6153c160a08301846152fd565b979650505050505050565b600060a0820190506153e160008301876147d3565b6153ee6020830186614800565b6153fb60408301856152fd565b61540860608301846152fd565b818103608083015261541981615050565b905095945050505050565b600060408201905061543960008301856147d3565b61544660208301846152fd565b9392505050565b600060808201905061546260008301876147d3565b61546f60208301866152fd565b61547c60408301856152fd565b61548960608301846152fd565b95945050505050565b600060a0820190506154a76000830187614800565b6154b460208301866147d3565b6154c160408301856152fd565b6154ce60608301846152fd565b81810360808301526154df81615050565b905095945050505050565b60006060820190506154ff6000830186614800565b61550c6020830185614800565b61551960408301846152fd565b949350505050565b6000602082019050818103600083015261553b818461480f565b905092915050565b6000602082019050818103600083015261555d8184614880565b905092915050565b6000602082019050818103600083015261557f81846148da565b905092915050565b600060208201905081810360008301526155a1818461498e565b905092915050565b60006020820190506155be60008301846149f7565b92915050565b60006020820190506155d96000830184614a06565b92915050565b60006020820190506155f46000830184614a15565b92915050565b600060208201905061560f6000830184614a24565b92915050565b6000602082019050818103600083015261562f8184614a33565b905092915050565b6000602082019050818103600083015261565081614a6c565b9050919050565b6000602082019050818103600083015261567081614aac565b9050919050565b6000602082019050818103600083015261569081614aec565b9050919050565b600060208201905081810360008301526156b081614b2c565b9050919050565b600060208201905081810360008301526156d081614b92565b9050919050565b600060208201905081810360008301526156f081614bd2565b9050919050565b6000602082019050818103600083015261571081614c38565b9050919050565b6000602082019050818103600083015261573081614c9e565b9050919050565b6000602082019050818103600083015261575081614cde565b9050919050565b6000602082019050818103600083015261577081614d1e565b9050919050565b6000602082019050818103600083015261579081614d5e565b9050919050565b600060208201905081810360008301526157b081614d9e565b9050919050565b600060208201905081810360008301526157d081614dde565b9050919050565b600060208201905081810360008301526157f081614e1e565b9050919050565b6000602082019050818103600083015261581081614e84565b9050919050565b6000602082019050818103600083015261583081614eea565b9050919050565b6000602082019050818103600083015261585081614f2a565b9050919050565b6000602082019050818103600083015261587081614f6a565b9050919050565b6000602082019050818103600083015261589081614fd0565b9050919050565b600060208201905081810360008301526158b081615010565b9050919050565b600060208201905081810360008301526158d08161506a565b9050919050565b600060208201905081810360008301526158f0816150d0565b9050919050565b6000602082019050818103600083015261591081615110565b9050919050565b6000602082019050818103600083015261593081615150565b9050919050565b600060e08201905061594c6000830184615190565b92915050565b600060208201905061596760008301846152fd565b92915050565b600060808201905061598260008301876152fd565b61598f60208301866152fd565b61599c60408301856152fd565b6159a960608301846152fd565b95945050505050565b6000604051905081810181811067ffffffffffffffff821117156159d557600080fd5b8060405250919050565b600067ffffffffffffffff8211156159f657600080fd5b602082029050602081019050919050565b600067ffffffffffffffff821115615a1e57600080fd5b602082029050602081019050919050565b600067ffffffffffffffff821115615a4657600080fd5b601f19601f8301169050602081019050919050565b6000602082019050919050565b6000602082019050919050565b6000602082019050919050565b6000602082019050919050565b6000602082019050919050565b600081519050919050565b600081519050919050565b600081519050919050565b600081519050919050565b600081519050919050565b600081519050919050565b6000602082019050919050565b6000602082019050919050565b6000602082019050919050565b6000602082019050919050565b6000602082019050919050565b600082825260208201905092915050565b600082825260208201905092915050565b600082825260208201905092915050565b600082825260208201905092915050565b600082825260208201905092915050565b600082825260208201905092915050565b600082825260208201905092915050565b6000615ba182615bf2565b9050919050565b6000615bb382615bf2565b9050919050565b60008115159050919050565b60007fffffffff0000000000000000000000000000000000000000000000000000000082169050919050565b600073ffffffffffffffffffffffffffffffffffffffff82169050919050565b6000819050919050565b6000615c2782615c78565b9050919050565b6000615c3982615c78565b9050919050565b60008115159050919050565b60007fffffffff0000000000000000000000000000000000000000000000000000000082169050919050565b600073ffffffffffffffffffffffffffffffffffffffff82169050919050565b6000819050919050565b6000615cad82615cfc565b9050919050565b6000615cbf82615cc6565b9050919050565b6000615cd182615bf2565b9050919050565b6000615ce382615cea565b9050919050565b6000615cf582615bf2565b9050919050565b6000615d0782615d0e565b9050919050565b6000615d1982615bf2565b9050919050565b82818337600083830152505050565b60005b83811015615d4d578082015181840152602081019050615d32565b83811115615d5c576000848401525b50505050565b6000601f19601f830116905091905056fea265627a7a7230582065cf88ff5d541b5175b040a95d8b7cceec1ce079bb2bd589f252796d76226fd86c6578706572696d656e74616cf50037",
  "linkReferences": {},
  "deployedLinkReferences": {}
}