{
  "_format": "hh-sol-artifact-1",
  "contractName": "MusicStoneService",
  "sourceName": "contracts/MusicStoneService.sol",
  "abi": [
    {
      "constant": false,
      "inputs": [
        {
          "name": "_amount",
          "type": "uint256"
        }
      ],
      "name": "withdrawalDeposit",
      "outputs": [],
      "payable": false,
      "stateMutability": "nonpayable",
      "type": "function"
    },
    {
      "constant": true,
      "inputs": [
        {
          "name": "_account",
          "type": "address"
        }
      ],
      "name": "getArtistSfts",
      "outputs": [
        {
          "name": "",
          "type": "uint256[]"
        }
      ],
      "payable": false,
      "stateMutability": "view",
      "type": "function"
    },
    {
      "constant": true,
      "inputs": [
        {
          "name": "interfaceId",
          "type": "bytes4"
        }
      ],
      "name": "supportsInterface",
      "outputs": [
        {
          "name": "",
          "type": "bool"
        }
      ],
      "payable": false,
      "stateMutability": "view",
      "type": "function"
    },
    {
      "constant": false,
      "inputs": [
        {
          "name": "_token",
          "type": "address"
        }
      ],
      "name": "setToken",
      "outputs": [],
      "payable": false,
      "stateMutability": "nonpayable",
      "type": "function"
    },
    {
      "constant": false,
      "inputs": [
        {
          "name": "_amount",
          "type": "uint256"
        }
      ],
      "name": "withdrawalDistribution",
      "outputs": [],
      "payable": false,
      "stateMutability": "nonpayable",
      "type": "function"
    },
    {
      "constant": false,
      "inputs": [
        {
          "name": "_amount",
          "type": "uint256"
        }
      ],
      "name": "sellToken",
      "outputs": [],
      "payable": true,
      "stateMutability": "payable",
      "type": "function"
    },
    {
      "constant": true,
      "inputs": [],
      "name": "mstoken",
      "outputs": [
        {
          "name": "",
          "type": "address"
        }
      ],
      "payable": false,
      "stateMutability": "view",
      "type": "function"
    },
    {
      "constant": false,
      "inputs": [],
      "name": "withdraw",
      "outputs": [],
      "payable": true,
      "stateMutability": "payable",
      "type": "function"
    },
    {
      "constant": false,
      "inputs": [
        {
          "name": "_amount",
          "type": "uint256"
        }
      ],
      "name": "depositMSToken",
      "outputs": [],
      "payable": false,
      "stateMutability": "nonpayable",
      "type": "function"
    },
    {
      "constant": true,
      "inputs": [
        {
          "name": "_seller",
          "type": "address"
        }
      ],
      "name": "getItemsBySeller",
      "outputs": [
        {
          "components": [
            {
              "name": "itemId",
              "type": "uint256"
            },
            {
              "name": "tokenId",
              "type": "uint256"
            },
            {
              "name": "seller",
              "type": "address"
            },
            {
              "name": "unit_price",
              "type": "uint256"
            },
            {
              "name": "total_amount",
              "type": "uint256"
            },
            {
              "name": "remaining_amount",
              "type": "uint256"
            },
            {
              "name": "isOpened",
              "type": "bool"
            }
          ],
          "name": "",
          "type": "tuple[]"
        }
      ],
      "payable": false,
      "stateMutability": "view",
      "type": "function"
    },
    {
      "constant": true,
      "inputs": [],
      "name": "mssft",
      "outputs": [
        {
          "name": "",
          "type": "address"
        }
      ],
      "payable": false,
      "stateMutability": "view",
      "type": "function"
    },
    {
      "constant": false,
      "inputs": [
        {
          "name": "itemId",
          "type": "uint256"
        }
      ],
      "name": "cancelItem",
      "outputs": [],
      "payable": false,
      "stateMutability": "nonpayable",
      "type": "function"
    },
    {
      "constant": true,
      "inputs": [
        {
          "name": "marketItemId",
          "type": "uint256"
        }
      ],
      "name": "getMarketItemById",
      "outputs": [
        {
          "components": [
            {
              "name": "itemId",
              "type": "uint256"
            },
            {
              "name": "tokenId",
              "type": "uint256"
            },
            {
              "name": "seller",
              "type": "address"
            },
            {
              "name": "unit_price",
              "type": "uint256"
            },
            {
              "name": "total_amount",
              "type": "uint256"
            },
            {
              "name": "remaining_amount",
              "type": "uint256"
            },
            {
              "name": "isOpened",
              "type": "bool"
            }
          ],
          "name": "",
          "type": "tuple"
        }
      ],
      "payable": false,
      "stateMutability": "view",
      "type": "function"
    },
    {
      "constant": true,
      "inputs": [
        {
          "name": "_account",
          "type": "address[]"
        }
      ],
      "name": "getUsersAllSFTs",
      "outputs": [
        {
          "components": [
            {
              "name": "id",
              "type": "uint256"
            },
            {
              "name": "balance",
              "type": "uint256"
            },
            {
              "name": "totalSupply",
              "type": "uint256"
            }
          ],
          "name": "",
          "type": "tuple[][]"
        }
      ],
      "payable": false,
      "stateMutability": "view",
      "type": "function"
    },
    {
      "constant": false,
      "inputs": [],
      "name": "renounceOwnership",
      "outputs": [],
      "payable": false,
      "stateMutability": "nonpayable",
      "type": "function"
    },
    {
      "constant": true,
      "inputs": [],
      "name": "owner",
      "outputs": [
        {
          "name": "",
          "type": "address"
        }
      ],
      "payable": false,
      "stateMutability": "view",
      "type": "function"
    },
    {
      "constant": true,
      "inputs": [],
      "name": "isOwner",
      "outputs": [
        {
          "name": "",
          "type": "bool"
        }
      ],
      "payable": false,
      "stateMutability": "view",
      "type": "function"
    },
    {
      "constant": true,
      "inputs": [
        {
          "name": "_id",
          "type": "uint256"
        }
      ],
      "name": "totalSFTSupply",
      "outputs": [
        {
          "name": "",
          "type": "uint256"
        }
      ],
      "payable": false,
      "stateMutability": "view",
      "type": "function"
    },
    {
      "constant": true,
      "inputs": [],
      "name": "getAllowance",
      "outputs": [
        {
          "name": "",
          "type": "uint256"
        }
      ],
      "payable": false,
      "stateMutability": "view",
      "type": "function"
    },
    {
      "constant": false,
      "inputs": [
        {
          "name": "account",
          "type": "address"
        }
      ],
      "name": "addMinter",
      "outputs": [],
      "payable": false,
      "stateMutability": "nonpayable",
      "type": "function"
    },
    {
      "constant": false,
      "inputs": [],
      "name": "renounceMinter",
      "outputs": [],
      "payable": false,
      "stateMutability": "nonpayable",
      "type": "function"
    },
    {
      "constant": false,
      "inputs": [
        {
          "name": "",
          "type": "address"
        },
        {
          "name": "",
          "type": "address"
        },
        {
          "name": "",
          "type": "uint256[]"
        },
        {
          "name": "",
          "type": "uint256[]"
        },
        {
          "name": "",
          "type": "bytes"
        }
      ],
      "name": "onKIP37BatchReceived",
      "outputs": [
        {
          "name": "",
          "type": "bytes4"
        }
      ],
      "payable": false,
      "stateMutability": "nonpayable",
      "type": "function"
    },
    {
      "constant": true,
      "inputs": [],
      "name": "getUnsoldItems",
      "outputs": [
        {
          "components": [
            {
              "name": "itemId",
              "type": "uint256"
            },
            {
              "name": "tokenId",
              "type": "uint256"
            },
            {
              "name": "seller",
              "type": "address"
            },
            {
              "name": "unit_price",
              "type": "uint256"
            },
            {
              "name": "total_amount",
              "type": "uint256"
            },
            {
              "name": "remaining_amount",
              "type": "uint256"
            },
            {
              "name": "isOpened",
              "type": "bool"
            }
          ],
          "name": "",
          "type": "tuple[]"
        }
      ],
      "payable": false,
      "stateMutability": "view",
      "type": "function"
    },
    {
      "constant": false,
      "inputs": [],
      "name": "buyToken",
      "outputs": [],
      "payable": true,
      "stateMutability": "payable",
      "type": "function"
    },
    {
      "constant": true,
      "inputs": [
        {
          "name": "_address",
          "type": "address"
        }
      ],
      "name": "getUserDistribution",
      "outputs": [
        {
          "name": "",
          "type": "uint256"
        }
      ],
      "payable": false,
      "stateMutability": "view",
      "type": "function"
    },
    {
      "constant": true,
      "inputs": [
        {
          "name": "account",
          "type": "address"
        }
      ],
      "name": "isMinter",
      "outputs": [
        {
          "name": "",
          "type": "bool"
        }
      ],
      "payable": false,
      "stateMutability": "view",
      "type": "function"
    },
    {
      "constant": false,
      "inputs": [
        {
          "name": "_amount",
          "type": "uint256"
        }
      ],
      "name": "mintSFT",
      "outputs": [],
      "payable": false,
      "stateMutability": "nonpayable",
      "type": "function"
    },
    {
      "constant": false,
      "inputs": [
        {
          "name": "_address",
          "type": "address[]"
        },
        {
          "name": "_deduct_token",
          "type": "uint256[]"
        }
      ],
      "name": "deduction",
      "outputs": [],
      "payable": false,
      "stateMutability": "nonpayable",
      "type": "function"
    },
    {
      "constant": false,
      "inputs": [
        {
          "name": "_sft_token",
          "type": "uint256[]"
        },
        {
          "name": "_distribute_amount",
          "type": "uint256[]"
        }
      ],
      "name": "distribution",
      "outputs": [],
      "payable": false,
      "stateMutability": "nonpayable",
      "type": "function"
    },
    {
      "constant": true,
      "inputs": [
        {
          "name": "_address",
          "type": "address"
        }
      ],
      "name": "getUserDeposit",
      "outputs": [
        {
          "name": "",
          "type": "uint256"
        }
      ],
      "payable": false,
      "stateMutability": "view",
      "type": "function"
    },
    {
      "constant": true,
      "inputs": [
        {
          "name": "_account",
          "type": "address"
        }
      ],
      "name": "getUserAllSFTs",
      "outputs": [
        {
          "components": [
            {
              "name": "id",
              "type": "uint256"
            },
            {
              "name": "balance",
              "type": "uint256"
            },
            {
              "name": "totalSupply",
              "type": "uint256"
            }
          ],
          "name": "",
          "type": "tuple[]"
        }
      ],
      "payable": false,
      "stateMutability": "view",
      "type": "function"
    },
    {
      "constant": false,
      "inputs": [
        {
          "name": "_token",
          "type": "address"
        }
      ],
      "name": "setSFT",
      "outputs": [],
      "payable": false,
      "stateMutability": "nonpayable",
      "type": "function"
    },
    {
      "constant": true,
      "inputs": [],
      "name": "getTokenRatio",
      "outputs": [
        {
          "name": "",
          "type": "uint256"
        }
      ],
      "payable": false,
      "stateMutability": "view",
      "type": "function"
    },
    {
      "constant": false,
      "inputs": [
        {
          "name": "itemId",
          "type": "uint256"
        },
        {
          "name": "buy_amount",
          "type": "uint256"
        }
      ],
      "name": "purchaseItem",
      "outputs": [],
      "payable": true,
      "stateMutability": "payable",
      "type": "function"
    },
    {
      "constant": false,
      "inputs": [
        {
          "name": "_newTokenRatio",
          "type": "uint256"
        }
      ],
      "name": "setTokenRatio",
      "outputs": [],
      "payable": false,
      "stateMutability": "nonpayable",
      "type": "function"
    },
    {
      "constant": true,
      "inputs": [
        {
          "name": "_id",
          "type": "uint256"
        }
      ],
      "name": "getSftCreator",
      "outputs": [
        {
          "name": "",
          "type": "address"
        }
      ],
      "payable": false,
      "stateMutability": "view",
      "type": "function"
    },
    {
      "constant": false,
      "inputs": [
        {
          "name": "",
          "type": "address"
        },
        {
          "name": "",
          "type": "address"
        },
        {
          "name": "",
          "type": "uint256"
        },
        {
          "name": "",
          "type": "uint256"
        },
        {
          "name": "",
          "type": "bytes"
        }
      ],
      "name": "onKIP37Received",
      "outputs": [
        {
          "name": "",
          "type": "bytes4"
        }
      ],
      "payable": false,
      "stateMutability": "nonpayable",
      "type": "function"
    },
    {
      "constant": false,
      "inputs": [
        {
          "name": "newOwner",
          "type": "address"
        }
      ],
      "name": "transferOwnership",
      "outputs": [],
      "payable": false,
      "stateMutability": "nonpayable",
      "type": "function"
    },
    {
      "constant": false,
      "inputs": [
        {
          "name": "tokenId",
          "type": "uint256"
        },
        {
          "name": "unit_price",
          "type": "uint256"
        },
        {
          "name": "amount",
          "type": "uint256"
        }
      ],
      "name": "addItemToMarket",
      "outputs": [],
      "payable": true,
      "stateMutability": "payable",
      "type": "function"
    },
    {
      "inputs": [],
      "payable": false,
      "stateMutability": "nonpayable",
      "type": "constructor"
    },
    {
      "anonymous": false,
      "inputs": [
        {
          "indexed": true,
          "name": "itemId",
          "type": "uint256"
        },
        {
          "indexed": true,
          "name": "tokenId",
          "type": "uint256"
        },
        {
          "indexed": false,
          "name": "seller",
          "type": "address"
        },
        {
          "indexed": false,
          "name": "unit_price",
          "type": "uint256"
        },
        {
          "indexed": false,
          "name": "total_amount",
          "type": "uint256"
        },
        {
          "indexed": false,
          "name": "remaining_amount",
          "type": "uint256"
        }
      ],
      "name": "MarketItemCreated",
      "type": "event"
    },
    {
      "anonymous": false,
      "inputs": [
        {
          "indexed": true,
          "name": "itemId",
          "type": "uint256"
        },
        {
          "indexed": true,
          "name": "tokenId",
          "type": "uint256"
        },
        {
          "indexed": false,
          "name": "seller",
          "type": "address"
        },
        {
          "indexed": false,
          "name": "buyer",
          "type": "address"
        },
        {
          "indexed": false,
          "name": "unit_price",
          "type": "uint256"
        },
        {
          "indexed": false,
          "name": "total_amount",
          "type": "uint256"
        },
        {
          "indexed": false,
          "name": "buy_amount",
          "type": "uint256"
        },
        {
          "indexed": false,
          "name": "remaining_amount",
          "type": "uint256"
        }
      ],
      "name": "MarketItemSelled",
      "type": "event"
    },
    {
      "anonymous": false,
      "inputs": [
        {
          "indexed": true,
          "name": "itemId",
          "type": "uint256"
        },
        {
          "indexed": true,
          "name": "tokenId",
          "type": "uint256"
        },
        {
          "indexed": false,
          "name": "seller",
          "type": "address"
        },
        {
          "indexed": false,
          "name": "unit_price",
          "type": "uint256"
        },
        {
          "indexed": false,
          "name": "total_amount",
          "type": "uint256"
        },
        {
          "indexed": false,
          "name": "remaining_amount",
          "type": "uint256"
        }
      ],
      "name": "MarketItemCancel",
      "type": "event"
    },
    {
      "anonymous": false,
      "inputs": [
        {
          "indexed": false,
          "name": "user",
          "type": "address"
        },
        {
          "indexed": false,
          "name": "amount",
          "type": "uint256"
        }
      ],
      "name": "BuyToken",
      "type": "event"
    },
    {
      "anonymous": false,
      "inputs": [
        {
          "indexed": false,
          "name": "user",
          "type": "address"
        },
        {
          "indexed": false,
          "name": "amount",
          "type": "uint256"
        }
      ],
      "name": "SellToken",
      "type": "event"
    },
    {
      "anonymous": false,
      "inputs": [
        {
          "indexed": false,
          "name": "artist",
          "type": "address"
        },
        {
          "indexed": false,
          "name": "token_id",
          "type": "uint256"
        },
        {
          "indexed": false,
          "name": "amount",
          "type": "uint256"
        }
      ],
      "name": "SFTMinted",
      "type": "event"
    },
    {
      "anonymous": false,
      "inputs": [
        {
          "indexed": false,
          "name": "user",
          "type": "address"
        },
        {
          "indexed": false,
          "name": "amount",
          "type": "uint256"
        }
      ],
      "name": "DepositMSToken",
      "type": "event"
    },
    {
      "anonymous": false,
      "inputs": [
        {
          "indexed": false,
          "name": "user",
          "type": "address"
        },
        {
          "indexed": false,
          "name": "amount",
          "type": "uint256"
        }
      ],
      "name": "WithDrawalDepositMSToken",
      "type": "event"
    },
    {
      "anonymous": false,
      "inputs": [
        {
          "indexed": false,
          "name": "user",
          "type": "address"
        },
        {
          "indexed": false,
          "name": "amount",
          "type": "uint256"
        }
      ],
      "name": "WithDrawalDistributionMSToken",
      "type": "event"
    },
    {
      "anonymous": false,
      "inputs": [
        {
          "indexed": true,
          "name": "account",
          "type": "address"
        }
      ],
      "name": "MinterAdded",
      "type": "event"
    },
    {
      "anonymous": false,
      "inputs": [
        {
          "indexed": true,
          "name": "account",
          "type": "address"
        }
      ],
      "name": "MinterRemoved",
      "type": "event"
    },
    {
      "anonymous": false,
      "inputs": [
        {
          "indexed": true,
          "name": "previousOwner",
          "type": "address"
        },
        {
          "indexed": true,
          "name": "newOwner",
          "type": "address"
        }
      ],
      "name": "OwnershipTransferred",
      "type": "event"
    }
  ],
  "bytecode": "0x60806040526101f460055567016345785d8a00006012553480156200002357600080fd5b50336000806101000a81548173ffffffffffffffffffffffffffffffffffffffff021916908373ffffffffffffffffffffffffffffffffffffffff1602179055506000809054906101000a900473ffffffffffffffffffffffffffffffffffffffff1673ffffffffffffffffffffffffffffffffffffffff16600073ffffffffffffffffffffffffffffffffffffffff167f8be0079c531659141344cd1fd0a4f28419497f9722a3daafe3b4186f6b6457e060405160405180910390a3620000f1336200016460201b60201c565b620001096301ffc9a760e01b620001c560201b60201c565b6200015e600073ffffffffffffffffffffffffffffffffffffffff16639b49e332905060e01b600073ffffffffffffffffffffffffffffffffffffffff1663e78b3325905060e01b18620001c560201b60201c565b6200057f565b6200017f8160016200029e60201b62003e741790919060201c565b8073ffffffffffffffffffffffffffffffffffffffff167f6ae172837ea30b801fbfcdd4108aa1d5bf8ff775444fd70256b44e6bf3dfc3f660405160405180910390a250565b63ffffffff60e01b817bffffffffffffffffffffffffffffffffffffffffffffffffffffffff1916141562000231576040517f08c379a000000000000000000000000000000000000000000000000000000000815260040162000228906200052a565b60405180910390fd5b600160026000837bffffffffffffffffffffffffffffffffffffffffffffffffffffffff19167bffffffffffffffffffffffffffffffffffffffffffffffffffffffff1916815260200190815260200160002060006101000a81548160ff02191690831515021790555050565b620002b082826200035160201b60201c565b15620002f3576040517f08c379a0000000000000000000000000000000000000000000000000000000008152600401620002ea9062000508565b60405180910390fd5b60018260000160008373ffffffffffffffffffffffffffffffffffffffff1673ffffffffffffffffffffffffffffffffffffffff16815260200190815260200160002060006101000a81548160ff0219169083151502179055505050565b60008073ffffffffffffffffffffffffffffffffffffffff168273ffffffffffffffffffffffffffffffffffffffff161415620003c5576040517f08c379a0000000000000000000000000000000000000000000000000000000008152600401620003bc906200054c565b60405180910390fd5b8260000160008373ffffffffffffffffffffffffffffffffffffffff1673ffffffffffffffffffffffffffffffffffffffff16815260200190815260200160002060009054906101000a900460ff16905092915050565b60006200042b601f836200056e565b91507f526f6c65733a206163636f756e7420616c72656164792068617320726f6c65006000830152602082019050919050565b60006200046d601b836200056e565b91507f4b495031333a20696e76616c696420696e7465726661636520696400000000006000830152602082019050919050565b6000620004af6022836200056e565b91507f526f6c65733a206163636f756e7420697320746865207a65726f20616464726560008301527f73730000000000000000000000000000000000000000000000000000000000006020830152604082019050919050565b6000602082019050818103600083015262000523816200041c565b9050919050565b6000602082019050818103600083015262000545816200045e565b9050919050565b600060208201905081810360008301526200056781620004a0565b9050919050565b600082825260208201905092915050565b615e5c806200058f6000396000f3fe60806040526004361061022e5760003560e01c8063983b2d561161012e578063c084b10b116100ab578063e38e91f91161006f578063e38e91f914610813578063e668302a1461083c578063e78b332514610879578063f2fde38b146108b6578063f7d20a23146108df5761022e565b8063c084b10b14610729578063c0d3775214610766578063c37176b9146107a3578063d8a4bfe1146107cc578063e0675698146107f75761022e565b8063a55b748e116100f2578063a55b748e14610634578063aa271e1a14610671578063ac104f90146106ae578063ae1a1881146106d7578063b9058c7e146107005761022e565b8063983b2d561461058257806398650275146105ab5780639b49e332146105c25780639b8bc127146105ff578063a48217191461062a5761022e565b806349bf3efb116101bc578063715018a611610180578063715018a6146104ad5780638da5cb5b146104c45780638f32d59b146104ef5780638f87ce121461051a578063973e9b8b146105575761022e565b806349bf3efb146103a25780634e71f8dc146103df57806351563f8e1461040a57806353dbceb114610433578063584b8e64146104705761022e565b8063226d155611610203578063226d1556146102ff5780632397e4d71461032857806338f5ba2f146103445780633ccfd60b1461036f57806341038aa4146103795761022e565b8062992a4b14610233578062e3c6c81461025c57806301ffc9a714610299578063144fa6d7146102d6575b600080fd5b34801561023f57600080fd5b5061025a60048036036102559190810190614757565b6108fb565b005b34801561026857600080fd5b50610283600480360361027e919081019061444c565b610a60565b604051610290919061567b565b60405180910390f35b3480156102a557600080fd5b506102c060048036036102bb919081019061472e565b610b67565b6040516102cd919061569d565b60405180910390f35b3480156102e257600080fd5b506102fd60048036036102f8919081019061444c565b610bcf565b005b34801561030b57600080fd5b5061032660048036036103219190810190614757565b610c5a565b005b610342600480360361033d9190810190614757565b610dbf565b005b34801561035057600080fd5b50610359610fa5565b60405161036691906156d3565b60405180910390f35b610377610fcb565b005b34801561038557600080fd5b506103a0600480360361039b9190810190614757565b611069565b005b3480156103ae57600080fd5b506103c960048036036103c4919081019061444c565b61114c565b6040516103d69190615637565b60405180910390f35b3480156103eb57600080fd5b506103f46113be565b60405161040191906156ee565b60405180910390f35b34801561041657600080fd5b50610431600480360361042c9190810190614757565b6113e4565b005b34801561043f57600080fd5b5061045a60048036036104559190810190614757565b611627565b6040516104679190615a2b565b60405180910390f35b34801561047c57600080fd5b50610497600480360361049291908101906145ec565b611703565b6040516104a49190615615565b60405180910390f35b3480156104b957600080fd5b506104c2611a12565b005b3480156104d057600080fd5b506104d9611b18565b6040516104e691906153e4565b60405180910390f35b3480156104fb57600080fd5b50610504611b41565b604051610511919061569d565b60405180910390f35b34801561052657600080fd5b50610541600480360361053c9190810190614757565b611b98565b60405161054e9190615a46565b60405180910390f35b34801561056357600080fd5b5061056c611bb5565b6040516105799190615a46565b60405180910390f35b34801561058e57600080fd5b506105a960048036036105a4919081019061444c565b611c70565b005b3480156105b757600080fd5b506105c0611cc4565b005b3480156105ce57600080fd5b506105e960048036036105e4919081019061449e565b611ccf565b6040516105f691906156b8565b60405180910390f35b34801561060b57600080fd5b50610614611ce4565b6040516106219190615637565b60405180910390f35b610632611e97565b005b34801561064057600080fd5b5061065b6004803603610656919081019061444c565b61202d565b6040516106689190615a46565b60405180910390f35b34801561067d57600080fd5b506106986004803603610693919081019061444c565b612076565b6040516106a5919061569d565b60405180910390f35b3480156106ba57600080fd5b506106d560048036036106d09190810190614757565b612093565b005b3480156106e357600080fd5b506106fe60048036036106f9919081019061462d565b612350565b005b34801561070c57600080fd5b5061072760048036036107229190810190614699565b61248e565b005b34801561073557600080fd5b50610750600480360361074b919081019061444c565b612712565b60405161075d9190615a46565b60405180910390f35b34801561077257600080fd5b5061078d6004803603610788919081019061444c565b61275b565b60405161079a9190615659565b60405180910390f35b3480156107af57600080fd5b506107ca60048036036107c5919081019061444c565b612912565b005b3480156107d857600080fd5b506107e161299d565b6040516107ee9190615a46565b60405180910390f35b610811600480360361080c91908101906147a9565b6129a7565b005b34801561081f57600080fd5b5061083a60048036036108359190810190614757565b612d63565b005b34801561084857600080fd5b50610863600480360361085e9190810190614757565b612db4565b60405161087091906153c9565b60405180910390f35b34801561088557600080fd5b506108a0600480360361089b919081019061455d565b612df1565b6040516108ad91906156b8565b60405180910390f35b3480156108c257600080fd5b506108dd60048036036108d89190810190614475565b612e06565b005b6108f960048036036108f491908101906147e5565b612e59565b005b80600860003373ffffffffffffffffffffffffffffffffffffffff1673ffffffffffffffffffffffffffffffffffffffff16815260200190815260200160002054101561097d576040517f08c379a00000000000000000000000000000000000000000000000000000000081526004016109749061572b565b60405180910390fd5b6109cf81600860003373ffffffffffffffffffffffffffffffffffffffff1673ffffffffffffffffffffffffffffffffffffffff1681526020019081526020016000205461309290919063ffffffff16565b600860003373ffffffffffffffffffffffffffffffffffffffff1673ffffffffffffffffffffffffffffffffffffffff16815260200190815260200160002081905550610a24610a1d611b18565b33836130dc565b7fa12ff442cb4f848e9f25aaffc7b8f993d50d7bced7aed7153cda8f6dcc37c6cd3382604051610a559291906154e1565b60405180910390a150565b6060600073ffffffffffffffffffffffffffffffffffffffff168273ffffffffffffffffffffffffffffffffffffffff161415610ad2576040517f08c379a0000000000000000000000000000000000000000000000000000000008152600401610ac9906157cb565b60405180910390fd5b600e60008373ffffffffffffffffffffffffffffffffffffffff1673ffffffffffffffffffffffffffffffffffffffff168152602001908152602001600020805480602002602001604051908101604052809291908181526020018280548015610b5b57602002820191906000526020600020905b815481526020019060010190808311610b47575b50505050509050919050565b600060026000837bffffffffffffffffffffffffffffffffffffffffffffffffffffffff19167bffffffffffffffffffffffffffffffffffffffffffffffffffffffff1916815260200190815260200160002060009054906101000a900460ff169050919050565b610bd7611b41565b610c16576040517f08c379a0000000000000000000000000000000000000000000000000000000008152600401610c0d9061592b565b60405180910390fd5b80600660006101000a81548173ffffffffffffffffffffffffffffffffffffffff021916908373ffffffffffffffffffffffffffffffffffffffff16021790555050565b80600960003373ffffffffffffffffffffffffffffffffffffffff1673ffffffffffffffffffffffffffffffffffffffff168152602001908152602001600020541015610cdc576040517f08c379a0000000000000000000000000000000000000000000000000000000008152600401610cd39061596b565b60405180910390fd5b610d2e81600960003373ffffffffffffffffffffffffffffffffffffffff1673ffffffffffffffffffffffffffffffffffffffff1681526020019081526020016000205461309290919063ffffffff16565b600960003373ffffffffffffffffffffffffffffffffffffffff1673ffffffffffffffffffffffffffffffffffffffff16815260200190815260200160002081905550610d83610d7c611b18565b33836130dc565b7ffbddb6b83f56ca2cf6f4832ce1f6ae9976dc080046a10f1b262c13b418a93d1a3382604051610db49291906154e1565b60405180910390a150565b60006005548281610dcc57fe5b04905081600660009054906101000a900473ffffffffffffffffffffffffffffffffffffffff1673ffffffffffffffffffffffffffffffffffffffff1663dd62ed3e33306040518363ffffffff1660e01b8152600401610e2d9291906153ff565b60206040518083038186803b158015610e4557600080fd5b505afa158015610e59573d6000803e3d6000fd5b505050506040513d601f19601f82011682018060405250610e7d9190810190614780565b1015610ebe576040517f08c379a0000000000000000000000000000000000000000000000000000000008152600401610eb59061598b565b60405180910390fd5b803073ffffffffffffffffffffffffffffffffffffffff16311015610f18576040517f08c379a0000000000000000000000000000000000000000000000000000000008152600401610f0f90615a0b565b60405180910390fd5b610f2a33610f24611b18565b846130dc565b3373ffffffffffffffffffffffffffffffffffffffff166108fc829081150290604051600060405180830381858888f19350505050610f6857600080fd5b7ff567b51b9deaa2fa38dd169801137cdc7532865d1e82192be079971d61e3ce863383604051610f999291906154e1565b60405180910390a15050565b600660009054906101000a900473ffffffffffffffffffffffffffffffffffffffff1681565b610fd3611b41565b611012576040517f08c379a00000000000000000000000000000000000000000000000000000000081526004016110099061592b565b60405180910390fd5b3373ffffffffffffffffffffffffffffffffffffffff166108fc3073ffffffffffffffffffffffffffffffffffffffff16319081150290604051600060405180830381858888f1935050505061106757600080fd5b565b61107b33611075611b18565b836130dc565b6110cd81600860003373ffffffffffffffffffffffffffffffffffffffff1673ffffffffffffffffffffffffffffffffffffffff168152602001908152602001600020546131d790919063ffffffff16565b600860003373ffffffffffffffffffffffffffffffffffffffff1673ffffffffffffffffffffffffffffffffffffffff168152602001908152602001600020819055507f1de446d6892438294bad2644da47b63af5a95c2c031e41ded6b533807a11ce1c33826040516111419291906154e1565b60405180910390a150565b6060600061115a600361322c565b90506000809050600080905060008090505b838110156111f5578573ffffffffffffffffffffffffffffffffffffffff166011600060018401815260200190815260200160002060020160009054906101000a900473ffffffffffffffffffffffffffffffffffffffff1673ffffffffffffffffffffffffffffffffffffffff1614156111e8576001830192505b808060010191505061116c565b5060608260405190808252806020026020018201604052801561123257816020015b61121f6141af565b8152602001906001900390816112175790505b50905060008090505b848110156113b1578673ffffffffffffffffffffffffffffffffffffffff166011600060018401815260200190815260200160002060020160009054906101000a900473ffffffffffffffffffffffffffffffffffffffff1673ffffffffffffffffffffffffffffffffffffffff1614156113a45760006001820190506112c0614204565b601160008381526020019081526020016000206040518060e001604052908160008201548152602001600182015481526020016002820160009054906101000a900473ffffffffffffffffffffffffffffffffffffffff1673ffffffffffffffffffffffffffffffffffffffff1673ffffffffffffffffffffffffffffffffffffffff1681526020016003820154815260200160048201548152602001600582015481526020016006820160009054906101000a900460ff16151515158152505090508084868151811061139057fe5b602002602001018190525060018501945050505b808060010191505061123b565b5080945050505050919050565b600760009054906101000a900473ffffffffffffffffffffffffffffffffffffffff1681565b60006011600083815260200190815260200160002060020160009054906101000a900473ffffffffffffffffffffffffffffffffffffffff1690506000601160008481526020019081526020016000206001015490506000601160008581526020019081526020016000206005015490503373ffffffffffffffffffffffffffffffffffffffff168373ffffffffffffffffffffffffffffffffffffffff16146114c3576040517f08c379a00000000000000000000000000000000000000000000000000000000081526004016114ba906159cb565b60405180910390fd5b600760009054906101000a900473ffffffffffffffffffffffffffffffffffffffff1673ffffffffffffffffffffffffffffffffffffffff1663f242432a303385856040518563ffffffff1660e01b81526004016115249493929190615586565b600060405180830381600087803b15801561153e57600080fd5b505af1158015611552573d6000803e3d6000fd5b5050505061155f8461323a565b61156a338383613276565b81847fbd38f4b052b02b12cfef3a49a5a317df92360c746c95f08e9eead3f017d21baa6011600088815260200190815260200160002060020160009054906101000a900473ffffffffffffffffffffffffffffffffffffffff166011600089815260200190815260200160002060030154601160008a815260200190815260200160002060040154601160008b8152602001908152602001600020600501546040516116199493929190615541565b60405180910390a350505050565b61162f614204565b611637614204565b601160008481526020019081526020016000206040518060e001604052908160008201548152602001600182015481526020016002820160009054906101000a900473ffffffffffffffffffffffffffffffffffffffff1673ffffffffffffffffffffffffffffffffffffffff1673ffffffffffffffffffffffffffffffffffffffff1681526020016003820154815260200160048201548152602001600582015481526020016006820160009054906101000a900460ff161515151581525050905080915050919050565b606060008251905060608160405190808252806020026020018201604052801561174157816020015b606081526020019060019003908161172c5790505b50905060008090505b8281101561180c576000600a600087848151811061176457fe5b602002602001015173ffffffffffffffffffffffffffffffffffffffff1673ffffffffffffffffffffffffffffffffffffffff168152602001908152602001600020805490509050806040519080825280602002602001820160405280156117e657816020015b6117d3614259565b8152602001906001900390816117cb5790505b508383815181106117f357fe5b602002602001018190525050808060010191505061174a565b5060008090505b82811015611a07576000600a600087848151811061182d57fe5b602002602001015173ffffffffffffffffffffffffffffffffffffffff1673ffffffffffffffffffffffffffffffffffffffff16815260200190815260200160002080549050905060008090505b818110156119f8576000600a600089868151811061189557fe5b602002602001015173ffffffffffffffffffffffffffffffffffffffff1673ffffffffffffffffffffffffffffffffffffffff16815260200190815260200160002082815481106118e257fe5b90600052602060002001549050808585815181106118fc57fe5b6020026020010151838151811061190f57fe5b60200260200101516000018181525050600c600089868151811061192f57fe5b602002602001015173ffffffffffffffffffffffffffffffffffffffff1673ffffffffffffffffffffffffffffffffffffffff16815260200190815260200160002060008281526020019081526020016000205485858151811061198f57fe5b602002602001015183815181106119a257fe5b602002602001015160200181815250506119bb81611b98565b8585815181106119c757fe5b602002602001015183815181106119da57fe5b6020026020010151604001818152505050808060010191505061187b565b50508080600101915050611813565b508092505050919050565b611a1a611b41565b611a59576040517f08c379a0000000000000000000000000000000000000000000000000000000008152600401611a509061592b565b60405180910390fd5b600073ffffffffffffffffffffffffffffffffffffffff166000809054906101000a900473ffffffffffffffffffffffffffffffffffffffff1673ffffffffffffffffffffffffffffffffffffffff167f8be0079c531659141344cd1fd0a4f28419497f9722a3daafe3b4186f6b6457e060405160405180910390a360008060006101000a81548173ffffffffffffffffffffffffffffffffffffffff021916908373ffffffffffffffffffffffffffffffffffffffff160217905550565b60008060009054906101000a900473ffffffffffffffffffffffffffffffffffffffff16905090565b60008060009054906101000a900473ffffffffffffffffffffffffffffffffffffffff1673ffffffffffffffffffffffffffffffffffffffff163373ffffffffffffffffffffffffffffffffffffffff1614905090565b600060106000838152602001908152602001600020549050919050565b6000600660009054906101000a900473ffffffffffffffffffffffffffffffffffffffff1673ffffffffffffffffffffffffffffffffffffffff1663dd62ed3e611bfd611b18565b306040518363ffffffff1660e01b8152600401611c1b9291906153ff565b60206040518083038186803b158015611c3357600080fd5b505afa158015611c47573d6000803e3d6000fd5b505050506040513d601f19601f82011682018060405250611c6b9190810190614780565b905090565b611c7933612076565b611cb8576040517f08c379a0000000000000000000000000000000000000000000000000000000008152600401611caf906158cb565b60405180910390fd5b611cc181613332565b50565b611ccd3361338c565b565b6000639b49e33260e01b905095945050505050565b60606000611cf2600361322c565b90506000611d00600461322c565b611d0a600361322c565b0390506000809050606082604051908082528060200260200182016040528015611d4e57816020015b611d3b6141af565b815260200190600190039081611d335790505b50905060008090505b84811015611e8c576011600060018301815260200190815260200160002060060160009054906101000a900460ff1615611e7f576000600182019050611d9b614204565b601160008381526020019081526020016000206040518060e001604052908160008201548152602001600182015481526020016002820160009054906101000a900473ffffffffffffffffffffffffffffffffffffffff1673ffffffffffffffffffffffffffffffffffffffff1673ffffffffffffffffffffffffffffffffffffffff1681526020016003820154815260200160048201548152602001600582015481526020016006820160009054906101000a900460ff161515151581525050905080848681518110611e6b57fe5b602002602001018190525060018501945050505b8080600101915050611d57565b508094505050505090565b6000600554340290506000600660009054906101000a900473ffffffffffffffffffffffffffffffffffffffff1673ffffffffffffffffffffffffffffffffffffffff1663dd62ed3e611ee8611b18565b306040518363ffffffff1660e01b8152600401611f069291906153ff565b60206040518083038186803b158015611f1e57600080fd5b505afa158015611f32573d6000803e3d6000fd5b505050506040513d601f19601f82011682018060405250611f569190810190614780565b905060003411611f9b576040517f08c379a0000000000000000000000000000000000000000000000000000000008152600401611f929061576b565b60405180910390fd5b81811015611fde576040517f08c379a0000000000000000000000000000000000000000000000000000000008152600401611fd59061584b565b60405180910390fd5b611ff0611fe9611b18565b33846130dc565b7fdd06b66c3ba8126086cd863137d6f3b86ce5bcf4309cac390cc265e39194d0b233836040516120219291906154e1565b60405180910390a15050565b6000600960008373ffffffffffffffffffffffffffffffffffffffff1673ffffffffffffffffffffffffffffffffffffffff168152602001908152602001600020549050919050565b600061208c8260016133e690919063ffffffff16565b9050919050565b61209c33612076565b6120db576040517f08c379a00000000000000000000000000000000000000000000000000000000081526004016120d2906158cb565b60405180910390fd5b6000600760009054906101000a900473ffffffffffffffffffffffffffffffffffffffff1673ffffffffffffffffffffffffffffffffffffffff16635b456a706040518163ffffffff1660e01b815260040160206040518083038186803b15801561214557600080fd5b505afa158015612159573d6000803e3d6000fd5b505050506040513d601f19601f8201168201806040525061217d9190810190614780565b9050600760009054906101000a900473ffffffffffffffffffffffffffffffffffffffff1673ffffffffffffffffffffffffffffffffffffffff166374c1832033846040518363ffffffff1660e01b81526004016121dc9291906154e1565b600060405180830381600087803b1580156121f657600080fd5b505af115801561220a573d6000803e3d6000fd5b50505050600e60003373ffffffffffffffffffffffffffffffffffffffff1673ffffffffffffffffffffffffffffffffffffffff16815260200190815260200160002081908060018154018082558091505090600182039060005260206000200160009091929091909150555033600f600083815260200190815260200160002060006101000a81548173ffffffffffffffffffffffffffffffffffffffff021916908373ffffffffffffffffffffffffffffffffffffffff1602179055506122ef8260106000848152602001908152602001600020546131d790919063ffffffff16565b60106000838152602001908152602001600020819055506123113382846134ae565b7f90f5c1381448d304f76fba02baa9ed60eb8fa8a8c906da284fbe131dac50eba23382846040516123449392919061550a565b60405180910390a15050565b60008251905060008251905080821461239e576040517f08c379a00000000000000000000000000000000000000000000000000000000081526004016123959061580b565b60405180910390fd5b60008090505b82811015612487576124248482815181106123bb57fe5b6020026020010151600860008885815181106123d357fe5b602002602001015173ffffffffffffffffffffffffffffffffffffffff1673ffffffffffffffffffffffffffffffffffffffff1681526020019081526020016000205461309290919063ffffffff16565b6008600087848151811061243457fe5b602002602001015173ffffffffffffffffffffffffffffffffffffffff1673ffffffffffffffffffffffffffffffffffffffff1681526020019081526020016000208190555080806001019150506123a4565b5050505050565b6000825190506000825190508082146124dc576040517f08c379a00000000000000000000000000000000000000000000000000000000081526004016124d39061580b565b60405180910390fd5b60008090505b8281101561270b5760008582815181106124f857fe5b602002602001015190506060600b600083815260200190815260200160002080548060200260200160405190810160405280929190818152602001828054801561259757602002820191906000526020600020905b8160009054906101000a900473ffffffffffffffffffffffffffffffffffffffff1673ffffffffffffffffffffffffffffffffffffffff168152602001906001019080831161254d575b5050505050905060006010600084815260200190815260200160002054905060008090505b82518110156126fa5760008382815181106125d357fe5b602002602001015190506000600c60008373ffffffffffffffffffffffffffffffffffffffff1673ffffffffffffffffffffffffffffffffffffffff1681526020019081526020016000206000878152602001908152602001600020549050600084828c8a8151811061264257fe5b6020026020010151028161265257fe5b0490506126a781600960008673ffffffffffffffffffffffffffffffffffffffff1673ffffffffffffffffffffffffffffffffffffffff168152602001908152602001600020546131d790919063ffffffff16565b600960008573ffffffffffffffffffffffffffffffffffffffff1673ffffffffffffffffffffffffffffffffffffffff1681526020019081526020016000208190555050505080806001019150506125bc565b5050505080806001019150506124e2565b5050505050565b6000600860008373ffffffffffffffffffffffffffffffffffffffff1673ffffffffffffffffffffffffffffffffffffffff168152602001908152602001600020549050919050565b60606000600a60008473ffffffffffffffffffffffffffffffffffffffff1673ffffffffffffffffffffffffffffffffffffffff1681526020019081526020016000208054905090506060816040519080825280602002602001820160405280156127e057816020015b6127cd614259565b8152602001906001900390816127c55790505b50905060008090505b82811015612907576000600a60008773ffffffffffffffffffffffffffffffffffffffff1673ffffffffffffffffffffffffffffffffffffffff168152602001908152602001600020828154811061283d57fe5b906000526020600020015490508083838151811061285757fe5b60200260200101516000018181525050600c60008773ffffffffffffffffffffffffffffffffffffffff1673ffffffffffffffffffffffffffffffffffffffff1681526020019081526020016000206000828152602001908152602001600020548383815181106128c457fe5b602002602001015160200181815250506128dd81611b98565b8383815181106128e957fe5b602002602001015160400181815250505080806001019150506127e9565b508092505050919050565b61291a611b41565b612959576040517f08c379a00000000000000000000000000000000000000000000000000000000081526004016129509061592b565b60405180910390fd5b80600760006101000a81548173ffffffffffffffffffffffffffffffffffffffff021916908373ffffffffffffffffffffffffffffffffffffffff16021790555050565b6000600554905090565b60006011600084815260200190815260200160002060060160009054906101000a900460ff1690506001151581151514612a16576040517f08c379a0000000000000000000000000000000000000000000000000000000008152600401612a0d9061586b565b60405180910390fd5b60006011600085815260200190815260200160002060010154905060006011600086815260200190815260200160002060030154905060006011600087815260200190815260200160002060050154905084811015612aaa576040517f08c379a0000000000000000000000000000000000000000000000000000000008152600401612aa1906159ab565b60405180910390fd5b8482023414612aee576040517f08c379a0000000000000000000000000000000000000000000000000000000008152600401612ae5906157eb565b60405180910390fd5b6011600087815260200190815260200160002060020160009054906101000a900473ffffffffffffffffffffffffffffffffffffffff1673ffffffffffffffffffffffffffffffffffffffff166108fc349081150290604051600060405180830381858888f19350505050158015612b6a573d6000803e3d6000fd5b50612b9485601160008981526020019081526020016000206005015461309290919063ffffffff16565b6011600088815260200190815260200160002060050181905550600060116000888152602001908152602001600020600501541415612bd757612bd68661323a565b5b612c186011600088815260200190815260200160002060020160009054906101000a900473ffffffffffffffffffffffffffffffffffffffff16848761367c565b612c233384876134ae565b600760009054906101000a900473ffffffffffffffffffffffffffffffffffffffff1673ffffffffffffffffffffffffffffffffffffffff1663f242432a303386896040518563ffffffff1660e01b8152600401612c849493929190615586565b600060405180830381600087803b158015612c9e57600080fd5b505af1158015612cb2573d6000803e3d6000fd5b5050505082867f600918f9eafb4d7ea2306fe40426faf0301ad83352c5dc1a74978e5ae36345b6601160008a815260200190815260200160002060020160009054906101000a900473ffffffffffffffffffffffffffffffffffffffff163386601160008d8152602001908152602001600020600401548b601160008f815260200190815260200160002060050154604051612d5396959493929190615428565b60405180910390a3505050505050565b612d6b611b41565b612daa576040517f08c379a0000000000000000000000000000000000000000000000000000000008152600401612da19061592b565b60405180910390fd5b8060058190555050565b6000600f600083815260200190815260200160002060009054906101000a900473ffffffffffffffffffffffffffffffffffffffff169050919050565b600063e78b332560e01b905095945050505050565b612e0e611b41565b612e4d576040517f08c379a0000000000000000000000000000000000000000000000000000000008152600401612e449061592b565b60405180910390fd5b612e5681613b34565b50565b60008211612e9c576040517f08c379a0000000000000000000000000000000000000000000000000000000008152600401612e93906159eb565b60405180910390fd5b6000612ea8600361322c565b9050612eb46003613c62565b6040518060e001604052808281526020018581526020013373ffffffffffffffffffffffffffffffffffffffff1681526020018481526020018381526020018381526020016001151581525060116000838152602001908152602001600020600082015181600001556020820151816001015560408201518160020160006101000a81548173ffffffffffffffffffffffffffffffffffffffff021916908373ffffffffffffffffffffffffffffffffffffffff160217905550606082015181600301556080820151816004015560a0820151816005015560c08201518160060160006101000a81548160ff021916908315150217905550905050600760009054906101000a900473ffffffffffffffffffffffffffffffffffffffff1673ffffffffffffffffffffffffffffffffffffffff1663f242432a333087866040518563ffffffff1660e01b81526004016130109493929190615489565b600060405180830381600087803b15801561302a57600080fd5b505af115801561303e573d6000803e3d6000fd5b5050505061304d338584613c78565b83817f57fb6a47e970e71c47b9023fb3c64b4a6916a36ddb11d2531591a07afaddd006338686876040516130849493929190615541565b60405180910390a350505050565b60006130d483836040518060400160405280601e81526020017f536166654d6174683a207375627472616374696f6e206f766572666c6f770000815250613e19565b905092915050565b6000600660009054906101000a900473ffffffffffffffffffffffffffffffffffffffff1673ffffffffffffffffffffffffffffffffffffffff166323b872dd8585856040518463ffffffff1660e01b815260040161313d939291906155de565b602060405180830381600087803b15801561315757600080fd5b505af115801561316b573d6000803e3d6000fd5b505050506040513d601f19601f8201168201806040525061318f9190810190614705565b9050806131d1576040517f08c379a00000000000000000000000000000000000000000000000000000000081526004016131c89061588b565b60405180910390fd5b50505050565b600080828401905083811015613222576040517f08c379a0000000000000000000000000000000000000000000000000000000008152600401613219906157ab565b60405180910390fd5b8091505092915050565b600081600001549050919050565b60006011600083815260200190815260200160002060060160006101000a81548160ff0219169083151502179055506132736004613c62565b50565b6132d981600d60008673ffffffffffffffffffffffffffffffffffffffff1673ffffffffffffffffffffffffffffffffffffffff16815260200190815260200160002060008581526020019081526020016000205461309290919063ffffffff16565b600d60008573ffffffffffffffffffffffffffffffffffffffff1673ffffffffffffffffffffffffffffffffffffffff168152602001908152602001600020600084815260200190815260200160002081905550505050565b613346816001613e7490919063ffffffff16565b8073ffffffffffffffffffffffffffffffffffffffff167f6ae172837ea30b801fbfcdd4108aa1d5bf8ff775444fd70256b44e6bf3dfc3f660405160405180910390a250565b6133a0816001613f1c90919063ffffffff16565b8073ffffffffffffffffffffffffffffffffffffffff167fe94479a9f7e1952cc78f2d6baab678adc1b772d936c6583def489e524cb6669260405160405180910390a250565b60008073ffffffffffffffffffffffffffffffffffffffff168273ffffffffffffffffffffffffffffffffffffffff161415613457576040517f08c379a000000000000000000000000000000000000000000000000000000000815260040161344e9061594b565b60405180910390fd5b8260000160008373ffffffffffffffffffffffffffffffffffffffff1673ffffffffffffffffffffffffffffffffffffffff16815260200190815260200160002060009054906101000a900460ff16905092915050565b7fffffffffffffffffffffffffffffffffffffffffffffffffffffffffffffffff6134d98484613fc3565b14156135c057600a60008473ffffffffffffffffffffffffffffffffffffffff1673ffffffffffffffffffffffffffffffffffffffff168152602001908152602001600020829080600181540180825580915050906001820390600052602060002001600090919290919091505550600b60008381526020019081526020016000208390806001815401808255809150509060018203906000526020600020016000909192909190916101000a81548173ffffffffffffffffffffffffffffffffffffffff021916908373ffffffffffffffffffffffffffffffffffffffff160217905550505b61362381600c60008673ffffffffffffffffffffffffffffffffffffffff1673ffffffffffffffffffffffffffffffffffffffff1681526020019081526020016000206000858152602001908152602001600020546131d790919063ffffffff16565b600c60008573ffffffffffffffffffffffffffffffffffffffff1673ffffffffffffffffffffffffffffffffffffffff168152602001908152602001600020600084815260200190815260200160002081905550505050565b80600c60008573ffffffffffffffffffffffffffffffffffffffff1673ffffffffffffffffffffffffffffffffffffffff168152602001908152602001600020600084815260200190815260200160002054101561370f576040517f08c379a0000000000000000000000000000000000000000000000000000000008152600401613706906158ab565b60405180910390fd5b61377281600c60008673ffffffffffffffffffffffffffffffffffffffff1673ffffffffffffffffffffffffffffffffffffffff16815260200190815260200160002060008581526020019081526020016000205461309290919063ffffffff16565b600c60008573ffffffffffffffffffffffffffffffffffffffff1673ffffffffffffffffffffffffffffffffffffffff1681526020019081526020016000206000848152602001908152602001600020819055506000600c60008573ffffffffffffffffffffffffffffffffffffffff1673ffffffffffffffffffffffffffffffffffffffff1681526020019081526020016000206000848152602001908152602001600020541415613b2f57600061382b8484613fc3565b90506000811015613871576040517f08c379a00000000000000000000000000000000000000000000000000000000081526004016138689061582b565b60405180910390fd5b600a60008573ffffffffffffffffffffffffffffffffffffffff1673ffffffffffffffffffffffffffffffffffffffff1681526020019081526020016000206001600a60008773ffffffffffffffffffffffffffffffffffffffff1673ffffffffffffffffffffffffffffffffffffffff16815260200190815260200160002080549050038154811061390057fe5b9060005260206000200154600a60008673ffffffffffffffffffffffffffffffffffffffff1673ffffffffffffffffffffffffffffffffffffffff168152602001908152602001600020828154811061395557fe5b9060005260206000200181905550600a60008573ffffffffffffffffffffffffffffffffffffffff1673ffffffffffffffffffffffffffffffffffffffff1681526020019081526020016000208054806139ab57fe5b6001900381819060005260206000200160009055905560006139cd85856140bf565b90506000811015613a13576040517f08c379a0000000000000000000000000000000000000000000000000000000008152600401613a0a9061590b565b60405180910390fd5b600b60008581526020019081526020016000206001600b6000878152602001908152602001600020805490500381548110613a4a57fe5b9060005260206000200160009054906101000a900473ffffffffffffffffffffffffffffffffffffffff16600b60008681526020019081526020016000208281548110613a9357fe5b9060005260206000200160006101000a81548173ffffffffffffffffffffffffffffffffffffffff021916908373ffffffffffffffffffffffffffffffffffffffff160217905550600b6000858152602001908152602001600020805480613af757fe5b6001900381819060005260206000200160006101000a81549073ffffffffffffffffffffffffffffffffffffffff0219169055905550505b505050565b600073ffffffffffffffffffffffffffffffffffffffff168173ffffffffffffffffffffffffffffffffffffffff161415613ba4576040517f08c379a0000000000000000000000000000000000000000000000000000000008152600401613b9b9061578b565b60405180910390fd5b8073ffffffffffffffffffffffffffffffffffffffff166000809054906101000a900473ffffffffffffffffffffffffffffffffffffffff1673ffffffffffffffffffffffffffffffffffffffff167f8be0079c531659141344cd1fd0a4f28419497f9722a3daafe3b4186f6b6457e060405160405180910390a3806000806101000a81548173ffffffffffffffffffffffffffffffffffffffff021916908373ffffffffffffffffffffffffffffffffffffffff16021790555050565b6001816000016000828254019250508190555050565b80600d60008573ffffffffffffffffffffffffffffffffffffffff1673ffffffffffffffffffffffffffffffffffffffff16815260200190815260200160002060008481526020019081526020016000205401600c60008573ffffffffffffffffffffffffffffffffffffffff1673ffffffffffffffffffffffffffffffffffffffff1681526020019081526020016000206000848152602001908152602001600020541015613d5d576040517f08c379a0000000000000000000000000000000000000000000000000000000008152600401613d54906158ab565b60405180910390fd5b613dc081600d60008673ffffffffffffffffffffffffffffffffffffffff1673ffffffffffffffffffffffffffffffffffffffff1681526020019081526020016000206000858152602001908152602001600020546131d790919063ffffffff16565b600d60008573ffffffffffffffffffffffffffffffffffffffff1673ffffffffffffffffffffffffffffffffffffffff168152602001908152602001600020600084815260200190815260200160002081905550505050565b6000838311158290613e61576040517f08c379a0000000000000000000000000000000000000000000000000000000008152600401613e589190615709565b60405180910390fd5b5060008385039050809150509392505050565b613e7e82826133e6565b15613ebe576040517f08c379a0000000000000000000000000000000000000000000000000000000008152600401613eb59061574b565b60405180910390fd5b60018260000160008373ffffffffffffffffffffffffffffffffffffffff1673ffffffffffffffffffffffffffffffffffffffff16815260200190815260200160002060006101000a81548160ff0219169083151502179055505050565b613f2682826133e6565b613f65576040517f08c379a0000000000000000000000000000000000000000000000000000000008152600401613f5c906158eb565b60405180910390fd5b60008260000160008373ffffffffffffffffffffffffffffffffffffffff1673ffffffffffffffffffffffffffffffffffffffff16815260200190815260200160002060006101000a81548160ff0219169083151502179055505050565b600080600a60008573ffffffffffffffffffffffffffffffffffffffff1673ffffffffffffffffffffffffffffffffffffffff16815260200190815260200160002080549050905060008090505b81811015614093576000600a60008773ffffffffffffffffffffffffffffffffffffffff1673ffffffffffffffffffffffffffffffffffffffff168152602001908152602001600020828154811061406557fe5b9060005260206000200154905080851415614085578193505050506140b9565b508080600101915050614011565b507fffffffffffffffffffffffffffffffffffffffffffffffffffffffffffffffff9150505b92915050565b600080600b600084815260200190815260200160002080549050905060008090505b81811015614183576000600b6000868152602001908152602001600020828154811061410957fe5b9060005260206000200160009054906101000a900473ffffffffffffffffffffffffffffffffffffffff1690508073ffffffffffffffffffffffffffffffffffffffff168673ffffffffffffffffffffffffffffffffffffffff161415614175578193505050506141a9565b5080806001019150506140e1565b507fffffffffffffffffffffffffffffffffffffffffffffffffffffffffffffffff9150505b92915050565b6040518060e001604052806000815260200160008152602001600073ffffffffffffffffffffffffffffffffffffffff1681526020016000815260200160008152602001600081526020016000151581525090565b6040518060e001604052806000815260200160008152602001600073ffffffffffffffffffffffffffffffffffffffff1681526020016000815260200160008152602001600081526020016000151581525090565b60405180606001604052806000815260200160008152602001600081525090565b60006142868235615ccb565b905092915050565b600061429a8235615cdd565b905092915050565b600082601f8301126142b357600080fd5b81356142c66142c182615a8e565b615a61565b915081818352602084019350602081019050838560208402820111156142eb57600080fd5b60005b8381101561431b5781614301888261427a565b8452602084019350602083019250506001810190506142ee565b5050505092915050565b600082601f83011261433657600080fd5b813561434961434482615ab6565b615a61565b9150818183526020840193506020810190508385602084028201111561436e57600080fd5b60005b8381101561439e57816143848882614424565b845260208401935060208301925050600181019050614371565b5050505092915050565b60006143b48251615cef565b905092915050565b60006143c88235615cfb565b905092915050565b600082601f8301126143e157600080fd5b81356143f46143ef82615ade565b615a61565b9150808252602083016020830185838301111561441057600080fd5b61441b838284615dcf565b50505092915050565b60006144308235615d47565b905092915050565b60006144448251615d47565b905092915050565b60006020828403121561445e57600080fd5b600061446c8482850161427a565b91505092915050565b60006020828403121561448757600080fd5b60006144958482850161428e565b91505092915050565b600080600080600060a086880312156144b657600080fd5b60006144c48882890161427a565b95505060206144d58882890161427a565b945050604086013567ffffffffffffffff8111156144f257600080fd5b6144fe88828901614325565b935050606086013567ffffffffffffffff81111561451b57600080fd5b61452788828901614325565b925050608086013567ffffffffffffffff81111561454457600080fd5b614550888289016143d0565b9150509295509295909350565b600080600080600060a0868803121561457557600080fd5b60006145838882890161427a565b95505060206145948882890161427a565b94505060406145a588828901614424565b93505060606145b688828901614424565b925050608086013567ffffffffffffffff8111156145d357600080fd5b6145df888289016143d0565b9150509295509295909350565b6000602082840312156145fe57600080fd5b600082013567ffffffffffffffff81111561461857600080fd5b614624848285016142a2565b91505092915050565b6000806040838503121561464057600080fd5b600083013567ffffffffffffffff81111561465a57600080fd5b614666858286016142a2565b925050602083013567ffffffffffffffff81111561468357600080fd5b61468f85828601614325565b9150509250929050565b600080604083850312156146ac57600080fd5b600083013567ffffffffffffffff8111156146c657600080fd5b6146d285828601614325565b925050602083013567ffffffffffffffff8111156146ef57600080fd5b6146fb85828601614325565b9150509250929050565b60006020828403121561471757600080fd5b6000614725848285016143a8565b91505092915050565b60006020828403121561474057600080fd5b600061474e848285016143bc565b91505092915050565b60006020828403121561476957600080fd5b600061477784828501614424565b91505092915050565b60006020828403121561479257600080fd5b60006147a084828501614438565b91505092915050565b600080604083850312156147bc57600080fd5b60006147ca85828601614424565b92505060206147db85828601614424565b9150509250929050565b6000806000606084860312156147fa57600080fd5b600061480886828701614424565b935050602061481986828701614424565b925050604061482a86828701614424565b9150509250925092565b600061484083836149f1565b905092915050565b600061485483836152db565b60e08301905092915050565b600061486c8383615369565b60608301905092915050565b600061488483836153ab565b60208301905092915050565b61489981615d51565b82525050565b6148a881615c57565b82525050565b6148b781615c57565b82525050565b6148c681615c45565b82525050565b60006148d782615b4b565b6148e18185615bce565b9350836020820285016148f385615b0a565b60005b8481101561492c57838303885261490e838351614834565b925061491982615b8d565b91506020880197506001810190506148f6565b508196508694505050505092915050565b600061494882615b56565b6149528185615bdf565b935061495d83615b17565b60005b8281101561498b57614973868351614848565b955061497e82615b9a565b9150600181019050614960565b50849250505092915050565b60006149a282615b6c565b6149ac8185615c01565b93506149b783615b31565b60005b828110156149e5576149cd868351614860565b95506149d882615bb4565b91506001810190506149ba565b50849250505092915050565b60006149fc82615b61565b614a068185615bf0565b9350614a1183615b24565b60005b82811015614a3f57614a27868351614860565b9550614a3282615ba7565b9150600181019050614a14565b50849250505092915050565b6000614a5682615b77565b614a608185615c12565b9350614a6b83615b3e565b60005b82811015614a9957614a81868351614878565b9550614a8c82615bc1565b9150600181019050614a6e565b50849250505092915050565b614aae81615c69565b82525050565b614abd81615c69565b82525050565b614acc81615c75565b82525050565b614adb81615d63565b82525050565b614aea81615d87565b82525050565b6000614afb82615b82565b614b058185615c34565b9350614b15818560208601615dde565b614b1e81615e11565b840191505092915050565b6000614b36601a83615c34565b91507f4e6f7420456e6f756768204465706f7369742062616c616e63650000000000006000830152602082019050919050565b6000614b76601f83615c34565b91507f526f6c65733a206163636f756e7420616c72656164792068617320726f6c65006000830152602082019050919050565b6000614bb6601c83615c34565b91507f596f75206d75737420706179206174206c656173742031204b6c6179000000006000830152602082019050919050565b6000614bf6602683615c34565b91507f4f776e61626c653a206e6577206f776e657220697320746865207a65726f206160008301527f64647265737300000000000000000000000000000000000000000000000000006020830152604082019050919050565b6000614c5c601b83615c34565b91507f536166654d6174683a206164646974696f6e206f766572666c6f7700000000006000830152602082019050919050565b6000614c9c602983615c34565b91507f4b495033373a2062616c616e636520717565727920666f7220746865207a657260008301527f6f206164647265737300000000000000000000000000000000000000000000006020830152604082019050919050565b6000614d02603183615c34565b91507f54686520707572636861736520707269636520616e642073616c65732070726960008301527f63652061726520646966666572656e742e0000000000000000000000000000006020830152604082019050919050565b6000614d68601883615c34565b91507f546865206c656e67746820697320646966666572656e742e00000000000000006000830152602082019050919050565b6000614da8601e83615c34565b91507f57726f6e6720496e646578285f67657455736572534654496e646578292e00006000830152602082019050919050565b6000614de8602083615c34565b91507f53657276696365204d53546f6b656e20697320696e73756666696369656e742e6000830152602082019050919050565b6000614e28601a83615c34565b91507f54686973204d61726b65744974656d20697320636c6f7365642e0000000000006000830152602082019050919050565b6000614e68601783615c34565b91507f6d73746f6b656e207472616e73666572206661696c65640000000000000000006000830152602082019050919050565b6000614ea8601a83615c34565b91507f55736572205346542042616c616e636573206973206c6573732e0000000000006000830152602082019050919050565b6000614ee8603083615c34565b91507f4d696e746572526f6c653a2063616c6c657220646f6573206e6f74206861766560008301527f20746865204d696e74657220726f6c65000000000000000000000000000000006020830152604082019050919050565b6000614f4e602183615c34565b91507f526f6c65733a206163636f756e7420646f6573206e6f74206861766520726f6c60008301527f65000000000000000000000000000000000000000000000000000000000000006020830152604082019050919050565b6000614fb4601e83615c34565b91507f57726f6e6720496e646578285f67657453465455736572496e646578292e00006000830152602082019050919050565b6000614ff4602083615c34565b91507f4f776e61626c653a2063616c6c6572206973206e6f7420746865206f776e65726000830152602082019050919050565b6000615034602283615c34565b91507f526f6c65733a206163636f756e7420697320746865207a65726f20616464726560008301527f73730000000000000000000000000000000000000000000000000000000000006020830152604082019050919050565b600061509a601f83615c34565b91507f4e6f7420456e6f75676820446973747269627574696f6e2062616c616e6365006000830152602082019050919050565b60006150da601983615c34565b91507f6d73746f6b656e20616c6c6f77616e636520746f6f206c6f77000000000000006000830152602082019050919050565b600061511a600083615c23565b9150600082019050919050565b6000615134603a83615c34565b91507f54686520707572636861736520766f6c756d65206973206c617267657220746860008301527f616e207468652072656d61696e696e67207175616e746974792e0000000000006020830152604082019050919050565b600061519a601783615c34565b91507f4f6e6c792053656c6c65722063616e2063616e63656c2e0000000000000000006000830152602082019050919050565b60006151da601c83615c34565b91507f5072696365206d757374206265206174206c65617374203120776569000000006000830152602082019050919050565b600061521a600c83615c34565b91507f4b6c617920746f6f206c6f7700000000000000000000000000000000000000006000830152602082019050919050565b60e08201600082015161526360008501826153ab565b50602082015161527660208501826153ab565b506040820151615289604085018261489f565b50606082015161529c60608501826153ab565b5060808201516152af60808501826153ab565b5060a08201516152c260a08501826153ab565b5060c08201516152d560c0850182614aa5565b50505050565b60e0820160008201516152f160008501826153ab565b50602082015161530460208501826153ab565b506040820151615317604085018261489f565b50606082015161532a60608501826153ab565b50608082015161533d60808501826153ab565b5060a082015161535060a08501826153ab565b5060c082015161536360c0850182614aa5565b50505050565b60608201600082015161537f60008501826153ab565b50602082015161539260208501826153ab565b5060408201516153a560408501826153ab565b50505050565b6153b481615cc1565b82525050565b6153c381615cc1565b82525050565b60006020820190506153de60008301846148bd565b92915050565b60006020820190506153f960008301846148ae565b92915050565b60006040820190506154146000830185614890565b61542160208301846148bd565b9392505050565b600060c08201905061543d6000830189614890565b61544a6020830188614890565b61545760408301876153ba565b61546460608301866153ba565b61547160808301856153ba565b61547e60a08301846153ba565b979650505050505050565b600060a08201905061549e6000830187614890565b6154ab60208301866148bd565b6154b860408301856153ba565b6154c560608301846153ba565b81810360808301526154d68161510d565b905095945050505050565b60006040820190506154f66000830185614890565b61550360208301846153ba565b9392505050565b600060608201905061551f6000830186614890565b61552c60208301856153ba565b61553960408301846153ba565b949350505050565b60006080820190506155566000830187614890565b61556360208301866153ba565b61557060408301856153ba565b61557d60608301846153ba565b95945050505050565b600060a08201905061559b60008301876148bd565b6155a86020830186614890565b6155b560408301856153ba565b6155c260608301846153ba565b81810360808301526155d38161510d565b905095945050505050565b60006060820190506155f360008301866148bd565b61560060208301856148bd565b61560d60408301846153ba565b949350505050565b6000602082019050818103600083015261562f81846148cc565b905092915050565b60006020820190508181036000830152615651818461493d565b905092915050565b600060208201905081810360008301526156738184614997565b905092915050565b600060208201905081810360008301526156958184614a4b565b905092915050565b60006020820190506156b26000830184614ab4565b92915050565b60006020820190506156cd6000830184614ac3565b92915050565b60006020820190506156e86000830184614ad2565b92915050565b60006020820190506157036000830184614ae1565b92915050565b600060208201905081810360008301526157238184614af0565b905092915050565b6000602082019050818103600083015261574481614b29565b9050919050565b6000602082019050818103600083015261576481614b69565b9050919050565b6000602082019050818103600083015261578481614ba9565b9050919050565b600060208201905081810360008301526157a481614be9565b9050919050565b600060208201905081810360008301526157c481614c4f565b9050919050565b600060208201905081810360008301526157e481614c8f565b9050919050565b6000602082019050818103600083015261580481614cf5565b9050919050565b6000602082019050818103600083015261582481614d5b565b9050919050565b6000602082019050818103600083015261584481614d9b565b9050919050565b6000602082019050818103600083015261586481614ddb565b9050919050565b6000602082019050818103600083015261588481614e1b565b9050919050565b600060208201905081810360008301526158a481614e5b565b9050919050565b600060208201905081810360008301526158c481614e9b565b9050919050565b600060208201905081810360008301526158e481614edb565b9050919050565b6000602082019050818103600083015261590481614f41565b9050919050565b6000602082019050818103600083015261592481614fa7565b9050919050565b6000602082019050818103600083015261594481614fe7565b9050919050565b6000602082019050818103600083015261596481615027565b9050919050565b600060208201905081810360008301526159848161508d565b9050919050565b600060208201905081810360008301526159a4816150cd565b9050919050565b600060208201905081810360008301526159c481615127565b9050919050565b600060208201905081810360008301526159e48161518d565b9050919050565b60006020820190508181036000830152615a04816151cd565b9050919050565b60006020820190508181036000830152615a248161520d565b9050919050565b600060e082019050615a40600083018461524d565b92915050565b6000602082019050615a5b60008301846153ba565b92915050565b6000604051905081810181811067ffffffffffffffff82111715615a8457600080fd5b8060405250919050565b600067ffffffffffffffff821115615aa557600080fd5b602082029050602081019050919050565b600067ffffffffffffffff821115615acd57600080fd5b602082029050602081019050919050565b600067ffffffffffffffff821115615af557600080fd5b601f19601f8301169050602081019050919050565b6000602082019050919050565b6000602082019050919050565b6000602082019050919050565b6000602082019050919050565b6000602082019050919050565b600081519050919050565b600081519050919050565b600081519050919050565b600081519050919050565b600081519050919050565b600081519050919050565b6000602082019050919050565b6000602082019050919050565b6000602082019050919050565b6000602082019050919050565b6000602082019050919050565b600082825260208201905092915050565b600082825260208201905092915050565b600082825260208201905092915050565b600082825260208201905092915050565b600082825260208201905092915050565b600082825260208201905092915050565b600082825260208201905092915050565b6000615c5082615ca1565b9050919050565b6000615c6282615ca1565b9050919050565b60008115159050919050565b60007fffffffff0000000000000000000000000000000000000000000000000000000082169050919050565b600073ffffffffffffffffffffffffffffffffffffffff82169050919050565b6000819050919050565b6000615cd682615d27565b9050919050565b6000615ce882615d27565b9050919050565b60008115159050919050565b60007fffffffff0000000000000000000000000000000000000000000000000000000082169050919050565b600073ffffffffffffffffffffffffffffffffffffffff82169050919050565b6000819050919050565b6000615d5c82615dab565b9050919050565b6000615d6e82615d75565b9050919050565b6000615d8082615ca1565b9050919050565b6000615d9282615d99565b9050919050565b6000615da482615ca1565b9050919050565b6000615db682615dbd565b9050919050565b6000615dc882615ca1565b9050919050565b82818337600083830152505050565b60005b83811015615dfc578082015181840152602081019050615de1565b83811115615e0b576000848401525b50505050565b6000601f19601f830116905091905056fea265627a7a72305820c8c0e58ac1b7aaf52e782b70453d7702c592da01dd9c7fed1a8a8ac1eb310ea46c6578706572696d656e74616cf50037",
  "linkReferences": {},
  "deployedLinkReferences": {}
}